001-586URODRESS D/CONVEX CLR STD S910   51    24.83  24.83            N     612364529000000000000083 3    
001-636URODRESS D/CONVEX CLR STD S916   51    24.83  24.83            N     612364586000000000000083 3    
003-129EMULSIDERM EMOLLIENT       6 300ML6    23.10  23.10  6.93      NZ      2161537501637922350134 1    
004-473DULCOLAX LAXATIVE SUPP 10MG     121     2.77   2.77  4.99      NZ      3227493500028366196206 23   
004-838EUCERIN ATO CNT BATH AND S 3 400ML3    25.38  22.84 15.00      NZ      3804481400580885872901 12   
004-960CONVEEN STH/EASI 5212 20MM      301    54.79  54.79            N     612505097570178092822983 3    
005-207CONVEEN SEC+STH 5221 21MM       301    54.75  54.75            N     612505113570178092997483 3    
005-231CONVEEN SEC+STH 5240 40MM       301    54.75  54.75            NZ    612505121570178093005583 3    
005-249COLOP CLAMP DR 9503             201    22.96  22.96            N     612529592570178060023183 3    
005-546LISTERINE ADV DEF GUM THER 6 500ML6    22.12  19.91  5.90      NZ      3808607357466109136503 1    
005-561LISTERINE ADV DEF GUM THER 6 250ML6    14.06  12.65  3.75      NZ      3808615357466109134103 1    
006-072DOVE APA ORIGINAL 75ML      6 75ML6    14.32  12.89  3.09      NZ      3800216000009604552704 1    
006-098TENA MEN LEVEL 2              3 103     9.40   9.40  4.49      NO      2893634732254001641301 13   
006-239SURE APA COTTON             6 75ML6    12.13  10.92  2.65      NZ      3803657000009604544204 1    
006-429DOVE APA INVISIBLE DRY      6 75ML6    14.32  12.89  3.09      NZ      3802899000009604553404 1    
007-880BIATAIN SUP N/A DR 4635 15CMSQ  101    45.60  45.60            NZ    612901924570178089265083 3    
008-540NUROFEN BACK PAIN CAP 300MG   6 246    24.72  24.72  5.99      NZO     3086121500016783166592 12   
008-631LEVONELLE ONE STEP 1500MCG    10 110  138.30 138.30 22.35      NZ      3093176501670300866875Z13   
008-698NEXCARE STERISTRIP               81     1.74   1.74  2.77      NZ      2659985871142807715501 13   
008-763ALGISITE M DRSG 15X20CM         101    54.10  54.10            NZ    612551133500022342525883 3    
008-938HOL COMPACT CLD 3473 BG 38MM    301    80.89  80.89            N     612192144539016600564983 3    
009-241HOL KARAYA5 DR 3228 TR 32/22MM  301    94.94  94.94            NZ    610758391539016600392883 3    
009-258HOL KARAYA5 DR 3224 TR 51/38MM  301    94.94  94.94            NZ    610758524539016600386783 3    
009-274HOL KARAYA5 CL 3223 TR 38/29MM  301    94.94  94.94            NZ    610758409539016600384383 3    
009-837THERMOSKIN TENNIS ELBOW  MED     11     7.04   7.04 12.69      NZ      2791549060958084205707 1    
010-603BROLENE EYE DROPS          10 10ML10   32.00  32.00  5.49      NZ      0035998501301100444379 13   
011-106BRULIDINE CRM 0.15%         10 25G10   20.00  20.00  3.50      N       0037481503555901480703D13   
012-492NAIR BODY WAX STRIPS          6 126     4.38   3.94  1.00      NZ      4026878501072482967703 12   
012-658BATISTE XXL PLUMBING POWDER   8 5G8    18.80  16.92  4.25      NZ      3860756501072482789503 1    
012-674BATISTE XXL STYLING        6 200ML6    14.47  13.02  4.29      NZ      4001152501072482907303 1    
012-930HOL KARAYA5 OP DR 3138 32/22MM  301    94.94  94.94            NZ    610760207539016600340983 3    
013-144HOL KARAYA5 DR 3114 OP 51/38MM  301    92.33  92.33            NZ    610760165539016600310283 3    
013-201HOL KARAYA5 DR 3278 TR 32/22MM  301    94.94  94.94            NZ    610758763539016600470383 3    
013-219HOL KARAYA5 DR 3273 TR 38/29MM  301    94.94  94.94            NZ    610758771539016600462883 3    
013-227HOL KARAYA5 DR 3279 TR 44/35MM  301    94.94  94.94            NZ    610759233539016600472783 3    
013-292NAIR CREAM SENSITIVE       12 80ML12    9.00   8.10  1.00      NZ      4022935501072482965303 13   
013-300NAIR FACIAL WAX STRIPS        6 126     4.38   3.94  1.00      NZ      4026886501072482966003 1    
013-318ULTRA CHLORASEPTIC KIDS B/CURR 6 16    19.26  19.26            NZ      3994001506001888011205D1    
013-326ULTRA CHLORASEPTIC HONEY & LEM 6 16    19.26  19.26  5.21      NZ      4019113506001888003702D1    
013-334ORAL B T/BR HDS STAR WARS     12 112  115.48 115.48 16.00      NZ      4022992421020116095301 1    
013-433TRESEMME COND RICH MOIST P 6 235ML6     4.23   4.23  1.00      NZO     8115065871090846792902 13   
014-290HOL IMPRESS C DR 3260BE19MM FB  101    29.36  29.36            NZ    612241842000000000000083 3    
015-214GILLETTE VENUS SPA BREEZE BLA 10 810  149.10 134.19 21.50      NZ      3552957770201896683703 1    
015-271GILLETTE VENUS BLADES         10 810  117.54 105.79 14.99      NZ      3447547301426028080203 1    
015-743HOL IMPRESS UR 1454 25MM    FB  101    51.22  51.22            NZ    612241982539016600150483 3    
016-063BIATAIN S N/A DR 4639 20CMSQ    101    71.20  71.20            N     612941011570178089268183 3    
016-196BRAUN SERIES 3 CLN&RENEW 3PK   6 16    54.84  49.36 12.99      NZ      8406183421020138235507 1    
016-477HOL IMPRESS UR 1485 29MM    FB  101    58.62  58.62            NZ    610556241539016600210583 3    
016-741HOL IRRIGATOR DRAIN 7724        201    34.40  34.40            NZ    610016840539016601882383 3    
016-840TENA DISCREET EXTRA PLUS       6 86    10.21  10.21  2.45      NO      3787405732254106772801 13   
017-244LEMSIP MAX FUSION HONEY & GIN 6 106    21.30  21.30  5.49      NZ      3808318500015842909302D11   
017-251NUROFEN FOR CHILD COLD ORA 6 100ML6    15.49  15.49  3.99      NZ      3810728500015842893505D11   
017-293NUROFEN FOR CHILD COLD STR 6 100ML6    15.49  15.49  3.99      NZ      3810736500015842900005D12   
017-301NUROFEN DAY & NIGHT C&F TAB  12 1612   42.63  42.63  5.49      NZ      3808334050114177808202D1    
017-319NUROFEN COLD & FLU RELIEF    12 1612   42.63  42.63  5.49      NZ      3808326500015845451402D13   
017-426HOL LOPROF UR 1439 44MM     FB  101    63.34  63.34            NZ    610760371539016600124583 3    
017-897E45 CREAM 50G               12 50G12   23.21  20.89  2.99      N       0080572500015842137002D21   
019-513NATURA S7204 57MM FLXHYD FLANG  101    36.19  36.19            NZ    613013398076845508971083 3    
019-638RENASYS G FLAT DR DRSG KIT 10MM  11    24.75  24.75            NZ    613812831004056512636483 3    
019-679RENASYS G ROUND DRSG KIT10       11    24.75  24.75            NZ    613812823004056512635783 3    
019-836CONVACARE S208 ADH REMVR WIPES 1001    19.27  19.27            NZ    613181542076845507077083 3    
019-984ASSURA INS 2P MD/SF 40MM12354   301    46.51  46.51            N     612678894570178073271083 3    
020-370REGELLE VAGINAL MOISTURISER 3X6.5G1     3.29   3.29  5.99      NZ      3816469539150044007204 1    
020-388REGELLE VAGINAL MOISTURISE 12X6.5G1     8.32   8.32 14.97      NZ      3816485539150044009604 12   
020-404REGELLE VAGINAL MOISTURISER 6X6.5G1     5.41   5.41  9.74      NZ      3816477539150044008904 1    
020-818COMFEEL CLEANSER BOTTLE 4710     11    18.73  18.73            NZ    613148517570893218910183 3    
021-774OLAY REG 3PT T/MENT CRM FF  4 50ML4    69.32  62.39 29.99      NZ      8393936541007677639902 1    
021-980SUDAFED MUCUS DAY & NIGHT CAP 6 166    17.46  15.71  4.99      NZ      3806460357466106784102D1    
022-103STERADENT ACTIVE FRESH TAB   12 3012   10.68   9.61  1.30      NZ      4007530501141778333704 12   
022-426STERADENT ACTIVE PLUS TAB    12 3012   10.68   9.61  1.30      NZ      4007522501141778332004 13   
022-590HOL CONFORM2 27400 MIDI 70MM    301    39.69  39.69            NZ    612594794539016603554783 3    
022-962PHYSIOTULLE DRSG 3910 10CMSQ    101    23.80  23.80            NZ    612927986000000000000083 3    
023-143CHILDS FARM HAIR & BODY OR 6 250ML6    13.98  12.58  4.00      NZ      3935814502906600715502 11   
023-242CHILDS FARM BBATH TANGER   6 250ML6    13.98  12.58  4.00      NZ      3935822502906602417602 1    
023-291CHILDS FARM SHMP STRWB&MNT 6 250ML6    13.98  12.58  4.00      NZ      3935798502906600714802 1    
023-382CHILDS FARM HANDWASH GRAPE 6 250ML6    13.98  12.58  4.00      NZ      3936077502906601059902 1    
023-473PHYSIOTULLE DRSG 3915 15X20CM   101    72.50  72.50            N     612928034570178095757183 3    
023-531HOL MOD FLEX 28500 MIDI DR CTF  301    92.75  92.75            NZ    612922979539016605614683 3    
023-721VAGISIL ODOUR SHIELD WASH  6 250ML6    19.26  17.33  5.50      NZ      3804366501093400393502 1    
023-739VAGISIL PH BALANCE WASH    6 250ML6    19.26  17.33  5.50      NZ      3804572501093400394202 11   
023-762MULTI-GYN ACTIGEL BV        6 50ML6    47.94  43.15 11.99      NZ      3672805506022775012104 1    
023-770MULTI-GYN FLORAPLUS THRUS 24 5X5ML24  211.92 190.73 13.24      NZ      3672813506022775011404 1    
023-887HOL MOD FLEX MAXI 28300 CTF DR  301    94.45  94.45            NZ    612922987539016605586683 3    
023-952LIVE XXL 86 PURE PURPLE        3 13    11.76  10.58  5.49      NZ      3816808501258320358204 1    
024-026OLAY REG NIGHT CRM          4 50ML4    46.56  41.90 19.99      NZ      3357142501132137602102 1    
024-042LIVE XXL 88 URBAN BROWN        3 13     8.96   8.96  4.49      NZO     3816816501258320359904 1    
024-539CLEAR ADV SHTH 786241 40MM XL   301    53.59  53.59            N     612245660501250911968383 3    
024-778DEEP RELIEF GEL 100G        6 100G6    38.76  38.76 11.00      NZ      2246841501150108003894 12   
024-992ASSURA UROSTOMY MAXI 2560       301   153.26 153.26            NZ    612118958570178044364783 3    
025-213ASSURA UR2875 MXCL2P10-50MM FB  301    91.63  91.63            NZ    612119105570178044372283 3    
025-593NATURA CONVEX WAFER S7331        51    17.65  17.65            NZ    612641512076845506579083 3    
025-734CARBOFLEX N/ADH S7661 8X15CM     51    20.25  20.25            NZ    612527372076845511100883 3    
026-062CONVATEC CURVE CLIP S202        101     6.54   6.54            NZ    612250165076845503452983 3    
026-542ASSURA UR 2135 PD CL 1P FB      301   153.26 153.26            N     612118966570178044383883 3    
028-084DIFFLAM SORE THROAT RINSE 10 200ML10   46.40  46.40  7.99      NZ      2240398506003524711076 13   
028-233HOL STOMA CAP 3184 51MM         301    41.88  41.88            NZ    613055498539016600372083 3    
028-811EURAX CRM 10% 30G            6 30G6    14.98  13.48  3.99      N       0094474501130972581002D22   
029-876CATH EASICATH TIE 5382 M 12CH   251    32.70  32.70            N     612184489570178021558983 3    
030-015NUROFEN MIGRAINE PAIN 342MG   6 126    12.54  11.29  3.23      N       2937225501141779956701D1    
031-393CONVEEN EASICATH M 8CH 5348     251    32.70  32.70            NZ    612184307570178021546683 3    
033-399ALGISITE M CAL ALGI RPE 2GX30C   51    18.25  18.25            NZ    612595049500022342528983 3    
034-520HOL CONFORM2 UR TR 25830 55MM   101    29.45  29.45            NZ    612820850000000000000083 3    
036-707HOL LOPROF UR 1432 25MM     FB  101    63.34  63.34            NZ    610760330000000000000083 3    
038-109MODERMA FLX CLD 22135 BG 35MM   301    75.06  75.06            NZ    612696086539016603920083 3    
041-392CUTICURA H/GEL ORIGINAL    4 250ML4     7.56   6.80  2.79      N       3718160501200856140203 13   
042-978ORS REHYDRATION SALTS STRWBRY 6 126    11.63  11.63  3.50      NZ      3808573506013505014603 1    
043-943STERIMAR HYPERTONIC CONGEST  100ML1     4.67   4.67  7.29      NZ      3356276333130009724502 13   
044-503VOLTAROL OA JPR 1.16% GEL 3 50 30G50  173.67 173.67            NZ      2847341505456391038794 12   
045-112AQUACEL EXTRA 4X30CM            101    30.20  30.20            NZ    613824786076845513049883 3    
045-757COMFASURE AB CATH RETAIN STRP    51    15.90  15.90            NZ    612668481501746209737583 3    
045-963ASSURA INS 1P MD/DSGN 12150     301    83.15  83.15            N     612596450570178064353583 3    
045-971ASSURA INS 1P MD DSGN 12155     301    83.15  83.15            N     612596484570178064355983 3    
045-989ASSURA INS 1P MD/DSN35MM 12156  301    83.15  83.15            N     612596492570178064356683 3    
046-052ASSURA INSPIRE 12149            301    83.15  83.15            NZ    612596682570178064352883 3    
046-136ASSURA INS 1P M/DSFT CTF 13340  301    84.12  84.12            NZ    612596278570178064368983 3    
046-177ASSURA INS 1P MX DSF CTF 13370  301    84.12  84.12            NZ    612596252570178064374083 3    
046-250NUROFEN TAB 200MG (16)       24 1624   41.31  37.18  2.66      N       2633261500016781937301D1    
046-318ORAL B ESSENTIAL FLOSS UNWAXE 12 112    7.88   7.88  1.00      NZO     0339671410333021703505 1    
046-326SIMPLE VITAL VIT DAY CRM SP 6 50ML6    12.28  12.28  2.74      NZO     3836814871256101449602 11   
046-425EMERGENCY CONTRACEPTIVE TABS  12 112  119.88 119.88 17.99      NZ      1187194599700132745675 1    
046-979TENA DISCREET EXTRA PLUS DUO 3 2X83     9.76   9.76  4.39      NZO     3791423732254106793301 12   
046-995O'KEEFFES WORKING HANDS CREA 6 96G6    22.68  22.68  6.74      NZO     3793734570494700116201 13   
047-092COLGATE MAX WHITE RINSE    6 500ML6    17.37  15.63  3.99      NZ      3821139871478979817203 1    
047-100COLGATE T/BR MAX WHITE 360 ME 12 112   24.45  22.00  4.07      NZ      3821147871478979310801Z1    
048-199MYCOTA CRM                  12 25G12   24.15  24.15  3.30      N       0186759501130989302101D1    
048-207MYCOTA FOOT POWDER          12 70G12   36.45  36.45  4.99      NZ      0186767501130989312001D13   
048-603BENADRYL CHILDRENS 2+ SOL 12 100ML12   41.88  41.88  5.99      NZ      3698198357466057647405 1    
048-611CETAPHIL GENTLE SKIN CLEA 12 236ML12   60.72  54.65  8.99      N       3660859502046520042002 13   
048-637CETAPHIL MOISTURISING LOT 12 236ML12   60.72  54.65  8.99      N       3661113502046520043701 12   
049-130CLEAR ADV SPIRIT STYLE 1 24MM   301    53.17  53.17            NZ    613789377075218130607483 3    
049-155OPTREX EYE DROPS BRIGHTENIN 6 10ML6    19.38  17.44  4.99      N       3342524500015845092905 13   
049-171CLEAR ADV SPIRIT STYLE 1 36MM   301    53.17  53.17            NZ    613789401075218130610483 3    
049-189CLEAR ADV SPIRIT STYLE 3 24MM   301    53.17  53.17            N     613789476075218130617383 3    
049-213CLEAR ADV SPIRIT STYLE 3 36MM   301    53.17  53.17            NZ    613789500075218130620383 3    
049-874ULTRA OMEGA-3 HIGH POTENCY    4 604    24.40  21.96 10.15      NZ      3394624502126502257105 1    
049-882ULTRA 2IN1 OMG-3 & C/LIVER OI 4 604    17.00  15.30  7.10      NZ      3247277502126502255708 1    
049-890ULTRA VIT/ C SR & BIOFLAVONOI 4 604    14.28  12.85  5.95      NZ      3720901502126504404707 1    
049-908ULTRA GARLIC 400MG 60 TABS    4 604    21.48  19.33  8.95      NZ      3722386502126504509906 1    
049-916DIABETONE PLUS OMEGA3 CAPS    4 564    36.64  32.98 15.25      NZ      3690096502126504384215 1    
049-940ULTRA GLUCOSAMINE 700MG TABS  4 604    26.84  26.84 11.20      NZ      3717345502126504505108 1    
049-957ULTRA GLUC & CHOND 500/400    4 604    39.08  35.17 16.30      NZ      3717352502126504504408 1    
050-039PERFECTIL MAX TABLETS & CAPS  4 844    55.08  49.57 22.95      NZ      3792728502126504528013 12   
050-179OSTEOCARE CHEWABLE 30 TABS    4 304    12.20  10.98  5.10      NZ      3243557502126502040916 1    
050-195ULTRA LYCOPENE 30 TABS        4 304    35.88  32.29 14.95      NZ      3720893502126504402307 1    
050-203ULTRA LUTEIN & BILBERRY       4 304    21.48  19.33  8.95      NZ      3722394502126504510507 1    
050-211ULTRA GINGKO BILOBA & GINSENG 4 604    23.88  21.49  9.95      NZ      3720935502126504409205 1    
050-252ULTRA CRANBERRY 30 TABS       4 304    19.08  17.17  7.95      NZ      3720836502126504486307 1    
050-260ULTRA B COMPLEX 60 TABS       4 604    11.88  10.69  4.95      NZ      3720919502126504407805 1    
050-575JOHNSONS FACE WIPES MOIST     6 256    12.78  11.50  3.20      NZ      3808649357466108731302 1    
050-583JOHNSONS FACE CARE REFRESHING 6 256    12.78  11.50  3.20      NZ      3808623357466108725202 11   
050-591ALWAYS ULTRA SECURE NIGHT DU 10 1810   31.10  27.99  3.79      NZ      3825569401540068167005 1    
051-755PLANTUR 39 SPOO FINE HAIR  6 250ML6    41.88  37.69 10.15      NZ      3290939400866670180001 12   
051-789PLANTUR 39 SPOO COLOURED H 6 250ML6    41.88  37.69 10.15      NZ      3290954400866670185501 11   
051-797PLANTUR 39 CAFFEINE TONIC  6 200ML6    41.46  37.31 11.19      NZ      3290962400866670190907 11   
052-134IMODIUM PLUS CAP              6 126    21.12  21.12  6.31      NZO     2905008357466156855306Z12   
052-332GILLETTE BLUE II PLUS PINK     8 38     5.44   5.44  1.00      NZO     3831401770201833241003 13   
053-447URODRESS S912 ST CLD 22MM CNVX   51    24.83  24.83            NZ    612364545076845503498783 3    
053-546NATURA S7241 2PC FLEXFLNG 57MM  101    32.88  32.88            NZ    612826915076845507900183 3    
053-603NATURA S7306 MOULDABLE 33/45MM  101    35.42  35.42            NZ    613025616076845509268083 3    
053-769OROVITE TAB                  6 1006    45.42  45.42 11.64      N       0204875501261700123815D11   
053-975NATURA STOMA FLANG S7296 45MM   101    30.34  30.34            NZ    612671907076845506564683 3    
053-991NATURA STOMA FLANG S7298 70MM   101    30.34  30.34            NZ    612671923076845506566083 3    
054-346OVEX SUSPENSION 100MG/5ML   6 30ML6    45.30  45.30 13.51      NZ      3125671357466133907806Z23   
054-353FREEDERM TREATMENT GEL       6 25G6    33.36  33.36  9.14      NZ      3105145501637926200534 1    
054-734ULTRA KRILL OIL 500MG CAPS    4 304    35.88  32.29 14.95      NZ      3792702502126504530308 1    
054-783WELLMAN 70+ TABS              4 304    22.80  20.52  9.50      NZ      3727450502126504443609 1    
054-791WELLWOMAN 70+ TABS            4 304    22.80  20.52  9.50      NZ      3722402502126504444314 1    
054-809ULTRA VITAMIN D3 1000IU X96   4 964    14.28  12.85  5.95      NZ      3526720502126504337816 1    
054-999GILLETTE RAZ BLUE II SENSITIVE 8 38     5.55   5.55  1.00      NZO     3784543800184106899205 13   
055-442NATURA STOMA FLANG S7344 70MM   101    32.78  32.78            NZ    612641777076845507002283 3    
055-905MARS STANDARD SINGLE(303005 48 51G48   23.18  20.86  0.61      NPZ     6273528500015947047601 1    
058-545BIATAIN AG SACRAL 9641 23CMSQ    51   102.20 102.20            N     613131398570893238368483 3    
058-941OTRIVINE NATURAL - EUCALYPTUS 10 110   37.44  33.70  5.99      NZ      3815941505156203160002 1    
059-311E45 CREAM PUMP (NHS)        6 500G6    35.94  35.94  9.20      N       2799153500015842138702D23   
059-378COVONIA THROAT SPRAY        6 30ML6    27.00  27.00  7.99      NZ      2812238501130901611676 13   
060-459PIRITON SYRUP              6 150ML6    16.69  16.69  4.99      NZ      0220392500019852250171 23   
061-275SURE APA BRIGHT             6 75ML6    12.13  10.92  2.65      NZ      3803079000009604546604 1    
061-697DANSAC NOV CL 1P 50MM 80150     301    81.22  81.22            NZ    612709681570981725582983 3    
062-596IBULEVE MAXIMUM STRENGTH GEL 6 50G6    27.78  27.78  7.61      NZ      2857050501637929210194 13   
062-901ASSURA DR2826 MXOP2P 60MM       301    45.89  45.89            N     612135002570178014807883 3    
062-927ASSURA 2825                     301    45.89  45.89            NZ    612134997570178014806183 3    
063-149CONSECUR S617LP CLP+FIL OP45MM  301    40.43  40.43            NZ    612700607076845507337583 3    
063-248CONSECUR S607LP DR OP 45MM FB   101    13.39  13.39            NZ    612700680076845507349883 3    
063-305BONJELA JUNIOR ULCER GEL    12 15G12   30.96  27.86  3.99      NZ      3816592500015842818807D12   
063-743ASSURA DR2824 MXOP2P 40MM FB    301    45.89  45.89            N     612134989570178014805483 3    
064-022OILATUM SCALP TREATMENT SPOO 100ML1     5.77   5.77  9.49      NZ      2723666500046906924703 23   
064-485ASSURA DR2745 MDOP2P 50MM FB    301    45.89  45.89            N     610876367570178014869683 3    
064-519ALVITA INFRARED EAR THERMOMETR   11    13.19  13.19 23.99      NZO     3765690505538231374801V12   
064-543ALVITA THERM DISP PROBE COVERS 5 15     7.50   6.75  2.99      NZ      3793817505538231375501V1    
064-774ASSURA DR2744 MDOP2P 40MM FB    301    45.89  45.89            NZ    610876383570178014868983 3    
064-998TRANSFIX TF23230 STY2 32MM      301    51.77  51.77            NZ    612724110501931503142083 3    
065-037TRANSFIX TF32530 STY3 25MM      301    51.77  51.77            NZ    612724144501931503145183 3    
065-433TRANSFIX TF23630 STY2 36MM      301    51.77  51.77            NZ    612724128501931503143783 3    
065-649GALPHARM COLDSORE CREAM     12 2MG12   14.40  12.96  2.99      NZ      3148681501735310441007D1    
066-100KALMS NIGHT-HERBAL MEDICINE  5 37G5    14.70  13.23  5.30      NZ      3845344500047704612412 12   
066-878GALPHARM CYSTOCALM             6 66     7.20   6.48  2.99      NZ      2283224501735310010807D1    
067-025ASSURA DR2520 MXOP1P 10MM FB    301    84.12  84.12            NZ    612134930570178022132083 3    
067-215GALPHARM 1 A NIGHT SLEEP AID  6 206    14.40  14.40  4.99      NZ      3377348501735310612405 1    
067-702NATURA COMB DR S7468 57MM FB     51    22.22  22.22            NZ    612671840076845507273683 3    
068-130ASSURA DR2490 MXCL1P 10MM CTF   301    84.12  84.12            N     610878157570178014866583 3    
068-627CALPOL INFANT SUSP S/F 100 6 100ML6    13.74  12.37  3.98      N       3145869357466114333005D23   
068-684CALPOL INFANT SUSP ORIG    6 100ML6    13.74  12.37  3.98      N       3143823357466114334705D13   
069-492ASSURA DR2440 MDOP1P 10MM CTF   301    84.12  84.12            NZ    610878173570178021522083 3    
069-930ASSURA 2816                     301    45.89  45.89            NZ    612135119570178014804783 3    
069-948ASSURA CL2815  MXOP2P 50MM FB   301    45.89  45.89            N     612135101570178014803083 3    
069-971ASSURA 2814                     301    45.89  45.89            NZ    612135093570178014802383 3    
070-052ASSURA CL2516 MXOP1P 35MM FB    301    83.15  83.15            N     612135044570178022573183 3    
070-078ASSURA CL2515 MXOP1P 30MM FB    301    83.15  83.15            NZ    612135036570178022572483 3    
070-102ASSURA CL2511 MXOP1P 20MM FB    301    83.15  83.15            NZ    612135010570178022570083 3    
070-110ASSURA 2489                     301    83.15  83.15            NZ    612134419570178022522983 3    
070-169ASSURA CL2486 MXCL1P 35MM FB    301    83.15  83.15            NZ    612134385570178022519983 3    
070-177ASSURA CL2485 MXCL1P 30MM FB    301    83.15  83.15            NZ    612134377570178022518283 3    
070-193ASSURA 2481                     301    83.15  83.15            NZ    612118735570178014854283 3    
071-159PROFORE KIT ANK 18CM OR LESS     11    10.69  10.69            NZ    612268076500022341406183 3    
071-340NATURA COMB DR S7229 CST38 FB   101    13.88  13.88            NZ    612293405076845503423983 3    
071-357NATURA COMB DR S7230 CST45 FB   101    13.88  13.88            NZ    612293413076845503424683 3    
071-365NATURA COMB DR S7231 CST57 FB   101    13.88  13.88            NZ    612293421076845503425383 3    
071-381COMBIHESIVE NATURA OVAL S7244    51    17.33  17.33            N     612293132076845503511383 3    
071-498NATURA COMB DR S7270 BST38 FB   101    13.88  13.88            NZ    612293454076845503428483 3    
071-522NATURA COMB DR S7273 BST70 FB   101    13.88  13.88            NZ    612293488076845503431483 3    
071-597NATURA COMB CL S7291 BMN38 FB   201    22.98  22.98            NZ    612293348076845507856183 3    
072-793LIVE COL 104 LIGHTENER+TWI 3 143ML3    11.76  11.76  5.79      NZ      4015251501258350623204 1    
072-850LIVE COL 101 LIGHTENER+TWI 3 143ML3     8.96   8.96  4.79      NZO     4015236501258350621804 1    
073-015BECONASE ALLERGY 100 SPRAY 6 100DS6    30.96  27.86  7.99      N       2921062501261611386406D23   
073-916STOMADRESS LG S439 1P 8MM FB    101    27.46  27.46            NZ    612273894076845503842883 3    
076-265ULTRADEX FRSH BREATH SPRAY  12 9ML12   21.48  19.33  3.50      NZ      3831682506005035102103 1    
076-794ELVIVE SPOO FIBROLOGY 250M 6 250ML6     9.15   9.15  2.39      NZO     3851219360052249606901 1    
076-802ELVIVE COND FIBROLOGY 250M 6 250ML6     9.15   9.15  2.39      NZO     3851227360052249963302 1    
076-844ELVIVE SPOO FIBROLOGY 400M 6 400ML6    22.46  20.21  5.99      NZ      3851235360052249723301 13   
076-885ELVIVE COND FIBROLOGY 400M 6 400ML6    22.46  20.21  5.99      NZ      3851243360052250072802 13   
077-123BIATAIN CONTOUR DR 3486 17CM     51    26.10  26.10            NZ    613045721000000000000083 3    
077-214ESTEEM SYNERGY S1100 BAR 13-35  101    38.80  38.80            NZ    612891430076845508302283 3    
077-222ESTEEM SYNERGY S1101 BAR 13-48  101    38.80  38.80            NZ    612891448076845508304683 3    
077-263ESTEEM SYNERGY S1102 BAR 13-61  101    38.80  38.80            NZ    612891455076845508306083 3    
077-768NAVINA RECTAL CATHETER SET       11    85.01  85.01            N     614029351739253217295383 3    
077-784NAVINA TUBE SET                  11     9.14   9.14            NZ    614029336739253217394383 3    
077-859NATURA COMB FL S7328             51    17.65  17.65            NZ    612641488076845506576983 3    
078-840ORGANIX CARROT STICKS ORG    8 20G8     5.04   4.54  0.80      NZ      6014856502412188540202 1    
079-046GILLETTE VENUS CMFORT OLAY RAZ 6 16    52.24  47.02 10.99      NZ      3854767770201858387403 1    
079-301NAVINA CONSUMABLE SET            11   134.93 134.93            NZ    614029344739253217310383 3    
080-150ALWAYS DAILIES FRESH WRAPPED  6 206     4.19   4.19  1.00      NZO     3455300401540068035205 12   
081-075EXCILOR FUNGAL NAIL SOLUTI 5 3.3ML5    62.30  56.07 19.99      NZ      3836954541076500080402D12   
082-313ASSURA INS 1P DR HA MXSF13876   301    95.54  95.54            N     612785327570178080175183 3    
082-461ANUSOL SOOTHING RELIEF OINT  6 15G6    16.03  16.03  4.58      NZO     3849783501072453102012D11   
082-479ANUSOL SOOTHING RELIE SUP 6 12X15G6    16.03  16.03  4.58      NZO     3850146501072453103712D11   
082-594NEUTROGENA T-GEL 2 IN 1 25 6 250ML6    33.24  29.92  8.51      NZ      3848942357466145318701 13   
082-750PROFOOT MOLESKN COMFRT PADDIN  6 16     8.54   8.54  2.56      NZO     3353828506008417083402 1    
082-909NYTOL ORIGINAL 25MG           6 206    18.96  18.96  4.89      NZ      3824752501261611377205 23   
082-941NYTOL ONE A NIGHT 50MG        6 206    26.76  26.76  6.89      NZ      3824620501261611378905 23   
083-576GILLETTE VENUS SUGARBRRY BLAD 10 310   88.90  80.01 12.00      NZ      3854759770201829580703 1    
083-808CB12 BOOST CHEWING GUM       12 1012   17.40  15.66  2.59      NZ      3813524506003524822303 1    
083-998DERMACOOL MENTH AQUS PUMP  12 500G12  154.15 154.15 19.24      NZO     3812336506015009032502 12   
084-038ALLEVYN ADH DRSG 12.5CMX22.5CM  101    43.70  43.70            NZ    612766889500022344691883 3    
084-053DERMACOOL MENTH AQUS PUMP  12 500G12  158.95 158.95 19.90      NZO     3812344506015009014102 11   
084-061DERMACOOL MENTH AQUS PUMP  12 500G12  162.79 162.79 20.36      NZO     3812351506015009015802 12   
084-079DERMACOOL MENTH AQUS PUMP  12 500G12  209.76 188.78 27.97      NZ      3849650506015009011002 11   
084-350LAMISIL AT CREAM             6 15G6    21.60  21.60  6.41      NZ      3270428505156201150301D13   
084-764ULTRAMOL SOLUBLE              4 324    12.80  12.80  4.99      NZ      3234176500028365204592R1    
084-863VERRUGON COMPLETE PK             11     4.44   4.44  7.99      NZ      2552453501968600339281 12   
084-962DANSAC OSTBLT BGE090-02 100CM    11     8.10   8.10            NZ    612794345570981730613283 3    
085-076PAMPERS NEW BABY 0 CRRY PK 24 8 248    24.56  24.56  3.49      NZ      6305817401540063897102 11   
085-126DOVE H/WASH SHEA BUTTER    6 250ML6    10.21   9.19  2.60      NZ      3795366871170092156503 1    
085-316VO5 EXTRM MATT PASTE       6 100ML6    15.48  15.48  3.99      NZO     3505591500029763464803 1    
085-779HOL INCARE INSTCATH M16CH 9673  251    35.22  35.22            NZ    612562163539016603450283 3    
085-803HOL INCARE INSTCATH F12CH 9675  251    35.22  35.22            NZ    612562205539016603454083 3    
086-025CUTICURA MOISTURING HAND G 6 100ML6     6.36   5.72  1.50      NZ      4023693501200859910803 1    
086-645GOT2B GLUED SPIKING WAX     6 75ML6    17.46  15.71  4.07      NZ      3854460501258350473303 1    
087-759DANSAC NOVA 823-40 EASI 40MM    301    92.70  92.70            NZ    612863025570981731945383 3    
087-981GAVISCON ORIG LIQ MINT 600 6 600ML6    42.67  38.40 10.99      N       2816734500015841828803D12   
088-021GAVISCON ORIG LIQ ANISEED  6 600ML6    42.67  38.40 10.99      N       2816726500015841827103D13   
088-039SYLK VAGINAL LUBRICANT NAT     40G1     5.16   5.16  9.99      NZ      3149689941483825900304 13   
088-393EUMOVATE ECZEMA CRM         10 15G10   46.01  46.01  8.25      NZ      2819142500034707901634 23   
088-633EUCERIN SUN ALR PRT CR GEL 3 150ML3    33.93  30.54 19.00      NZ      3856515400580003312402 1    
088-997COLGATE T/PST MAX WHT LUMI 12 75ML12   32.40  29.16  3.99      NZ      3823242871478985939202Z1    
089-136ARJUN MENTHOL AQUEOUS CRM  12 100G12   39.00  39.00  5.56      NZ      3356508506013693110902R1    
089-235SURE MEN APA COMP INVISIBLE 6 75ML6    12.09  10.88  2.65      NZ      3845013000009608097902 1    
089-581KORA LIQUID VIT D3 3000IU/ML 100ML1    19.45  19.45 72.00      NZ      3861408539150044015716 1    
090-696MILTON FLUID 1000ML       6 1000ML6    13.62  12.26  3.33      N       3430964336137008636806 1    
090-738MENTOS ROLLS  MINT            40 140    8.40   8.40  0.31      NPZO    6292528000008710813201 1    
090-787MENTOS ROLLS FRUITS           40 140    8.40   8.40  0.31      NPZO    6292536000008710826201 1    
090-845CHUPA SUGAR FREE LOLLIES      50 150   11.00   9.90  0.35      NPZ     6292635841003196102701 1    
090-878NOURKRIN WOMAN FOR HAIR GROWTH 1801    75.83  75.83129.99      NZ      3379781570772510022403 12   
090-951NOURKRIN MAN FOR HAIR GROWTH ( 1801    75.83  75.83129.99      NZ      3820990570772510401703 11   
091-041NOURKRIN MAN FOR HAIR GROWTH (6 601    29.16  29.16 49.99      NZ      3208410570772510025503 12   
091-108ASSURA UROSTOMY MIDI 2540       301   153.26 153.26            NZ    612409555570178050516183 3    
091-140SANEX DEO INVIS DRY STICK  12 65ML12   17.81  17.81  1.99      NZO     3856333871478991395704 1    
091-645HOL MOD FLEX MIDI 28200 CTF     301    92.75  92.75            NZ    612922912539016605562083 3    
091-686PAMPERS BABY WIPES NWBABY SE 12 5012    7.96   7.96  1.00      NZO     3856481401540062348904 1    
092-023SOFT & GENTLE R/ON LAV & PA 6 50ML6     5.22   4.70  1.29      NZ      3852357501200857241504 1    
092-106SOFT & GENTLE APD VERB & W 6 150ML6     8.40   7.56  1.89      NZ      3852118501200857031204 1    
092-155SOFT & GENTLE APD LAV & PA 6 150ML6     8.40   7.56  1.89      NZ      3852134501200857061904 1    
092-221SOFT & GENTLE APD  ROSE &  6 150ML6     8.40   7.56  1.89      NZ      3852126501200857051004 1    
092-320SOFT & GENTLE APD JASMIN&C 6 150ML6     8.40   8.40  1.89      NZ      3852100501200857001504 1    
092-841DAY NURSE LIQUID           6 240ML6    30.55  30.55  7.99      NZ      2831527500034707780776 13   
093-047CAREFREE LINER LONG          10 2410   16.20  14.58  1.87      NZ      3271756357466033496805Z11   
093-054GILLETTE SATIN S/GEL SEN SK 6 75ML6     3.85   3.85  1.00      NZO     3552775770201801525203 1    
093-427MITCHUM  APD STICK PURE FRES 6 41G6    12.06  10.85  2.99      NZ      3860301030997475566504 1    
093-898ASSURA INS 1P MD/TRS30MM 12135  301    83.15  83.15            NZ    612596401570178064344383 3    
093-989ASSURA INS 1P MD/DGN25MM 12154  301    83.15  83.15            NZ    612596476570178064354283 3    
094-243DANSAC NOVA2 DR OP 121343 43MM  101    13.97  13.97            NZ    612819753570981731476283 3    
094-375DANSAC NOVA2 FL 1155-35 35MM     51    16.65  16.65            NZ    612819720570981731599883 3    
094-565CURA HEAT BACK PAIN VALUE PACK 4 74    17.28  15.55  6.99      NZ      3599230498707202244311 1    
094-920ARGAN OIL SHAMPOO         12 300ML12    8.04   7.24  1.00      NPZ     6325369506012016406301 13   
094-946ARGAN OIL CONDITIONER     12 300ML12    8.04   7.24  1.00      NPZ     6325393506012016408702 13   
095-109ARGAN OIL HAIR TREATMENT   12 50ML12    8.33   7.50  1.00      NPZ     6325401506012016410007 13   
095-117ARGAN OIL HAIR MASK       12 220ML12    8.04   7.24  1.00      NPZ     6325435506012016413107 1    
095-133ARGAN OIL HEAT DEFENCE SP 12 150ML12    8.04   7.24  1.00      NPZ     6325450506012016434603 13   
095-760GARNIER MIN DEO R/ON COOL   6 50ML6     9.15   8.24  2.44      NZ      3657319360054103378804 1    
097-105AVEENO SKIN REL LOT MENTH 24 200ML24   87.60  87.60  5.49      NZ      3861010357466114603402 1    
097-360NATURA COMBI S7240 45MM         101    32.88  32.88            NZ    612826907076845507899883 3    
097-741BIATAIN AG ADH 9635 18CMSQ       51    97.50  97.50            N     612976769570893238366083 3    
099-259INVIEW S/PENILE SHEATH 29MM     301    48.95  48.95            NZ    613715695061007514374083 3    
099-762BRAUN THERMOSCAN 3             6 16   122.88 110.59 36.99       Z      4022596402216723030001 13   
099-846DUREX THIN FEEL CLASSIC (6)    6 66    20.54  18.49  5.99      NZ      3857190505219702599601 13   
100-040DUREX EXTRA SAFE (6)           6 66    20.54  18.49  5.99      NZ      3857257505219702596501 13   
100-057DUREX PLEASURE ME (6)          6 66    20.54  18.49  5.99      NZ      3856952505219702602301 12   
100-156DETTOL H/SANITISER GEL A/V 12 50ML12   15.24  15.24  1.80      NZ      4026514501141778328303 1    
100-271SEBAMED INTIMATE WASH PH3. 6 200ML6    22.47  22.47  5.99      NZO     3247350410304091698302 11   
100-628NIVEA ESS NIGHT CRM SENS    3 50ML3    10.41   9.37  4.99      NZ      3856705400580513887902 13   
100-636NIVEA ESS MICELLAR WATER   6 200ML6    12.00  12.00  3.06      NZO     3856697400580513890902 13   
100-651NIVEA ESS WIPES SENS          6 256     6.82   6.82  2.03      NZO     3856671400580514217302 12   
100-750BIOFREEZE TOP PAIN REL CLD  6 59ML6    16.38  16.38  4.50      NZO     3729506107311244027811D1    
100-792CUTICURA H/GEL CUCUMBER    6 100ML6     6.12   5.51  1.49      NZ      3717253501200856130303 1    
100-982QUATTRO FOR WOMEN BIKINI CORAL 5 15    35.04  31.54 10.89      NZ      3865409402780063796603 1    
101-006QUATTRO FOR WOMEN BLADES CORA 10 310   42.20  37.98  6.99      NZ      3865391402780011430603 1    
101-402GILLETTE AP ENDURANCE ARTIC 6 70ML6    11.04   9.94  2.99      NZ      3847985770201897810602 1    
101-410GILLETTE AP ENDURANCE COOL  6 70ML6    11.04   9.94  2.99      NZ      3847993770201897812002 1    
101-840NIVEA MEN SENS COOL SHAVE  6 200ML6    11.49  11.49  2.99      NZO     3856507400580894363007 1    
101-865NIVEA MEN SEN COOL POST S/ 6 100ML6    18.25  18.25  4.49      NZO     3856499400580894481107 1    
101-881ELASTOPLAST FABRIC KNEE&ELBO 10 1010   23.10  20.79  3.20      NZ      3856549400580028059701 1    
102-038CRUTCHES PAIR ADULT DOUBLE ADJ   11    13.71  13.71 35.05      NZ    616829865000000000000001 3    
102-053THE ORIGINAL MCKENZIE AIRBACK    11     8.90   8.90 16.45      NZ    616829733000000000000001 3    
102-061BIB LARGE BLUE                   11     8.50   8.50 17.00      NZ    616829741000000000000001 3    
102-079BIB LARGE RED                    11     8.50   8.50 17.00      NZ    616829790000000000000001 3    
102-087BIB MED BLUE                     11     7.45   7.45 14.90      NZ    616829808000000000000001 3    
102-095BIB MEDIUM RED                   11     7.45   7.45 14.90      NZ    616829816000000000000001 3    
102-103BIB SMALL BLUE                   11     6.40   6.40 12.80      NZ    616829824000000000000001 3    
102-129BIB SMALL RED                    11     6.40   6.40 12.80      NZ    616829832000000000000001 3    
102-137BUTTON HOOK & ZIP PULLER         11     4.61   4.61  8.05      NZ    616829840000000000000001 3    
102-145CHAIR RAISERS WOODEN             11    20.50  20.50 41.00      NZ    616829857000000000000001 3    
102-152HAND EXERCISER GEL BALL SET      11     9.95   9.95 18.35      NZ    616830186000000000000001 3    
102-178CRUTCHES PAIR ADULT SINGLE ADJ   11    16.98  16.98 38.15      NZ    616829873000000000000001 3    
102-194CUTLERY SET BLACK                11    12.77  12.77 22.36      NZ    616829881000000000000001 3    
102-228DYCEM JAR OPENER BLUE            11    56.25  56.25103.85      NZ    616829998000000000000001 3    
102-236GRAB RAIL 30.5CM                 11     3.95   3.95 10.55      NZ    616830087000000000000001 3    
102-251GRAB RAIL 38.1CM                 11     4.35   4.35 13.06      NZ    616830137000000000000001 3    
102-269GRAB RAIL 41CM                   11     4.55   4.55 13.66      NZ    616830145000000000000001 3    
102-277WALKING STICK BALCK (29"-33")    11    10.80  10.80 19.96      NZ    616830418502831893568001 3    
102-384CATH LOFRIC DILA 4061625 CH16   301    43.06  43.06            NZ    613855962739253216641983 3    
102-418WALKING STICK BLACK (33"-37")    11    10.80  10.80 19.96      NZ    616329692502831893572701 3    
102-681CARE SENNA LAXATIVE TABS (20 12 2012   12.05  10.85  1.60      N       1085216501130906602903D2    
102-699CARE SENNA LAXATIVE TABS (10 6 1006    12.90  12.90  3.59      N       1022078501130906871906D1    
102-962CARE SIMPLE LINCTUS       12 200ML12   11.20  11.20  1.85      N       1031343501130902672602D1    
103-010GRAB RAIL 45.7CM                 11     4.85   4.85 14.56      NZ    616830152000000000000001 3    
103-028GRAB RAIL 61CM                   11     6.50   6.50 17.35      NZ    616830160000000000000001 3    
103-036GRAB RAIL 91.4CM                 11     8.70   8.70 20.90      NZ    616830178000000000000001 3    
103-044SHOPPING TROLLEY TRIWHEEL CART   11    30.70  30.70 56.70      NZ    616830392000000000000001 3    
103-051REVOREACH XCEL 81CM (32")        11     7.25   7.25 15.80      NZ    616830293000000000000001 3    
103-069SHOWER STOOL CIRCULAR SEAT ADJ   11    27.20  27.20 50.20      NZ    616830301000000000000001 3    
103-077SHOWER STOOL CIRCULAR ADJ HIGH   11    31.00  31.00 57.25      NZ    616830319000000000000001 3    
103-085STOCKING  AID                    11    16.05  16.05 29.65      NZ    616830327000000000000001 3    
103-093THE ORIGINAL MCKENZIE SUPERROLL  11    10.90  10.90 20.10      NZ    616830335000000000000001 3    
103-101THERA-BAND ZIPPER-BAG YELLOW     11     4.52   4.52  8.16      NZ    616830343000000000000001 3    
103-119TRI WALKER LIGHTWEIGHT ORANGE    11    45.10  45.10111.46      NZ    616830350000000000000001 3    
103-127TRI WALKER LIGHTWEIGHT PURPLE    11    45.10  45.10111.46      NZ    616830368000000000000001 3    
103-135TRI WALKER LIGHTWEIGHT RED       11    45.10  45.10111.46      NZ    616830376000000000000001 3    
103-291CARE SIMPLE LINCTUS PAEDI 12 200ML12   12.55  12.55  2.05      N       1031434501130902772305D1    
103-465CARE SURGICAL SPIRIT      12 200ML12   14.00  14.00  2.14      N       1031277501130902572903D1    
103-515CARE WITCH HAZEL          12 200ML12   18.25  16.43  2.95      N       1031475501130902822502D11   
103-523CARE OLIVE OIL SAMARITAN 9 12 92ML12   15.58  14.02  1.64      N       0248435501130905022602 11   
103-572CARE OLIVE OIL SAMARITAN  12 185ML12   25.68  23.11  2.72      N       0248443501130905162902 1    
103-622CARE GLYCERIN LEM/HON/GLU 12 200ML12   18.49  18.49  2.90      N       0768804501130902252002D11   
103-929THERA-BAND ZIPPER-BAG RED        11     4.52   4.52  8.16      NZ    616329429502831922124901 3    
103-960THERA-BAND ZIPPER-BAG GREEN      11     4.52   4.52  8.16      NZ    616329528502831922125601 3    
103-978THERA-BAND ZIPPER-BAG BLUE       11     4.52   4.52  8.16      NZ    616329536502831922126301 3    
103-986THERA-BAND ZIPPER-BAG BLACK      11     4.57   4.57  8.16      NZ    616329544502831922127001 3    
104-174CARE IBUPROFEN TABS BP 200MG 12 2412    9.61   9.61  1.15      NZ      1038892501130926702092 1    
104-463CARE IBUPROFEN TABS BP 200MG  6 486     8.80   8.80  2.18      NZ      1077601501130926822592 1    
104-539CARE CALAMINE LOTION BP   12 200ML12   13.12  13.12  1.99      N       1030873501130902022903D1    
105-403ORAL B T/BR ADV POWER KIDS     6 16    33.85  33.85  7.99      NZO     2853034421020129387301 11   
105-445CONVATEC S/HESIVE SEAL 413504   101    19.42  19.42            N     613862950076845513003083 3    
105-718WALKING STICK GRIP               11     1.33   1.33  2.30      NZ    616830426000000000000001 3    
105-726WALKING STICK STRAP              11     1.35   1.35  2.50      NZ    616830434000000000000001 3    
105-734TRIPOD ADJ WIDE BASE             11    24.09  24.09 54.25      NZ    616830442000000000000001 3    
105-767REVOREACH GRIPLOCK 81CM(32'')    11     7.75   7.75 16.90      NZ    616830285000000000000001 3    
105-783THE ORIGINAL MCKENZIE HEAVY DENS 11     8.88   8.88 16.15      NZ    616830194000000000000001 3    
105-825THE ORIGINAL MCKENZIE HEAVY DENS 11     9.44   9.44 17.15      NZ    616830202000000000000001 3    
105-858OARSOME CRUTCH GRIPS             11    19.62  19.62 29.99      NZ    616830244000000000000001 3    
105-866MAGNIFIER WITH NECK CORD         11     6.10   6.10 13.30      NZ    616830210000000000000001 3    
105-957PEDAL EXERCISER DELUXE           11    20.10  20.10 37.10      NZ    616830251000000000000001 3    
105-965NET BAG RETAIL PACKED            11     5.38   5.38  9.30      NZ    616830236000000000000001 3    
105-973PILLOW V SHAPED COMPANION        11    17.15  17.15 31.66      NZ    616830269000000000000001 3    
105-981CUSHION INFLATABLE PVC RING      11     9.00   9.00 16.60      NZ    616830277000000000000001 3    
106-724DUODERM SIGNAL 18.5X19.5CM       51    27.30  27.30            NZ    612996882076845509272783 3    
106-732DUODERM SIGNALS170 22.5X20CM     51    31.90  31.90            NZ    612996890076845509265983 3    
112-664ALWAYS DAILIES WRAPPED        6 206     5.10   4.59  1.00      NPZ     3455292401540068027705 11   
114-991BIATAIN AG FILLER 9628 5X8CM     51    21.15  21.15            N     612996528570893238363983 3    
115-121ALWAYS DAILIES NORMAL         5 325     8.20   7.38  1.99      NZ      3454485401540056411905 1    
115-600ALWAYS DAILIES LONG PLUS      8 248    13.12  11.81  1.99      NZ      3454436401540056376105 13   
115-725FLOHYDROGEL12CH 851141-000120   301    37.11  37.11            N     612899466000000000000083 3    
116-863PIRITEZE SYRUP              6 70ML6    20.38  20.38  6.09      N       3017993500034700730906D13   
117-655ZIRTEK ALLERGY TABLETS        6 216    31.98  31.98  9.14      NZ      3019528502409174797771R23   
118-000BIATAIN S N/A DR 4645 12X20CM   101    38.00  38.00            N     613029584570178098983183 3    
122-697NATURA COMB FL S7201 32MM FB    101    36.19  36.19            NZ    613013364076845508968083 3    
123-414NATURA COMB FL S7202 38MM FB    101    36.19  36.19            NZ    613013372076845508969783 3    
123-463GAVISCON ADV LIQ MINT     12 250ML12   30.72  30.72  6.08      NZ      3154069500015841791506 2    
123-513GAVISCON ADV LIQ ANISEED  12 250ML12   30.72  30.72  6.08      NZ      3154051500015841790806 2    
123-562CANESTEN CRM 1% 20G         10 20G10   22.00  22.00  5.10      NZ      0349175501060505401304Z13   
125-773ULTRA CHLORASEPTIC SPR CHER 6 15ML6    19.26  19.26  5.21      NZ      3054764506001888506302D1    
126-268CATH ADV 92142 20CM 14CH        251    37.91  37.91            NZ    612936631539016605118983 3    
126-474ESTEEM SYNERGY S1192            101    41.28  41.28            N     613013356076845509163883 33   
126-524ESTEEM SYNERGY S1191 BAR 13-48  101    41.28  41.28            NZ    613013349076845509162183 3    
127-043TENA BEDPAD 60X60CM 770202      301     8.44   8.44 11.39      NZ      0263038732254052107801 13   
127-696ESTEEM S1182 SYN MOLD 45MM      101    41.28  41.28            NZ    612946424000000000000083 3    
127-860EASILFLEX 14465 MID 50MM        301    55.39  55.39            N     613032067570178062518083 3    
127-894EASILFLEX 14305 XTR FLNG CTF    101    41.09  41.09            N     613032315570178087020783 3    
128-439BIATAIN AG N/ADH 9626 20CMSQ     51   120.25 120.25            NZ    613142775570893238358583 3    
128-603EASIFLEX EXTRA 14306            101    41.09  41.09            N     612132637570178056325383 3    
128-637ASSURA INSP 12134 MID CLR 25MM  301    83.15  83.15            N     612596393570178064343683 3    
128-645ASSURA INSPIRE 12148 MID 45MM   301    83.15  83.15            N     612596674570178064351183 3    
128-686ASSURA INSPIRE 12385 MAX 50MM   301    46.51  46.51            NZ    612678878570178073280283 3    
128-777ASSURA INSPIRE 12186 MAX 35MM   301    81.72  81.72            NZ    612766350570178079546383 3    
128-850ASSURA INSPIRE 12166 MAX 35MM   301    81.72  81.72            N     612766384570178079540183 3    
128-868ASSURA INSPIRE 12175 MAX 30MM   301    81.72  81.72            N     612766400570178079542583 3    
128-942OTEX EXPRESS COMBI PACK     3 10ML3    12.11  12.11  6.50      NZO     3453305501637929910001 12   
128-959ASSURA INSPIRE 14164 MAX 25MM   101    31.20  31.20            NZ    612801546570178081918383 3    
129-163ASSURA INSPIRE 14176 MAX 31MM   101    31.20  31.20            N     612801660570178081924483 3    
129-171ASSURA INSPIRE 14102 MAX CTF    101    31.20  31.20            N     612801702570178081913883 3    
129-205ASSURA INSPIRE 13984 MAX 40MM   301    49.35  49.35            N     612802056570178081890283 3    
129-221ASSURA INSPIRE 13986 MAX 60MM   301    49.35  49.35            N     612802072570178081892683 3    
129-239ASSURA INSPIRE 13954 MID 40MM   301    49.35  49.35            NZ    612802171570178081881083 3    
129-338ASSURA INSPIRE 14442 MAX CTF    101    30.55  30.55            N     612904555570178093655283 3    
129-346ASSURA INSPIRE 14435 MID CTF    101    30.55  30.55            N     612904571570178093653883 3    
129-353ASSURA INSPIRE S/SEAL 14453     101    30.55  30.55            NZ    612904605570178093660683 3    
129-361ASSURA INSPIRE 14445 MAX CTF    101    30.55  30.55            N     612904639570178093657683 3    
129-429ASSURA INSPIRE 14505            301    89.58  89.58            NZ    612941045570178096016883 3    
129-445ASSURA INSPIRE 14421 MAX 21MM   101    45.47  45.47            NZ    612990273570178099271883 3    
129-577ASSURA INSPIRE 14412 MAX CTF    101    45.47  45.47            NZ    612990364570178099266483 3    
129-601EASIFLEX 14301                  101    41.09  41.09            NZ    613032349057017808701683 3    
129-643EASIFLEX 14402 B/PLATE 50MM      51    20.97  20.97            N     613094927570893217077283 3    
129-734EASIFLEX 14362 MAX 50MM         301    54.69  54.69            N     613031721570178087179283 3    
129-825ASSURA 12717 B/PLATE CTF         51    16.93  16.93            NZ    613166642570893220384583 3    
132-290HOL INCARE D LB STRPS MED 9661   21     3.45   3.45            NZ    612933802539016604704583 3    
134-452DAKTARIN 2% W/W CREAM          30G1     1.82   1.82  3.73      NZ      0423210501267402121781R23   
135-996WELLKID CHEWABLE MULTIVITAMIN 4 304    17.00  15.30  7.10      NZ      3243573502126502380617 12   
137-760EURAX CRM 10% 100G          6 100G6    26.11  23.50  6.96      N       0451567501130902091502D23   
138-719PERSPIREX ROLL ON  ORIGINAL 6 20ML6    28.86  25.97  8.49      NZ      4019832570194301143004 1    
138-727PERSPIREX ROLL ON  STRONG   6 20ML6    28.86  25.97  8.49      NZ      4019840570194301040204 1    
138-834WELLBABY MULTIVITAMIN DROPS    4 14    13.08  11.77  5.45      NZ      3929635502126504593817 1    
138-842ALLEVYN AG SACRUM   22 CM SQ    101   153.00 153.00            NZ    613331394500022346244483 3    
138-867ALMUS CLOTRIMAZOLE CRM 1%   10 20G10    9.78   9.78  1.75      NZO     1130426506005740609004 23   
138-917ALLEVYN AG N/A 15CM SQ          101   122.50 122.50            NZ    613331196500022346235283 3    
139-600AQUACEL DRSG S7512 4X30CM       101    30.40  30.40            NZ    613181476076845510925883 3    
139-626AQUACEL AG DRSG S7515 4X30CM    101    58.60  58.60            NZ    613181500076845510971583 3    
139-634AQUACEL DRSG S7511 4X20CM       101    20.20  20.20            NZ    613181468076845510924183 3    
139-980CORSODYL 1% GEL             10 50G10   22.32  22.32  5.00      NZ      0469247500034707076182 23   
140-004NICOTINELL LOZENGE MINT 1MG   3 963    27.35  27.35 22.30      N       3599073501213157200902D12   
140-046VULKAN ICE PK CTR DISP PK     12 112  115.20 115.20 22.20      NZ    616832208502831922207901 3    
140-061VULKAN INST SGLE ICE PK          11     0.80   0.80  1.80      NZ    616832216050231898864801 3    
140-111SNUFFLEBABE SALINE SPRAY    6 15ML6    14.84  13.36  4.25      NZ      3871167501178400175107 11   
140-178SNUFFLEBABE ASPIRATOR       6 15ML6    35.23  31.71 10.49      NZ      3871209501178400177507 1    
140-293SNUFFLEBABE VAPOUR OIL      6 10ML6    25.67  23.10  7.80      NZ      3871175501178400183607 1    
140-376APTAMIL FROM BIRTH LACTSE F 4 400G4    27.41  24.67  7.50      NZ      3867439505159400817504 13   
141-408ZEISS LENS WIPES UK 24 COUNT 16 2416   25.76  23.18  2.49      NZ      3882438066283450092910 1    
142-059AQUACEL AG+EXT 4X30CM           101    58.10  58.10            NZ    613862687076845513259183 3    
142-232AQUACEL AG+ EXT 4X20CM          101    38.80  38.80            NZ    613860368076845513260783 3    
143-073EPADERM OINTMENT            6 125G6    23.28  20.95  6.99      NZ      0159111505515800320002D12   
143-859NUROFEN COLD&FLU TAB         12 2412   54.26  54.26  6.99      NZ      2082154500016780205476 13   
143-883VEET WAX STRIPS FACE E/GRIP   6 206    27.14  24.43  6.99      N       3858859501141776625503 1    
144-105COLODRESS+ MIN S901 0 19MM FB   301    73.16  73.16            NZ    610711259076845501256583 3    
144-832FRONTLINE PLUS CAT            10 610  236.00 236.00 36.88      NZ      4027090366110304882401 1    
145-367BIONSEN ROLL ON DEODORANT   6 50ML6    10.14   9.13  2.61      NZ      2782258008855116784704 1    
149-781CANESTEN CRM 1% 50G            50G1     3.64   3.64  8.49      NZ      0035105501060505403704 1    
151-845ALWAYS DISCREET LONG +PADS     4 84     5.68   5.68  1.99      NZO     3872835800109006600801 11   
151-860ALWAYS DISCREET LONG PADS (10 4 104     6.03   6.03  2.09      NZO     3872843800109006573501 11   
151-886STREFEN HONEY&LEMON          12 1612   41.06  41.06  5.29      NZ      3181617500016783011876 12   
151-928ALWAYS DISCREET LINER + SP    4 204     4.33   4.33  1.49      NZO     3872868401540067551801 1    
151-969ALWAYS DISCREET LINERS        4 244     4.33   4.33  1.49      NZO     3872892401540067543301 11   
151-977ALWAYS DISCREET SMALL+PADS    6 166     8.52   8.52  1.99      NZO     3879533401540062936801 1    
151-985ALWAYS DISCREET SMALL PADS    6 206     8.52   8.52  1.99      NZO     3872827401540062924501 1    
152-074CATH LOFRIC ORIGO 4421025 PAED  301    54.06  54.06            NZ    613790128739253212469383 3    
152-827OILATUM EMOLLIENT            500ML1     5.80   5.80 10.44      NZ      0926683501130903922102D23   
153-270ALWAYS DISCREET PANTS NORM LR 2 102     9.03   9.03  6.16      NZO     3872884401540062840802 11   
153-288ALWAYS DISCREET PANTS NORM ME 2 122     9.03   9.03  6.16      NZO     3872876401540062826202 12   
153-296ALWAYS DISCREET LONG+ PADS    2 162     5.37   5.37  3.69      NZO     3879541401540062808801 1    
153-338ALWAYS DISCREET LONG PADS (20 2 202     5.37   5.37  3.69      NZO     3879558401540062796801 1    
153-395ALWAYS DISCREET NORMAL PADS 2 3 243     8.05   8.05  3.69      NZO     3879566401540062780701 1    
153-403ALWAYS DISCREET MAXI NIGHT     6 66     8.15   8.15  1.99      NZO     3879574800109006581001 1    
153-429ALWAYS DISCREET NORMAL PADS 1 4 124     5.69   5.69  1.99      NZO     3872850800109006596401 11   
153-734CATH LOF INSTI 4081025 CH10 F   301    46.56  46.56            NZ    613581360739253209490383 3    
154-286ALLEVYN DRSG 9X9CM KEYHLE 7640  101    38.67  38.67            NZ    612107225500022307640583 3    
154-591CATH LOFRIC DILA 4061825 CH18   301    43.06  43.06            NZ    613855970739253216644083 3    
154-757CATH LOF HYDRO KIT 4201625 M    201    39.53  39.53            NZ    613836863739253214954283 3    
154-880CATH LOF HYDRO KIT 4210825 M    201    40.76  40.76            NZ    613552643739253211079583 3    
155-333CATH LOF INSTI 4081225 CH12 F   301    46.56  46.56            NZ    613581378739253209494183 3    
155-606GRANUFLEX HYDRO S153 15X20CM    101    60.50  60.50            NZ    610277517076845501598683 3    
155-788OILATUM SOAP                  100G1     3.45   3.45  6.00      NZ      0152868501130972361801 12   
156-174SYSTEM 2 BELT S210               11     3.69   3.69            N     610168047076845501089983 3    
156-612CATH LOFRIC 4002225 CH22 M      301    43.68  43.68            NZ    613854809739253214890383 3    
156-620CATH LOFRIC 4420825 PAED        301    54.06  54.06            NZ    613789633739253212466283 3    
156-703CATH LOFRIC ORIGO 4421225 PAED  301    54.06  54.06            NZ    613789641739253212472383 3    
159-194URODRESS S898 ST CL 32MM FB     101    56.44  56.44            NZ    610583781076845502985383 3    
159-392FYBOGEL MEBEVERINE SACH       6 106    37.27  37.27 10.15      NZ      0282608500015841348106 23   
159-442REFRESH OPHTHALMIC SOLUTION  12 3012   27.00  27.00  4.38      NZ      0111682501600720503904R1    
160-754NEXIUM CONTROL TAB 20MG (7)   12 712   52.42  47.18  6.99      NZ      3883147500030900753803D13   
160-762NEXIUM CONTROL TAB 20MG (14) 10 1410   74.93  67.44 11.99      NZ      3883139500030900754503D13   
161-018E45 DRY SCALP SHAMPOO      6 200ML6    23.26  20.93  5.99      N       3202256500016783227303 13   
161-182COMFEEL+P/RELIEF 33350 7CMSQ    101    36.30  36.30            N     612367316570893201212683 3    
161-208COMFEEL+P/RELIEF 33353 10CMSQ   101    48.60  48.60            NZ    612367290570893201213383 3    
162-420VAMOUSSE HEAD LICE TREATME 6 160ML6    56.22  50.60 14.99      NZ      3882750135896218010005 1    
162-446TENA SLIP SUPER 711228 MED    3 303    40.90  36.81 20.66      NZ      0856211732254104152002 1    
162-537TENA SLIP MAXI 711024 LG      3 243    42.75  38.48 20.55      NZ      2209930732254064727302 12   
162-602TENA COMFORT MAXI 759128      2 282    28.60  25.74 19.49      NZ      2180743732254069622601 12   
162-651TENA SLIP SUPER 711400 LGE    4 304    57.83  52.05 21.91      NZ      0856229732254104158202 12   
162-669TENA SLIP MAXI 710924 MD      3 243    41.29  37.16 18.75      NZ      2209922732254064721102 12   
164-087COVONIA CATARH RELIEF FORM 6 100ML6    19.72  19.72  5.15      N       3252590501130901362702D1    
164-566BEECHAMS C&F PLUS CAPS       12 1612   24.38  24.38  3.18      NZ      3856465000005021741002D1    
164-822AVEENO CREAM 500ML         4 500ML4    25.88  25.88 14.46      NZ      3885894357466118362602 23   
164-848AVEENO SKIN RELIEF HAND CRE 6 75ML6    26.10  23.49  6.53      NZ      3885902357466149585902 11   
164-962AVEENO CREAM 100ML         6 100ML6    23.82  23.82  7.28      NZ      0892901357466066527702Z22   
166-827ALMUS PARACETAMOL CAPSULE 50 12 3212   16.91  16.91  2.25      NZO     1130558506005740624392 22   
167-031ALMUS PARA CAPLETS 500MG      6 326     3.86   3.86  1.15      NZO     1130541506005740622992 23   
167-171ASSURA INS 14424 OP MAX 31MM    101    45.47  45.47            NZ    612990307570178099274983 3    
167-270ASSURA INS 14423 OP MAX 28MM    101    45.47  45.47            NZ    612990299570178099273283 3    
167-700COVONIA CHESTY COUGH SUGA 12 150ML12   39.60  39.60  5.65      NZ      3882933501130945041502D11   
167-940ALMUS IBUPROFEN TAB 400MG 48 12 4812   26.52  26.52  3.99      NZO     1130491890226926989692 23   
167-965ALMUS IBUPROFEN TAB 400MG 24 10 2410   12.32  12.32  2.35      NZO     1130509890226926988992 23   
169-763RADOX S/GEL PAMPERED       6 250ML6     4.29   4.29  1.00      NZO     3337326871084796309402 1    
169-789RADOX HERB BATH MUSCLE     6 500ML6     5.86   5.86  1.71      NZO     3337359500023107011201 1    
169-870SUDAFED CONGESTION NIGHT AND  6 166    17.46  15.71  4.99      NZ      3884855357466116228702D1    
169-961SUDAFED HEADACHE MAX STRENGTH 6 166    16.44  14.80  4.68      NZ      3884848357466116224902D1    
169-987BENYLIN CHESTY COUGH & COLD T 6 166    17.46  15.71  4.99      NZ      3884830357466116193802D1    
170-589CATH LOFRIC ORIGO TIEM  4441025 301    54.06  54.06            NZ    613789658739253212480883 3    
170-662CATH LOFRIC ORIGO TIEM  4441625 301    54.06  54.06            NZ    613789682739253212489183 3    
172-726SENSODYNE T/PST PRONAMEL M 12 75ML12   30.24  27.22  4.00      NZ      3884822500046901443802 1    
173-880THERMOSKIN ANKLE SUPPORT MED     11     4.19   4.19  7.55      NZ      2992121501525900688307D1    
173-922NICORETTE GUM ORIGINAL 4MG ( 6 1056    77.40  69.66 20.20      N       0299826357466041308302D12   
173-930THERMOSKIN ELBOW SUPPORT MED     11     3.45   3.45            NZO     2992196501525900694407 1    
174-037NUTRISSE 3 DARKEST BROWN       3 13    13.20  11.88  6.99      NZ      3532009360054079602804 11   
174-052THERMOSKIN ARMSLING ONE SIZE     11     6.66   6.66 11.99      NZ      3211067501525900638807 1    
174-078THERMOSKIN KNEE SUPPORT LRG      11     4.19   4.19  7.55      NZ      2992279501525900685207 1    
174-110THERMOSKIN WRIST WRAP ONE SIZE   11     3.60   3.60  6.47      NZ      2992584501525900682107 1    
174-128TEPE INTERDENT BRUSH RED 0.5M 10 610   22.05  19.85  3.94      NZ      2430098731740000184505 13   
174-136TEPE INTERDENT BRUSH PNK 0.4M 10 610   22.05  19.85  3.94      NZ      2398626731740000736605 12   
174-151NUTRISSE 8 BLONDE              3 13    13.20  11.88  6.99      NZ      2577591502104402531104 1    
174-169NUTRISSE 9 LIGHT BLONDE        3 13    13.20  11.88  6.99      NZ      2577609502104402532804 1    
174-177TEPE INTERDENT BRUSH BLU 0.6M 10 610   22.05  19.85  3.94      NZ      2433936731740000193705 13   
174-334TEPE INTERDENT BRUSH YELL 0.7 10 610   22.05  19.85  3.94      NZ      2452910731740000186905 13   
174-581ASSURA CL2765 MDOP2P 50MM FB    301    45.89  45.89            NZ    610248153570178012765383 3    
174-599ASSURA 2766                     301    45.89  45.89            NZ    610248211570178012766083 3    
174-623ASSURA CL2475 MDCL1P 30MM FB    301    83.15  83.15            NZ    610245910570178012475183 3    
174-631ASSURA CL2476 MDCL1P 35MM FB    301    83.15  83.15            NZ    610246488570178012476883 3    
174-680ASSURA CL2461 MDOP1P  20MM FB   301    83.15  83.15            N     610247080570178021454483 3    
174-698ASSURA 2464 CLMDOPQS/B 25MM     301    80.48  80.48            N     610247106570178012464583 3    
174-722TEPE INTERDENT BRUSH ORNG 0.4 10 610   22.05  19.85  3.94      NZ      2430072731740000737305 11   
174-755TEPE INTERDENT BRUSH GRN 0.8M 10 610   22.05  19.85  3.94      NZ      2467637731740000195105 12   
174-771TEPE INTERDENT BRUSH PURP 1.1 10 610   22.05  19.85  3.94      NZ      2493252731740000180705 11   
174-870ASSURA CL2468 MDOP1P  45MM FB   301    83.15  83.15            N     610247460570178012468383 3    
174-904ACRIFLEX COOLING BURNS GEL   6 30G6    15.84  14.26  3.99      N       3339686501130989992403 1    
175-372JOINTACE MSM TABS         4 30X61G4    23.82  23.82  9.94      NO      3289923502126502251908 1    
175-380OSTEOCARE PLUS                4 844    34.68  31.21 14.45      N       3353109502126502739216 1    
175-414PERFECTIL PLUS DUAL PACK      4 564    43.64  39.28 18.20      N       3353091502126502339413 11   
175-422PREGNACARE CONCEPTION TAB     4 304    28.68  25.81 11.95      N       3353083502126502158111 12   
175-430VISIONACE PLUS DUAL PACK      4 564    36.64  32.98 15.25      N       3289907502126502408715 11   
175-562CANESFRESH WASH SOOTHING G 6 200ML6    31.81  28.63  8.49      NZ      3883246501060505523202 1    
176-180OTOVENT GLUE EAR TREATMENT     5 55    33.45  30.11 11.99      N       0102889739213090305802 13   
176-479DERMACOOL MENTH AQUS CRM 1% 6 100G6    19.00  19.00  4.76      NZO     3370392506015009007302 11   
176-826EQUAZEN EYE Q TRIPLE STRENGTH 6 606    94.62  85.16 27.04      NZ      3685567506007260291010 1    
178-533GRANUFLEX BORD  S158 10X13CM    101    41.40  41.40            NZ    610045468076845590143283 3    
178-657LANSINOH DISP NURSING PADS 60 4 604    13.96  12.56  5.61      NZ      3225786506006299100001 1    
178-715EMERGEN C ORANGE               6 86    18.72  18.72  4.99      NZ      3885993500030900762007D1    
179-069COLPERMIN CAP (100)            1001    14.97  14.97 25.54      N       0376392501607500003103D23   
179-820COLOFAC IBS TAB 135MG        10 1510   28.30  28.30  5.10      NZ      2367126509915100763606R13   
180-059CONVEEN STH/LIN 5120 XSM 20MM   301    55.39  55.39            NZ    610741710570178015120783 3    
180-778MAM ORIGINAL SOOTHER 12+MONTHS 6 26    19.20  17.28  5.75      NZ      3688405900161673907103 13   
180-901MAM NIGHT SOOTHER 6+MONTHS     6 26    19.20  17.28  5.75      NZ      3525599900161690386103 11   
181-131BRONCHOSTOP PASTILLES (10)      101     2.58   2.58  3.99      NZ      3864238501261626222702D11   
181-206BRONCHOSTOP PASTILLES (20)      201     3.87   3.87  5.99      NZ      3864246501261626223402D11   
181-214BRONCHOSTOP PASTILLES (40)      401     6.46   6.46  9.99      NZ      3864253501261626224102D1    
181-222BRONCHOSTOP SYRUP 120ML      120ML1     3.87   3.87  5.99      NZ      3864204501261626219702D13   
181-248BRONCHOSTOP SYRUP 200ML      200ML1     5.81   5.81  8.99      NZ      3864212501261626220302D13   
181-271BRONCHOSTOP SYRUP 240ML      240ML1     6.46   6.46  9.99      NZ      3864220501261626221002D13   
182-360VOLTAROL 12HR JOINT PAIN GE 6 100G6    67.28  67.28 18.69      NZ      3876570505156203380294 23   
182-477SEVEN SEAS PERFECT 7 WOMAN    3 603    16.73  15.06  9.99      NZ      3870714501233588000913 12   
182-493SEVEN SEAS PERFECT 7 MAN      3 603    16.73  15.06  9.99      NZ      3870722501233588010809 12   
182-535MR MEN CALCIUM VITAMIN D SOFT 3 303     9.21   9.21  5.50      NZ      3870706506021656485217 1    
182-642MR MEN MULTIVITAMIN SOFTIES   3 303     9.21   8.29  5.50      NZ      3870748506021656482117 1    
182-667MR MEN MULTIVITAMIN AND OMEGA 3 303    10.08   9.07  6.00      NZ      3870730506021656476017 1    
183-277GOOD NIGHT ANTI-SNORING RING S   11    17.87  17.87 29.99      NZ      3562972955556460000109 1    
183-293GOOD NIGHT ANTI-SNORING RING M   11    17.87  17.87 29.99      NZ      3562998955556460001809 1    
183-681ESTEEM+ STD OP MLD 413521       101    34.65  34.65            N     613892791076845513032083 3    
183-921SUDAFED SINUS MAX STRENGTH CA 6 166    16.44  14.80  4.68      NZ      3885936357466113104702D12   
184-267POTTERS CHESTY COUGH          6 206    12.21  12.21  3.49      NZ      3782737501184219350302D13   
184-283POTTERS MUCUS COUGH           6 206    12.21  12.21  3.49      NZ      3782745501184279108202D11   
185-488COLOP PROT RING 2320 20MM       301    45.34  45.34            NZ    610741785570178012320483 3    
185-504COLOP PROT RING 2330 30MM       301    45.34  45.34            NZ    610741769570178004058783 3    
185-512OSTOMY PROTECTIVE RING 2340     301    45.34  45.34            NZ    610741751570178012340283 3    
185-546FISHERMANS FRIEND HONEY&LEM 24 25G24   11.44  10.30  0.77      NPZ     3884434000009609172202 1    
185-561CANESTEN PESSARY               7 17    38.50  38.50  9.84      NZ      0109207501060505411204Z13   
186-684LIL-LETS LITE                12 1612   24.24  21.82  2.39      N       3367877502597120515006 1    
187-187ANUSOL SUPPOSITORIES (24)     6 246    18.77  18.77  5.11      NO      0332494501072453105112D12   
187-476LEMSIP CHESTY COUGH 10S       4 104    14.20  12.78  5.49      NZ      3871399500015843364902D11   
187-757DIORALYTE SACH NATURAL         5 65    11.65  10.49  3.99      N       0050294501301100486303D13   
188-235ROBITUSSIN CHESTY SUGAR F 12 100ML12   27.47  27.47  3.93      N       0239715500030900660902D23   
188-813FIXODENT PARTIALS           12 40G12   27.12  24.41  3.99      NZ      3883014408450017061204 1    
189-100EMERGEN C STRAWBERRY           6 86    18.71  18.71  4.99      NZ      3886009500030900757607D1    
189-167OTRIVINE NASAL SPRAY 0.1%  10 10ML10   21.80  21.80  3.99      N       0205666501213164790502D23   
190-058CATH SIL/ELAS D1637 PF 12CH F    11    10.34  10.34            NZ    610958678501746200697183 3    
190-108CATH SIL/ELAS D1647 30ML 16CH F  11     9.57   9.57            N     610958553501746200721383 3    
190-348NICOTINELL LOZENGE MINT 2MG   3 963    31.80  31.80 16.62      N       2963866501213157550502D11   
190-389PERNATON GEL 125ML        60 125ML60  340.25 306.23 10.95      N       3338274761470090011408 13   
190-462CARE CITRIC ACID MONO BP    12 50G12   12.18  10.96  1.73      N       0773028501130903082210D12   
190-504CARE CYSTITIS RELIEF SACHETS   6 66    14.25  12.83  4.15      N       2652873501130905762107D1    
190-587CARE CLOVE OIL             12 10ML12   23.25  20.93  3.61      N       1032044501130904222107D22   
190-892CARE HYDROGEN PEROXIDE SO 12 200ML12    7.70   7.70  1.15      N       1086669501130904941103D1    
191-056CARE HYDROGEN PEROXIDE SO 12 200ML12    8.25   8.25  1.31      NZ      1086677501130904972503D1    
191-569CARE POTASSIUM CITRATE MI 12 200ML12   16.60  16.60  2.55      NZ      1022029501130903011209 1    
191-619CARE GLYCERIN SUPPS ADULT    12 4G12   15.75  14.18  2.35      N       1021369501130906002712D12   
191-908PANADOL ACTIFAST COMPACK     12 1412   17.05  17.05  2.29      N       2979276500034708714101D1    
192-310BENYLIN DRY COUGH SYRUP   12 150ML12   49.20  49.20  7.01      NZ      3897212357466118821876 13   
192-328CARE SODIUM BICARB EAR DRO 12 10ML12   16.32  16.32  2.97      N       6288633501130910261101D12   
192-377RICOLA MOUNTAIN MINT S/FREE 20 45G20   19.00  17.10  1.35      NPZ     3881323761070094858301 1    
192-427CURA HEAT PADS BACK&SHOULDER   6 36    14.82  13.34  4.16      N       2992048498707201749411 1    
192-963COLDZYME                    8 20ML8    71.04  63.94 15.99      NZ      3925674734003110501902 1    
192-997LAMISIL AT GEL 1%            6 15G6    21.49  21.49  6.41      NZ      2988350505156201550181Z1    
193-029CANESTEN ORAL DUO PACK         6 16    49.57  49.57 14.69      NZ      3020328501060562060704Z13   
193-151GERMOLOIDS CREAM             6 55G6    28.26  25.43  6.99      N       3020310501060583109612D12   
193-300VOLTAROL OSTEO JOINT PAIN GE 6 50G6    29.83  29.83  8.29      NZ      3013711501213174260094Z13   
193-359BIOFREEZE PAIN RELIEF TUBE 6 118ML6    22.20  22.20  8.00      NO      3035938073112440289911 13   
193-375BIOFREEZE PAIN RELIEF ROLL-ON  6 16    22.20  22.20  8.00      NO      3035920073112440290511 12   
194-134BRAUN AGE PREC DIGITAL PRT200 36 136  363.96 327.56 16.99      NZ      3914710402216720009901 1    
194-191BRAUN DIGI THERMOMETER WAP 652 6 16   230.94 207.85 57.99      NZ      3914728402216765229401 1    
194-217BRAUN NOTUCH FRHEAD THERM 3000 6 16   182.22 164.00 52.99      NZ      3914736402216730026301 1    
194-886BEROCCA MANGO                10 1510   43.63  39.27  7.29      NZ      3882719501060515330315 1    
194-993TENA SILHOUETT NRML BLANC M 12 6 66    13.01  13.01  3.27      NZO     3866647732254067914402 12   
195-040TENA SILHOUETT NRML BLANC L 5  6 56    13.01  13.01  3.39      NZO     3866639732254067922902 11   
195-412NEUTROGENA T-GEL SPOO 125M 6 125ML6    24.66  24.66  6.58      N       0446641501826619100903D22   
195-511DENTEMP RELINE IT              6 16    29.94  26.95  8.99      NZ      3925450506012898470006 1    
196-279SAVLON ADVANCED HEALING GEL  5 50G5    14.05  14.05  4.49      NZ      3353620501130916721403D12   
197-954E45 CREAM 125G              6 125G6    19.36  17.42  4.99      N       0198523500016780165102D23   
198-390PHENERGAN ELIXIR             100ML1     2.85   2.85  4.89      NZ      0494203501301100248771 23   
198-598STUGERON TRAVEL PACK          6 156    14.82  14.82  4.44      NZ      0282764357466101901706Z23   
198-879SOMINEX TABLETS               6 166    16.14  16.14  4.59      NZ      3234663501261701862505 22   
199-232ORAL B CROSS ACTION B/ HEAD 4 12 412  110.88 110.88 12.99      NZO     3928603421020131683101 1    
199-307DUREX LUBE REAL FEEL        3 50ML3    19.39  17.45  9.99      NZ      3912169501141778583602 11   
199-737VICKS VAPO PADS PK 7 MENTHOL   6 16    25.08  22.57  7.50      NZ      3765476402216770085802 1    
199-844PROFOOT 360 NAILCLIPPER        5 15    10.72  10.72  3.68      NZO     3885027506008417180002 1    
199-869CETRABEN CREAM OTC          4 50ML4    12.00  10.80  4.99      NZ      3891371501130905481102 1    
199-976BENYLIN INFANTS COUGH SYR 12 125ML12   30.60  27.54  4.37      NZ      3885928357466109108205D1    
200-048BENYLIN CHILDREN COUGH SO 12 125ML12   30.60  27.54  4.37      NZ      3885910357466123701505D11   
200-196CARNATIONVER&WARTFREEZESPRY 6 50ML6    33.17  33.17  9.59      NO      3256872501265420138701 11   
201-475NATURA ACC 22-33MM 421037        51    15.88  15.88            N     613933488000000000000083 3    
201-723KLEENEX BALSAM HANKIES        10 810    7.60   7.60  1.25      NZO     3900099502905421998004 1    
201-962ORAL B T/BR POWER PRO 600      6 16   246.48 221.83 59.99      NZ      3884244421020109646701 1    
202-143TENA PANTS PLUS SMALL         4 144    34.56  31.10 12.00      NZ      3871233732254058754802 13   
202-184TENA PANTS SUPER SMALL        4 124    35.48  31.93 12.00      NZ      3871241732254071246902 12   
202-648SYNDOL HEADACHE RELIEF TABLET 6 306    20.94  20.94  5.99      NZ      3908555500028365727992R1    
202-697ARJUN MENTHOL AQUEOUS CRM 2%  500G1    15.30  15.30 24.99      NZ      3243177506013693103102R11   
202-762ARJUN MENTHOL AQUEOUS CRM 0.5 500G1    15.30  15.30 24.99      NZ      3243151506013693101702R11   
203-166SLIMFAST SNACKBAR CHOCOLATE C 24 124   10.16   9.15  0.59      N       3254547505596755753604D11   
203-174OTRIVINE CONGESTION RELIEF 10 10ML10   30.53  30.53  4.99      NZ      3870953505156203350502D1    
203-810CANESPRO FUNGAL NAIL TREATMEN 30 130  590.40 531.36 31.49      NZ      3936861501060564032202 12   
204-362VOLTAROL BACK&MUSCLE PAIN G 6 100G6    48.53  43.68 13.49      NZ      3862562505156203210211D13   
205-419NANNY CARE 2 FOLLOW ON PDR  6 900G6   123.18 110.86 25.90      NZ      3935954502281700023804 11   
205-427NANNY CARE 3 GROWING UP PDR 6 900G6   123.18 110.86 25.90      NZ      3935962502281700029004 1    
205-450CATH PTFE D0169LV 10ML 14CH F    11     4.21   4.21            NZ    610963884501746200607083 3    
205-468CATH PTFE D0169LV 10ML 16CH F    11     4.21   4.21            N     610963934501746200610083 3    
205-484CATH PTFE D1265AL PF 12CH MAL    11     3.22   3.22            NZ    610965798501746200628583 3    
205-534CATH SIL/ELAS D1657 10ML 14CH    11     9.57   9.57            NZ    610958835501746200766483 3    
205-542CATH SIL/ELAS D1657AL12 PF 12CH  11    10.34  10.34            N     610959361501746200739883 3    
205-609CATH SILICONE D166818 30ML 18CH  11     9.88   9.88            N     610959973501746200835783 3    
207-381MIGRAITAN TABLETS (SUMATRIPTA 10 210   44.40  44.40  8.00      NZ      3884616506001394300392 13   
207-399IMODIUM IBS RELIEF 2MG        10 610   21.44  21.44  3.82      NZO     3936481357466118727303D1    
207-431METATONE                  12 300ML12   54.24  48.82  6.99      N       0156992501261611122805D13   
207-480AQUADRY FREEDOM SHTH 786268 SM  301    53.86  53.86            N     610985135501250911889183 3    
207-548BENYLIN CHESTY ORIGINAL 3 12 300ML12   73.56  73.56 10.51      NZ      0449371357466118778576Z13   
207-621ARJUN MENTHOL AQUEOUS CRM 1%  500G1    15.30  15.30 24.99      NZ      3243169506013693102402R12   
207-688CANESOASIS CYSTITIS RELIEF     6 66    21.70  19.53  5.79      NZ      3883261501060505529407D12   
208-009DUREX LUBE FEEL             3 50ML3     9.51   8.56  4.89      NZ      3941192501141778582902 13   
208-579SENSURA MIO 11498               301    91.63  91.63            N     613938693570893292027883 3    
208-587LYNX APA AFRICA            6 150ML6    15.69  14.12  3.65      N       3247640871764401657202 13   
209-619GOLDEN EYE OINTMENT          12 5G12   49.80  49.80  6.39      NZ      0925230503733600040979 13   
209-627GOLDEN EYE DROPS           12 10ML12   47.40  47.40  6.29      NZ      0925248501817400014179 12   
209-916WAXSOL EAR DROP 0.5%       12 10ML12   23.40  23.40  3.15      N       0026229501274810201910R1    
210-237INFACARE BABY BATH NEUTRAL 6 400ML6     7.74   6.97  1.93      NZ      3355807502540400200402 12   
210-617IGLU MOUTH ULCER GEL          6 8G6    22.32  22.32  6.12      NZ      3313319501637929650587 13   
211-144CONVATEC CLIPS S207             101     3.69   3.69            N     610238030076845501217683 3    
212-084COMPEED BLISTER MIX PACK 5     6 56    18.27  16.44  5.39      NZ      3602513357466065175102 13   
212-332DIORALYTE SACH CITRUS          5 65    11.65  10.49  3.99      N       0822700501301100488703D13   
212-340DIORALYTE SACH B/CURR          5 65    11.65  10.49  3.99      N       0822759501301100487003D23   
212-530CLEARASIL ULTRA 5 IN 1 SCR 6 150ML6    23.26  20.93  5.99      NZ      3940897501141777668102 11   
212-548CLEARASIL ULTRA DAILY WASH 6 150ML6    23.26  20.93  5.99      NZ      3940871501141777724402 11   
212-563CLEARASIL ULTRA 5 IN 1 PADSX4 4 654    15.50  13.95  5.99      NZ      3940889501141777723702 1    
213-033DULCOLAX LAXATIVE TABS 5MG (20) 201     1.61   1.61  2.99      N       0002691500028366189403D13   
214-015C&G CREAMED COTTAGE PIE JAR 6 125G6     3.48   3.13  0.65      NP      3247947590085292547401 1    
214-361C&G S1 TASTY PUMPKIN & CHIC 6 125G6     3.48   3.13  0.65      NP      3248002590085292543601 1    
215-459STRIVE CLEAROMISER             6 16     0.60   0.60            NZO     4034377501130921072905 1    
215-467STRIVE TOUCH TANK BATTERY      6 16     0.60   0.60            NZO     4034534501130921152805 1    
215-475STRIVE USB TOUCH IND CHARGER   3 13     0.30   0.30            NZO     4034393501130921232705 1    
215-889BENADRYL ONE A DAY RELEIF      6 76    18.48  16.63  5.29      NZ      4009460357466120162706D1    
215-897BENADRYL ONE A DAY RELIEF     6 146    26.46  23.81  7.57      NZ      4009478357466120165806D1    
215-921LYPSYL ORIGINAL TOWER         30 130   28.69  28.69  1.49      NPZ     8334211503663100072504 12   
215-939ORAL B M/WASH COMP ARCTIC  6 250ML6     3.64   3.64  1.00      NZO     4036802800109013202403 1    
217-356C&G JAR SCRUMMY SPAGHETTI B 6 200G6     4.20   3.78  0.79      N       3248135590085292548101 1    
217-521BRAVA PROTECTIVE SEAL 12047     301    64.37  64.37            N     614034591570893201516583 3    
217-539BRAVA PROTECTIVE SEAL 12049     301    65.93  65.93            N     614034609570893201517283 3    
217-620DAKTARIN AKTIV CREAM 15G    10 15G10   20.24  20.24  3.62      NO      0229336357466118785301D13   
217-638DAKTARIN AKTIV SPRAY POWDER    6 16    17.42  17.42  5.20      NO      0229369357466143099701D13   
218-602C&G YUMMY HARVEST CHICKEN   6 200G6     4.20   3.78  0.79      NP      3248176590085292550401 1    
219-113MEN EXPERT SGEL HYDRA ENER 6 300ML6    12.30  12.30  2.99      NZ      4024196360052323252902 1    
219-204MEN EXPERT SGEL TOTAL CLEA 6 300ML6    12.30  12.30  2.99      NZ      4024204360052323253602 1    
219-352SENSODYNE T/BR PRONAMEL       12 112   26.38  23.74  3.49      N       3257482505456304895001 13   
219-410OLAY A/WRINK FACE WASH     6 150ML6    26.16  23.54  5.99      NZ      3255817500017499071302 1    
219-444SORBOTHANE FULL STRIKE SIZE 7    11    11.03  11.03            NZ    618123705000000000000001 3    
220-251SHOCKWAVES ULT EFF MATT CLA 6 75ML6    11.04   9.94  2.79      NZ      3254091405680073944801 1    
220-863WET ONES BE FRESH            12 1212    1.08   1.08            NO      3243599539152043500304 13   
220-905EAROL OLIVE OIL SPRAY       6 10ML6    19.44  17.50  5.10      NZ      3135803506010217000601 13   
221-838NUROFEN FOR CHILD SUSP ST 12 200ML12   58.15  58.15  7.49      NZ      3267796500015842310705 13   
221-846NUROFEN FOR CHILD SUSP ORA 6 100ML6    15.49  15.49  3.99      N       3267788500015845006605D13   
221-861NUROFEN FOR CHILD SUSP OR 12 200ML12   58.15  58.15  7.49      NZ      3267804500015842308405 13   
221-895NUROFEN FOR CHILD SUSP STR 6 100ML6    15.49  15.49  3.99      N       3267770500015845005905D13   
221-994CALPOL 3+ BLOCKED NOSE SPRAY  10 110   31.40  28.26  5.37      NZ      4024154357466122112005D1    
222-018BENYLIN DRY COUGH NIGHT       12 112   49.20  49.20  7.01      NZ      4024147357466127407276D11   
222-026AVEENO AFTER-SHOWER MIST       6 16    32.10  28.89  8.03      NZ      4024097357466130316102 1    
222-174WELLKID SOFT JELLY ORANGE     4 304    14.08  12.67  5.90      NZ      4026423502126504739017 1    
222-182WELLTEEN HER 30 TABS          4 304    20.52  18.47  8.55      NZ      4026068502126504731413 1    
222-190WELLTEEN HIM 30 TABS          4 304    20.52  18.47  8.55      NZ      4026050502126504732109 1    
222-240VISIONACE MAX                 4 564    53.64  48.28 22.35      NZ      3977667502126504632410 1    
222-281VITABIOTICS FEROGLOB FIZZ TABS 6 16    15.79  15.79  4.39      NZO     4026431502126504729105 1    
222-299WELLTEEN HER PLUS             4 564    33.24  29.92 13.85      NZ      4026043502126504733813 1    
222-307WELLTEEN HIM PLUS             4 564    33.24  29.92 13.85      NZ      4026035502126504734509 1    
222-323COLODRESS+ S/CAP S821 FB        301    41.70  41.70            NZ    610032417076845501180383 3    
222-604ORGANIX APPLE RICE CAKES ORG 7 50G7     7.70   6.93  1.25      NZ      8419848502412181410502 11   
222-661ORGANIX RASPBR AP OAT BARS 6 6X30G6    14.23  12.81  2.76      NZ      8419897502412141080202 1    
222-703WELLKID IMMUNE CHEW           4 304    21.00  18.90  8.75      NZ      3996154502126504644717 1    
222-760CORSODYL SPR MINT          12 60ML12   51.36  51.36  7.13      NZ      0181669500034700758382 13   
222-844OCUVITE LUTEIN CAPSULES       6 306    33.00  29.70  9.18      NZ      3248788032420840323510 12   
223-503VALUPAK VIT C EFFERVERSCENT   6 206     8.28   7.45  2.09      NZ      2577856502487401542207 13   
223-594JOHNSONS REFRESHING GEL WA 6 150ML6    12.24  11.02  3.05      NZ      3570967357466058387802 11   
223-743AVEENO BABY HAIR & BODY WASH   6 16    23.94  21.55  5.99      NZ      4037081357466150483402 12   
223-800AVEENO BABY EMOLENT WASH 3 5 354ML5    28.35  25.52  8.50      NZ      4032454357466131689502 1    
224-006HEAD&SHOULD 2IN1 MEN DANDR 6 225ML6    12.96  11.66  2.99      NZ      4039301800109036017501 12   
224-188CORSODYL T/PST DLY ULTRA C 12 75ML12   30.16  30.16  4.00      NZ      4039228505456303953802 12   
224-196AVEENO BABY DAILY CARE MOI 6 150ML6    23.94  23.94  5.99      NZ      4037099357466149602301 1    
224-212DUREX INTENSE CONDOM (12)     4 124    34.24  30.82 14.99      NZ      4037339501141778497601 11   
224-220DUREX INTENSE CONDOM (6)       4 64    22.84  20.56  9.99      NZ      4030748501141778569001 12   
224-436CATH SILASTIC 33428CE 30ML 28CH  11     9.71   9.71            NZ    610523076501746209460283 3    
224-998VEET WAX STRIPS UNDERARM      6 166    25.20  22.68  6.49      NZ      3255320501141774847303 1    
225-813DAKTARIN ORAL GEL 2%        10 15G10   32.08  32.08  5.74      NZO     0384545357466120770487Z23   
226-324CATH SILASTIC 33618CE 10ML 18CH  11     9.13   9.13            NZ    610523167501746211311283 3    
226-399SPEEDICATH FLEX CH 10 30 (28920 301    56.46  56.46            N     614037800570893212248183 3    
226-456CATH SILASTIC 33622CE 10ML 22CH  11     9.13   9.13            NZ    610523142501746209430583 3    
226-498VITA E GELS 200IU            10 3010   53.50  53.50  8.00      NZ      0384024501256400008704 1    
226-506VITA E GELS 400IU            10 3010   79.90  79.90 12.00      NZ      0384040501256400009404 1    
226-589AVEENO DAILY MOISTURISING OIL  6 16    29.62  29.62  8.89      NZO     2896330357466143904402 13   
227-421HEAD&SHOULD SPOO CLASSIC C 6 250ML6    13.02  11.72  2.99      NZ      3194180541007622999401 13   
227-637HEAD&SHOULD SPOO SMOOTH &  6 250ML6    13.02  11.72  2.99      NZ      3194248541007649866601 11   
227-652CB12 MOUTH SPRAY            6 15ML6     8.70   7.83  2.59      NZ      4027884506003524905303 1    
227-686CB12 M/WASH WHITE          6 250ML6    21.12  19.01  6.30      NZ      4027868506003524904603 1    
227-777MAM START SOOTHER 0-2 MONTHS   6 26    19.20  17.28  5.75      NZ      3254539900161690294903 11   
228-262CORSODYL M/WASH MINT 300ML 6 300ML6    17.94  16.15  5.35      N       0948083500034707885903D23   
228-569SLIM FAST RTD  CHOCO       6 325ML6     9.72   8.75  2.15      N       3267960505596755553203 12   
228-577SLIM FAST RTD  CAFE LATTE  6 325ML6     9.72   8.75  2.15      N       3267978505596755556303 12   
228-585SLIM FAST RTD STRAWB       6 325ML6     9.72   8.75  2.15      N       3267986505596755552503 12   
228-882COLGATE T/BR SENS PRO REL 360 12 112   24.12  21.71  4.07      NZ      3263241871478927630401Z1    
228-924VO5 STYLING GEL WET LOOK   6 200ML6    12.37  12.37  2.99      NO      3226552501225406008701 1    
228-932VO5 STYLING GEL MEGA HOLD  6 200ML6    12.37  12.37  2.99      NO      3226545501225406007001 1    
229-237CANESTEN DA CREAM            6 30G6    17.34  17.34  5.19      NZ      3261534501060564043801D1    
229-385COVONIA LINCTUS DRY & TIC 12 150ML12   33.71  33.71  4.89      N       3263829501130901172202D12   
229-427RENU MULTI-PURPOSE TWIN 12 2X360ML12  169.20 152.28 19.41      N       3254836739189983391001 1    
229-435BAUSCH&LOMB SALINE SENSIT 12 500ML12   39.60  35.64  4.99      N       3021060739189981428501 1    
229-500BOSTON ADVANCE MULTIPACK      10 110  248.50 223.65 35.39      N       3267861739189985324601 12   
229-690BOSTON SIMPLUS            36 120ML36  198.00 178.20  7.59      N       3118155739189983716101 1    
229-708PEDITECH ACTIFRESH        24 100ML24  136.08 122.47 10.16      NZ      3205333503588300035402 1    
230-102COLIEF INFANT DROPS 15ML   12 15ML12  134.40 120.96 15.99      NZ      3886983539151023996307 12   
230-128RIEMANNS P20 SR SPRY 100 S 6 100ML6    38.77  38.77 10.49      NZO     4039251570194305316402 1    
230-193RIEMANNS P20 SR SPRY 200 S 6 200ML6    71.48  71.48 19.34      NZO     4039269570194305326302 1    
230-656ANSWER PREG TEST TWIN PMP      6 16    20.94  20.94  4.99      N       5008305501072481339303 1    
230-664ANSWER PREG TEST PMP           6 16    12.54  12.54  2.99      N       5008297501072481207503 1    
230-722NIVEA MEN SHAVE GEL PROT M 6 200ML6    11.18  11.18  2.54      NO      2852291502597002325006 1    
230-748SHOCKWAVES GEL ULT STR TUB 6 200ML6    11.04   9.94  2.79      NZ      3254174405680074598201 1    
230-904ENDEKAY FLOURIDE MOUTH RIN 6 500ML6    15.18  13.66  4.50      NZ      3006467503555902615203D12   
234-245O'KEEFFES WORKING HANDS TUBE 5 85G5    18.90  18.90  6.74      NZO     4039590570494700268801 1    
234-278ABIDEC DROPS                6 25ML6    23.22  20.90  5.99      N       0033787501261611120417D23   
234-385IMODIUM CLASSIC CAPS 2MG      6 126    23.76  23.76  7.07      NZ      0426346357466158787506Z12   
235-689CATH BIOCATH D2269 10ML 18CH F   11     8.82   8.82            NZ    610577007501746200958383 3    
235-697CATH BIOCATH D2269 10ML 20CH F   11     8.82   8.82            NZ    610516583501746200961383 3    
235-739CATH BIOCATH D2263 8CH PAED      11     8.82   8.82            NZ    610576934501746200847083 3    
235-747CATH BIOCATH D2263 10CH PAED     11     8.82   8.82            NZ    610576942501746200850083 3    
236-810GAVISCON DOUB ACT TABS (12)  12 1212   23.21  20.89  2.99      NZ      4037206500015843733303D13   
237-479ALWAYS DISCREET PANTS PLUS MED 2 92     9.03   9.03  6.16      NZO     3953445401540062876702 1    
237-487ALWAYS DISCREET PANTS PLUS LRG   81     4.52   4.52  6.16      NZO     3953452401540062888002 1    
239-723ZIRTEK ALLERGY TABLETS        6 306    48.72  48.72 14.20      NZ      0447771502409174730471R22   
240-499MAM STYLE SOOTHER 0+ MONTHS    6 26    19.20  17.28  5.75      N       3367075900161690239003 12   
240-937MAM STYLE SOOTHER 6+ MONTHS    6 26    19.20  17.28  5.75      N       3367083900161690238303 12   
240-945RESCUE REMEDY NIGHT DROPPER 6 10ML6    20.93  20.93  6.79      NZO     3311271500048810447912 1    
242-883GAVISCON TABS PEPPERMINT (24 12 2412   30.28  27.25  3.90      NZ      4037230500015843707403D12   
242-891GAVISCON TABS PEPPERMINT (48) 6 486    26.01  23.41  6.70      NZ      4037248500015843709803D12   
242-917GAVISCON DOUB ACT TABS (24)   6 246    19.38  19.38  4.99      NZ      4037214500015843712803D13   
242-941GAVISCON DOUB ACT TABS (48)   4 484    21.98  21.98  8.49      NZ      4037222500015843713503D13   
244-616AQUAFRESH T/PST M/TEETH    12 50ML12   11.72  10.55  1.55      NZ      3272788500034709096702 12   
244-624AQUAFRESH M/WASH BIG TEETH 6 300ML6     8.01   7.21  2.12      NZ      3276664500034702749903 1    
244-632AQUAFRESH T/BR BIG TEETH      12 112   15.12  13.61  2.00      NZ      3272770500034709176601Z11   
244-657AQUAFRESH T/PST B/TEETH    12 50ML12   11.72  10.55  2.00      N       3272804500046909093702 11   
244-665AQUAFRESH T/BR L/TEETH        12 112   15.12  13.61  2.00      NZ      3272762500034709175901Z13   
244-699AQUAFRESH T/PST L/TEETH    12 50ML12   11.72  10.55  1.55      N       3272796500046909094402 13   
244-707AQUAFRESH T/BR M/TEETH        12 112   15.12  13.61  2.00      NZ      3272754500034709092901Z12   
244-913VALUPAK GLUCO SULPH 500MG CAP 6 906    13.68  13.68  4.79      NZO     3280278502487403056208 1    
244-947VALUPAK GLU&CHON 400/100MG CA 6 906    13.68  13.68  4.79      NZO     3280229502487403058608 13   
245-357PAMPERS BABY DRY SIZE 7       4 174    23.20  20.88  5.49      NZ      4039665800109029828702 1    
245-365PAMPERS BABY DRY 3 PANTS 26PK 4 264    22.68  22.68  5.49      NZ      4039673800109070087206 11   
245-621TENA LADY ULTRA MINI PLUS     6 246    10.21  10.21  2.45      NO      3254661732254107990501 1    
245-696BIOFREEZE PAIN RELIEF SPRAY   104G1     3.83   3.83  8.00      NO      3284676073112440291211 1    
252-007EVER READY CORN CALLOUS KNIFE 12 112   31.10  27.99  4.25      N       0250985501753930044502 1    
252-015EVER READY CORN BLADES        12 112   20.86  18.77  2.85      N       0250993501753925047402 1    
254-359CONVEEN SEC+STH S/SEA5235 35MM  301    54.75  54.75            NZ    612402642570178093003183 3    
254-375CONVEEN SEC+STH LINR 5025 25MM  301    55.33  55.33            NZ    612402659570178049639183 3    
254-938NATURA UR S7380 CLST 32MM       101    30.39  30.39            NZ    612438844076845506753483 3    
254-946NATURA UR S7381 CL ST 38MM      101    30.39  30.39            NZ    612438851076845506754183 3    
254-961NATURA UR S7383 CL ST 57MM      101    30.39  30.39            NZ    612438877076845506756583 3    
254-979NATURA UR S7384 CL ST 70MM      101    30.39  30.39            NZ    612438885076845506757283 3    
255-000NATURA UR S7372 OP ST 45MM      101    30.39  30.39            NZ    612438919076845506749783 3    
255-018NATURA UR S7373 OP ST 57MM      101    30.39  30.39            NZ    612438927076845506750383 3    
255-109NATURA UR S7354 CL ST 70MM      101    32.13  32.13            NZ    612439016076845505236383 3    
255-141NATURA UR S7363 CL SM 57MM      101    29.68  29.68            NZ    612439057076845505240083 3    
255-166COMBIHESIVE NATURA DRN S7401    101    12.94  12.94            N     612439073000000000000083 3    
255-315ASSURA SEAL12573                101    27.22  27.22            NZ    612435691570178059575983 3    
255-554ASSURA SEAL DR12583 MXOP CTF    101    29.06  29.06            NZ    612435725570178059541483 3    
255-562ASSURA SEAL UR12991MXCL15MMFB   101    49.73  49.73            N     612386282570178056652083 3    
255-570ASSURA SEAL UR12992MXCL18MMFB   101    49.73  49.73            N     612386290570178056629283 3    
255-588ASSURA SEAL UR12993 MXCL 21MM   101    49.73  49.73            NZ    612386308570178056630883 3    
255-604ASSURA SL URO 12995 MXCL 28MM   101    49.73  49.73            NZ    612386324570178056632283 3    
255-612ASSURA SEAL UR 12996 MXCL 31MM  101    49.73  49.73            NZ    612386332570178056657583 3    
256-545NYTOL HERBAL TAB              6 306    21.30  19.17  5.49      N       3348869501261611379609D13   
258-715CONVEEN SEC+L/BAG 5165 350ML L  101    26.42  26.42            NZ    612463693570178059874383 3    
258-723CONVEEN SEC+L/BAG 5164 350ML M  101    26.42  26.42            NZ    612463685570178059873683 3    
258-731CONVEEN SEC+L/BAG 5163 500ML L  101    28.09  28.09            NZ    612407575570178056435983 3    
260-349BABY DOVE LOTION RICH MOIST    6 16     4.14   4.14  1.00      NZO     4040820871090865633001 1    
260-356BABY DOVE WIPES RICH MOIST   12 5012    8.54   8.54  1.00      NZO     4040853871090865622404 1    
260-430BABY DOVE WIPES SENSITIVE    12 5012    8.54   8.54  1.00      NZO     4040861871090865624804 12   
260-455BABY DOVE SHAMPOO RICH MOIST   6 16     4.14   4.14  1.00      NZO     4040812871090865627902 1    
260-489BABY DOVE LOTION SENSITIVE     6 16     4.14   4.14  1.00      NZO     4040838871090865631601 1    
260-943JUNGLE FORMULA KIDS BRACELET   6 16    38.76  34.88  9.99      NZ      3988573501261611563904D1    
261-206PUNCH JUDY T'PST BUBBLEGUM 12 50ML12   13.92  12.53  1.99      NZ      3387909506045150126102 1    
261-230BALANCE ACTIV BV GEL         6 5ML6    38.28  34.45 10.20      NZ      3362209731551501011004 13   
262-378NICOTINELL LOZENGE MINT 1 MG 3 1443    34.45  34.45 18.00      NZ      3379914505156200470302D1    
262-394NICOTINELL LOZENGE MINT 2 MG 3 1443    40.50  40.50 21.00      NZ      3379922505156200490102D1    
263-822SPIRIT L/BAG 350ML10CM S/ 10X350ML1    24.80  24.80            NZ    614043725501746214614183 3    
263-871SPIRIT L/BAG 350ML 30CM L/TUBE  101    24.80  24.80            NZ    614043758501746214623383 3    
264-457GAVISCON DOUB LIQ ANISEED  6 150ML6    19.38  17.44  4.99      NZ      4051264501141778819603D1    
264-838TENA DISCREET MINI            6 206    10.21  10.21  2.45      NZO     4038501732254085337701 12   
264-861TENA DISCREET NORMAL          6 126    10.21  10.21  2.45      NZO     4038527732254085206601 12   
265-470CARNATION CORN ROUND FELT PA 12 1212   10.46  10.46  1.51      NO      2110377501265414202402 11   
266-817ESTEEM+ STD OP 716729           101    33.37  33.37            N     613435963000000000000083 3    
266-841ESTEEM+ STD OP 416733           101    33.37  33.37            N     613436045000000000000083 3    
266-858ESTEEM+ STD OP 416725           101    33.37  33.37            N     613435880000000000000083 3    
266-957ESTEEM+ STD OP 416719           101    33.37  33.37            N     613435872000000000000083 3    
266-981ESTEEM+ STD OP 416713           301    89.18  89.18            N     613461993000000000000083 3    
267-005ESTEEM+ STD OP 416710           301    89.18  89.18            N     613461985000000000000083 3    
267-013ESTEEM+ STD OP 416704           301    89.18  89.18            N     613461951000000000000083 3    
267-039ESTEEM+ STD OP 416701           301    89.18  89.18            N     613462074000000000000083 3    
267-120ESTEEM+ STD CLR 416718          101    33.37  33.37            N     613435807000000000000083 3    
267-146ESTEEM+ STD CLR 416712          301    89.18  89.18            N     613462066000000000000083 3    
267-153ESTEEM+ STD CLR 416709          301    89.18  89.18            N     613462041000000000000083 3    
267-187ESTEEM+ STD CLR 416706          301    89.18  89.18            N     613462033000000000000083 3    
267-211ESTEEM+ CONVEX STD OP 416747    101    45.94  45.94            N     613435716000000000000083 3    
267-229ESTEEM+ CONVEX STD OP 416745    101    45.94  45.94            N     613435732000000000000083 3    
267-294PIRITON ALLERGY TABLETS (30)  6 306    13.38  13.38  3.99      NZ      2132074501108018293271 23   
267-609ESTEEM+ CONVEX STD OP 416739    101    45.94  45.94            N     613435781000000000000083 3    
267-823ESTEEM+ CONVEX STD OP 416737    101    33.37  33.37            N     613436052000000000000083 3    
270-793ESTEEM+ CONVEX STD CLR 416742   101    45.94  45.94            N     613435641000000000000083 3    
270-843ESTEEM+ CLD SML OP 416700       301    89.18  89.18            N     613462017000000000000083 3    
270-884ESTEEM UROSTOMY POUCH S5113     101    56.44  56.44            N     613013315000000000000083 3    
270-900ESTEEM SYNERGY + STD OP 416902  101    17.73  17.73            N     613712171000000000000083 3    
270-918ESTEEM SYNERGY + STD OP 416799  101    17.73  17.73            N     613712163000000000000083 3    
270-934ESTEEM SYNERGY + STD OP 416783  301    53.20  53.20            N     613712064000000000000083 3    
270-942ESTEEM SYNERGY + STD OP 416779  301    53.20  53.20            N     613712056000000000000083 3    
270-991BABY DOVE TTT BW SENSIT    6 200ML6     4.14   4.14  1.00      NZO     4040804871090865596802 1    
280-040EFAMOL E.P.O 500MG            3 903    29.28  26.35 12.99      NZ      0264457501415456340805 1    
284-562COMBIHESIVE NATURA DRN S7283    101    13.88  13.88            N     612293546000000000000083 3    
284-588COMBIHESIVE NATURA DRN S7402    101    12.94  12.94            N     612439081000000000000083 3    
284-596COMBIHESIVE NATURA DRN S7403    101    12.94  12.94            N     612439099000000000000083 3    
284-604COMBIHESIVE NATURA DRN S7404    101    12.94  12.94            N     612439107000000000000083 3    
284-646COMBIHESIVE NATURA HO S7469      51    22.22  22.22            N     612671873000000000000083 3    
284-653COMBIHESIVE NATURA L/ONE S7812   51    17.34  17.34            N     612847168000000000000083 3    
284-695COMBIHESIVE NATURA MLD S7550    101    37.82  37.82            N     613272929000000000000083 3    
284-703COMBIHESIVE NATURA S7304        101    35.42  35.42            N     613025582000000000000083 3    
284-737COMBIHESIVE NATURA S7336         51    17.65  17.65            N     612641553000000000000083 3    
284-786BABY DOVE BODY WASH RICH M 6 200ML6     4.14   4.14  1.00      NZO     4040796871090865594402 1    
285-791ESTEEM SYNERGY MOULDABLE S1180  101    41.28  41.28            N     612946747000000000000083 3    
290-098ESTEEM SYNERGY S411658          101    39.88  39.88            N     613532736000000000000083 3    
290-445CAREFREE LINER COTTON        12 2012   15.36  13.82  1.32      NP      2541712357466005046205Z13   
290-502ESTEEM SYNERGY+ STD OP 416775   301    53.20  53.20            N     613712049000000000000083 3    
290-528NATURA+ STD OP 416406           301    53.75  53.75            N     613671914000000000000083 3    
290-551NATURA+ STD OP 416409           301    53.75  53.75            N     613671922000000000000083 3    
290-585NATURA+ STD OP 416417           101    17.60  17.60            N     613720463000000000000083 3    
290-742NATURA+ STD OP 416420           101    17.75  17.75            N     613473444000000000000083 3    
293-167NATURA+ STD OP 416423           101    17.75  17.75            N     613473451000000000000083 3    
293-175NATURA+STD CLR 416416           101    17.48  17.48            N     613726288000000000000083 3    
293-183URODRESS 19MM S896              101    56.44  56.44            N     610583765000000000000083 3    
293-282URODRESS 25MM S897              101    56.44  56.44            N     610583773000000000000083 3    
293-308URODRESS 38MM S899              101    56.44  56.44            N     610583898000000000000083 3    
293-373VICKS SINEX SOOTHER         8 15ML8    20.41  20.41  4.39      NZ      3274917501132131166402D1    
293-381RENU MULTI-PURPOSE FLIGH 12 2X60ML12   34.08  30.67  5.19      NZ      3289220739189983523501 13   
293-498URODRESS D/CONVEX CLR STD S911   51    24.83  24.83            N     612364537000000000000083 3    
293-506URODRESS D/CONVEX CLR STD S914   51    24.83  24.83            N     612364560000000000000083 3    
293-563NUROFEN EXPRESS LIQ CAP 200MG 6 106    12.78  11.50  3.29      N       3291010500015845015801D12   
293-589NUROFEN EXPRESS LIQ CAP 200MG 6 306    29.08  29.08  7.49      NZ      3290988500015845018992 11   
294-249MULTI-MAM NIPPLE BALM      36 30ML36  214.56 214.56  7.49      NZ      3672839506022775018301D1    
295-030COMBIHESIVE NATURA SML S7392    101    30.39  30.39            N     612438950000000000000083 3    
295-063COMBIHESIVE NATURA WFR S7299B    51    15.17  15.17            N     612671931000000000000083 3    
295-071CONSECURA A/TAP STD CLR S641LP  101    29.20  29.20            N     612700920000000000000083 3    
295-311NUROFEN EXPRESS LIQ CAP 400MG 6 106    19.78  19.78  4.49      NZO     3290996500015845022692 11   
295-329NUROFEN EXPRESS LIQ CAP 200M 12 1612   33.35  30.02  4.29      N       3291002500015845017201D13   
295-626RESCUE REMEDY DROPPER       6 10ML6    20.93  20.93  6.79      NZO     0538579074127302100112 1    
295-865JOHNSONS EXFOLIATING WASH  6 150ML6    12.24  11.02  3.05      NZ      3571064357466058317502 1    
295-972NATURA+ DRN STD CLR 416421      101    16.87  16.87            N     613473568000000000000083 3    
296-863DERMACOOL MENTH AQUS CRM 1% 6 500G6    79.63  79.63 19.90      NZO     3274529506015009004202 12   
297-200PRESERVISION LUTEIN SOFTGELS 20 6020  197.88 178.09 16.03      NZ      3242534032420863260410 13   
297-218PRESERVISION ORIG SOFTGELS   20 6020  197.88 178.09 16.03      NZ      3242518032420853260710 13   
297-234NEUTROGENA VIS CLR ACNE TRE 6 15ML6    23.82  21.44  5.30      N       3293040357466152067402Z1    
297-598STREPSILS ORANGE + VITAMIN C  6 366    19.37  19.37  4.99      N       3292026500015845050902D13   
298-570OILATUM CREAM 500ML          500ML1     5.28   5.28  9.50      NZ      2815611501130901972802D23   
299-164LISTERINE TOTAL CARE SEN   6 500ML6    19.14  17.23  5.10      NZ      3449444357466110752303Z1    
299-396SULA STRAWBERRY AND CREAM   14 42G14    8.92   8.03  1.09      NPZ     3292489400345500180201 1    
299-404ALVITA PREGNANCY TEST TWIN     6 26    10.80   9.72  3.99      NZ      3254257505538231223903V13   
299-412ALVITA PREGNANCY TEST SINGLE   6 16     9.00   8.10  2.99      NZ      3254240506005740733203V13   
299-479C&G CREAMY PORRIDGE 4-6+M   5 125G5     9.03   8.13  2.25      NZ      3274073304109142771701 12   
299-487C&G FRUITY PORRIDGE 4-6+M   5 125G5     9.00   8.10  2.00      NZ      3274099304109143198101 13   
299-511C&G BANANA PORRIDGE 4-6+M   6 125G6    10.83   9.75  2.25      NZ      3274081304109143199801 12   
300-285VASELINE ADVANCE REPAIR 20 6 200ML6    14.40  12.96  3.65      NZ      3271491871256147877901 12   
300-301VASELINE ADVANCE REPAIR 40 6 400ML6    25.72  23.15  5.99      NZ      3271509871256148019201 1    
300-376BAZUKA SUB ZERO             6 50ML6    38.62  38.62 10.58      NZO     3345493501637911300001 13   
300-434BLINK EYE DROPS INTENSIVE T 6 10ML6    13.36  13.36  3.82      NZO     3394798505047410372604 13   
