000-034PI ALLEVYN ADH DRSG 12.5CMSQ    101    25.22                   N       7029721000000000000006 2    
000-067MODERMA FLEX ILEO/BAG 26800 SP  301   121.79                   NZ      3151867000000000000007 0    
000-075MODERMA FLEX ILEO/BAG 56901 SP  301   149.44                   NZ      3594140000000000000007 0    
000-091PI ALLEVYN ADH DRSG 7.5CMSQ     101    14.07                   N       7029739000000000000006 2    
000-125MODERMA FLEX ILEO/BAG 56800 SP  301   149.44                   NZ      3594033000000000000007 0    
000-158MODERMA FLEX ILEO/BAG 56830 SP  301   149.44                   NZ      3594090000000000000007 0    
000-166PI IMIGRAN SUBJECT INJ PFS  2X.5ML1    50.96                   N       7104904000000000000006 2    
000-190MODERMA FLEX ILEO/BAG 56900 SP  301   149.44                   NZ      3594132000000000000007 0    
000-208MODERMA FLEX ILEO/BAG 56825 SP  301   149.44                   NZ      3594082000000000000007 0    
000-216MODERMA FLEX ILEO/BAG 56801 SP  301   149.44                   NZ      3594041000000000000007 0    
000-240PERATIVE READY TO HANG          1L1    16.02                   NZ      2141042871042800957904 2    
000-257MODERMA FLEX URO/BAG 29335 SP   101    55.06                   NZ      3152097000000000000007 0    
000-265MODERMA FLEX URO/BAG 29325 SP   101    55.06                   NZ      3152071000000000000007 0    
000-273HOL INCARE PENIS POUCH 9811     101    30.95                           0253153539016603172303 1    
000-281HOL INCARE N/BAG 9651 2L        101     2.74                           2662211539016603643803 1    
000-315ROZEX GEL 0.75%                30G1     6.60                   N       2136380502046509952904 2    
000-349ANGITIL XL CAP 240MG            281     7.94                   N       2467264506007867017304 2    
000-364GANFORT EYE DROP               3ML1    14.16                   N       3225687402478743058004 2    
000-372ANGITIL XL CAP 300MG            281     6.98                   N       2467272506007867018004 2    
000-398INS INSULATARD VIAL           10ML1     7.48                   NZ      2146694501795400012804 2    
000-448MODERMA FLEX URO/BAG 29601 SP   101    67.78                   NZ      3531068000000000000007 0    
000-455MODERMA FLEX URO/BAG 29730 SP   101    67.78                   NZ      3531159000000000000007 0    
000-489MODERMA FLEX URO/BAG 29725 SP   101    67.78                   NZ      3531142000000000000007 0    
000-497MODERMA FLEX ILEO/BAG 26064 SP  101    34.37                   NZ      3535119000000000000007 0    
000-505MODERMA FLEX ILEO/BAG 28335 SP  301    94.45                   NZ      2923027000000000000007 0    
000-513MODERMA FLEX ILEO/BAG 28330 SP  301    94.45                   NZ      2923019000000000000007 0    
000-521MODERMA FLEX ILEO/BAG 28301 SP  301    86.09                   NZ      3469459000000000000007 0    
000-539CHLORHEX M/WSH 0.2% MINT     300ML1     2.34                   N       7096480500007096480102 2    
000-547CHLORHEX M/WSH 0.2% ORIG     300ML1     2.34                   N       7096498500007096498602 2    
000-554SOMATULINE LA VIAL            30MG1   323.00                   NZ      2517498000000000000004 2    
000-562MODERMA FLEX ILEO/BAG 28401 SP  301    86.09                   NZ      3469467000000000000007 0    
000-570MODERMA FLEX ILEO/BAG 58400 SP  301   111.52                   NZ      3582426000000000000007 0    
000-588MODERMA FLEX ILEO/BAG 58300 SP  301   111.52                   NZ      3582368000000000000007 0    
000-604MODERMA FLEX URO/BAG 29135 SP   101    53.71                   NZ      2819191000000000000007 0    
000-612MODERMA FLEX URO/BAG 29035 SP   101    66.12                   NZ      3531225000000000000007 0    
000-638MODERMA FLEX URO/BAG 29400 SP   101    65.23                   NZ      3531241000000000000007 0    
000-661NATURCARE U/SCENTED DEO       50ML1     5.07                   N       3188414503663100008403 1    
000-679DERMAMIST EMOLLIENT SPR          11     5.97        16.91      N       2216638503663100208804 2    
000-711VIRAFERONPEG P/F PEN 120MCG      11   159.51                   NZ      2893394501237612874004 2    
000-729NOVA 1 CONV COLO/BAG 831-35 SP  101    28.86                   NZ      3093770000000000000007 0    
000-737MOGADON TAB 5MG                 301     5.76                           2136596506002263560904 2    
000-752NOVA 1 CONV COLO/BAG 831-25 SP  101    28.86                   NZ      3093754000000000000007 0    
000-760NOVA 1 CONV COLO/BAG 831-46 SP  101    28.86                   NZ      3093739000000000000007 0    
000-786NOVA 1 CONV ILEO/BAG 841-35 SP  101    43.03                   NZ      3093861000000000000007 0    
000-794NOVA 1 CONV URO/BAG 891-30 SP   101    56.25                   NZ      2977841000000000000007 0    
000-802VIRAFERONPEG P/F PEN 100MCG      11   132.92                   NZ      2893386501237612873304 2    
000-810NOVA 1 CONV URO/BAG 892-30 SP   101    56.34                   NZ      3135373000000000000007 0    
000-836CEFALEXIN CAP 250MG BP          281     2.03                   N       7043185501520100239002 2    
000-851VIRAFERONPEG P/F PEN 80MCG       11   106.34                   NZ      2893378501237612872604 2    
000-869VIRAFERONPEG P/F PEN 50MCG       11    66.46                   NZ      2893360501237612871904 2    
000-877VIRAFERONPEG P/F PEN 150MCG      11   199.38                   NZ      2893402501237612875704 2    
000-919WATER FOR IRRIGATION BOT F7114  1L1     1.17                   NZ      7096605541376004491002 2    
000-927KLEAN PREP SACH                  41    11.53                           0445007501274805201704 2    
000-935NOVA 1 CONV URO/BAG 894-25 SP   101    57.84                   NZ      3193398000000000000007 0    
000-943ADCORTYL IA/ID 1.5%            5ML1     3.63                   N       0003376501271200003704 2    
000-950FEMSEVEN SEQUI(2+2) PATCH        41    13.18                   N       2870178501383732024604 2    
000-968FEMSEVEN SEQUI(6+6) PATCH       121    37.54                   N       2870186501383732023904 2    
000-984NOVA 2 COLO/BAG 1202-43 SP      301    42.02                   NZ      2819589000000000000007 0    
001-016LIORESAL INTRATH AMP 10MG/20ML   11    70.01                   N       2145530501067853030804 1    
001-040NOVA 2 COLO/BAG 1201-36 SP      301    42.02                   NZ      2819704000000000000007 0    
001-065NOVA 2 URO/BAG 1218-36 SP       101    29.84                   NZ      2977940000000000000007 0    
001-115NOVA 2 URO/BAG 1217-43 SP       101    29.84                   NZ      2977924000000000000007 0    
001-149ST MARK'S WK117-32-Y SP          11    17.51                   NZ      2113074000000000000007 0    
001-156ST MARK'S WK144-38-Q SP          11    26.99                   NZ      2113173000000000000007 0    
001-164ST MARK'S WK147-38-D SP          11    26.71                   NZ      2113181000000000000007 0    
001-206NOVOLIZER BUDESONIDE 200MCG      11    14.86                   N       3062338506003524191004 2    
001-222SUPORTX OST/BELT XL SPX714 SP    11    48.58                   NZ      3528965000000000000007 0    
001-230SUPORTX OST/BELT L SPX713 B SP   11    49.79                   NZ      3528957000000000000007 0    
001-248SUPORTX OST/BELT M SPX712 W SP   11    49.79                   NZ      3534856000000000000007 0    
001-255LIORESAL INTRATH AMP 10MG/5ML    11    70.01                   N       2145522501067853040704 1    
001-263SUPORTX OST/BELT M SPX712 S SP   11    49.79                   NZ      3534807000000000000007 0    
001-271CREON MICRO GRANS              20G1    31.50                   N       3023231501278102040004 2    
001-313SUPORTX FEM XL SPX372 SKIN SP    11    71.25                   NZ      3528361000000000000007 0    
001-321SUPORTX FEM M SPX356 SKIN SP     11    71.25                   NZ      3528346000000000000007 0    
001-354SUPORTX FEM S12 AL12 BLACK SP    11    10.11                   NZ      3521572000000000000007 0    
001-362SUPORTX FEM S S12 AL22 SKIN SP   11    10.11                   NZ      3521721000000000000007 0    
001-370DEPO MEDRONE INJ 40MG/ML    10X1ML1                            N       2139756501288200704104 2    
001-396SUPORTX FEM S14 AL13 BLACK SP    11    10.25                   NZ      3521598000000000000007 0    
001-404PI MIRAPEXIN TAB 0.18MG         301    21.93                   N       6826572505011406503206 2    
001-420SUPORTX FEM S18 AL05 WHITE SP    11    10.11                   NZ      3521507000000000000007 0    
001-438SUPORTX MALE M AM12 BLACK SP     11    10.08                   NZ      3522513000000000000007 0    
001-453SUPORTX MALE XXL AM25 DGM SP     11    10.08                   NZ      3525045000000000000007 0    
001-461SUPORTX MALE L AM73 DGM SP       11    10.08                   NZ      3525078000000000000007 0    
001-479SUPORTX MALE M AM72 DGM SP       11    10.08                   NZ      3525060000000000000007 0    
001-487SUPORTX MALE M AM62 BLACK SP     11     9.97                   NZ      3522968000000000000007 0    
001-503SUPORTX OST/BELT SM SPX 501 SP   11    46.96                   NZ      3530359000000000000007 0    
001-511TRANSACRYL PLASTER 833020 SP    101     7.18                   NZ      0508796000000000000007 0    
001-537LYFLEX ORAL SOLN S/F 5MG/5ML 300ML1     7.95                           3086311502872410335204 2    
001-545ULTRALITE FEM S14 CG04 WHIT SP   11    15.89                   NZ      3461787000000000000007 0    
001-560LIORESAL INTRATH AMP 50MCG/1ML   11     3.16                   N       2145548501067853050604 1    
001-578ULTRALITE FEM S16 CG05 WHIT SP   11    15.89                   NZ      3461795000000000000007 0    
001-594PEAKFLOW VITALOGRAPH STD EU      11     4.83                           3091030509916943602203 1    
001-602URODRESS D/CONVEX CLR STD S915 S 51    24.83                   NZ      2364578000000000000007 0    
001-651UROSTOMY N/DRAIN ADAPT NDA6 SP   61    13.61                   NZ      2661783000000000000007 0    
001-669DALACIN C CAP 75MG              241                            N       2135911501345702553804 2    
001-677VARIMATE ADH WEDGES L VMW40 SP  401    31.24                   NZ      3250867000000000000007 0    
001-685VARIMATE WASHER L VMR 7025 SP   201    52.44                   NZ      3426822000000000000007 0    
001-693VARIMATE WASHER S VMR 5018 SP   201    40.12                   NZ      3426814000000000000007 0    
001-719DIPYRIDAMOLE SUSP 50MG/5ML   150ML1    43.01                   NZ      7029861501611914189802 2    
001-800OSMOLITE 1.5 KCAL             1.5L1    18.52                   NZ      2518926501315876459004 2    
001-818SHARPSGUARD BIN PURPLE 1L ALV   1L1     0.90                   NZ      7105398505538231424003 2    
001-826ALBUSTIX URINE T/STRIP          501     4.10                   N       0005983501600328720603 2    
001-834METHADONE SF SOLN BROWN ROS  500ML1     6.82                   NZ      1062728501611913259902 2    
001-867DALACIN C CAP 150MG             241                            N       2135903501288200581804 2    
001-883PI PULMICORT RESPULES 1MG/2ML   201    45.60                   N       7096662000000000000006 2    
001-909PI PULMICORT RESP 0.5MG/2ML     201    30.12                   N       7096670932288200997306 2    
001-917WELLAND ILEO/BAG CDL 513 SP     101    44.23                   NZ      3146610000000000000007 0    
001-925PI ZYPREXA TAB 10MG             281    79.97                   N       7096696000000000000006 2    
001-933PI ZYPREXA TABS 5MG             281    39.99                   N       7096704000000000000006 2    
001-958WELLAND URO/BAG CUL 713 SP      101    52.58                   NZ      2860146000000000000007 0    
001-982ALDACTIDE TAB 25MG             1001                            N       0006379501288200776804 2    
002-006ALDACTONE TAB 25MG             1001                            N       0006403501288200773704 2    
002-022OSMOLITE READY TO HANG          1L1     9.91                   NZ      2140986871042801457304 2    
002-048WELLAND URO/BAG CUL 913 SP      101    52.58                   NZ      2860112000000000000007 0    
002-063WELLAND COLO/BAG L FLC 538 SP   301    78.73                   NZ      2900165000000000000007 0    
002-212MELPHALAN TABLETS 2MG           251    16.48                   NZ      0007237506024917748704 2    
002-261DANSAC INV SYM CL 33815 CTF     301    79.16                   NZ      2517514000000000000007 0    
002-402WELLAND COLO/BAG M NCM 529 SP   101    29.66                   NZ      3160645000000000000007 0    
002-410PI XATRAL XL TAB 10MG           301    11.23                   N       7029895000000000000006 2    
002-428WELLAND ILEO/BAG M NDM 513 SP   101    44.23                   NZ      3160736000000000000007 0    
002-451PAEDIASURE READY TO HANG     500ML1     7.85                   NZ      2644128871042800638704 2    
002-477WELLAND ILEO/BAG M NDM 713 SP   101    44.23                   NZ      3160785000000000000007 0    
002-485WELLAND COLO/BAG L PLC 532 SP   301    91.88                   NZ      3423613000000000000007 0    
002-493WELLAND COLO/BAG L PLC 529 SP   301    91.88                   NZ      3423639000000000000007 0    
002-501WELLAND COLO/BAG L PLC 735 SP   301    91.88                   NZ      3423696000000000000007 0    
002-519WELLAND COLO/BAG M PMC 513 SP   301    91.88                   NZ      3423571000000000000007 0    
002-527WELLAND COLO/BAG M PMC 713 SP   301    91.88                   NZ      3423738000000000000007 0    
002-535WELLAND COLO/BAG M PMC 532 SP   301    91.88                   NZ      3423555000000000000007 0    
002-543WELLAND COLO/BAG L PFL525 SP    301   111.06                   NZ      3449063000000000000007 0    
002-634PEAKFLOW MTR MINIWRIGHT STD EU   11     7.18                           3078532502332303388803 2    
002-675NUTRINI ENERGY               500ML1     9.92         8.81      NZ      2517480871690057409204 2    
002-683NUTRINI LIQ                  500ML1     7.90                   NZ      2517472871690057381104 2    
002-717PEAKFLOW MTR MINIWRIGHT LOW EU   11     7.23                           3078540502332300161003 2    
002-733PRONTOSAN WOUND GEL            50G1    12.29                           3781796404696409343203 1    
002-782JEVITY RTH                      1L1    11.49                   NZ      2140994871042899703604 2    
002-816PHLEXY - 10 CAP                2001    48.25                   N       2210318501653357019904 1    
002-824DEPO MEDRONE IN 40MG/ML     10X3ML1                            N       2143204501288200708904 2    
002-832DORZOL/TIMO EY/DRP 1DOSE T 60X.2ML1    30.00                   N       1172378501700704943202 2    
002-840BEAMBRIDGE 43252 URINAL BRIDGE   11    15.03                   N       2675296000000000000007 0    
002-899BEAMBRIDGE DRAINAGE BAG 6-55 SP 101    16.20                           2840502000000000000007 0    
002-915OSMOLITE 1.5 KCAL               1L1    12.38                   NZ      2141000871042801263004 2    
002-956BEAMBRIDGE FUNNEL 12936 M SP     11    13.89                           2625960506046919008207 0    
002-964CO-AMILOFRUSE TAB 2.5/20MG WCK  281    12.86                   N       2037059501272790075902 2    
003-046DEPO MEDRONE LIDOCAIN 40MG/ 10X1ML1                            N       2151793501288200185804 2    
003-053DOXAZOSIN TAB 2MG ACC           281     0.86                   N       1094655501261701383502 2    
003-061CERAZETTE TAB 75MCG             841     9.55                   N       2897585501325700171804 2    
003-087ATENOLOL FC TAB 50MG  TEV       281     0.33                   N       1004142501700701921302 2    
003-103GLYCOPYRRONIUM SF SOLN 1MG/5 150ML1    91.00                   N       8114878506038096013902 2    
003-111DOXAZOSIN TAB 4MG ACC           281     0.98                   N       1094663501261701384202 2    
003-152CO-AMILOFRUSE TAB 10/80MG WCK   281    23.38                   N       1051457501272790077302 2    
003-178OXYCODONE (LYNLOR) CAP 20MG ACC 561    27.43                   N       3811296501261702366702 2    
003-186OXYCODONE (LYNLOR) CAP 5MG ACC  561     6.86                   N       3811270501261702364302 2    
003-194OXYCODONE (LYNLOR) CAP 10MG ACC 561    13.72                   N       3811288501261702365002 2    
003-202BISOPROLOL FUM TAB 2.5MG TEV    281     0.33                   N       1131325501700760360302 2    
003-210BISOPROLOL FUM TAB 1.25MG TEV   281     0.43                   N       1131317501700702588702 2    
003-228RIZATRIPTAN TAB 10MG             61     4.70                   N       8385338506020416177302 2    
003-236RIZATRIPTAN OD TAB 10MG          31     2.34                   N       8385346506067311029602 2    
003-244RIZATRIPTAN OD TAB 10MG          61     4.68                   N       8385361506020416181002 2    
003-251EVOREL PATCH 75MCG               81     4.12                   N       2146512501294631409204 2    
003-269RIZATRIPTAN TAB 5MG              61    26.73                   N       8385387500008385387102 2    
003-285RIZATRIPTAN TAB 10MG             31     3.07                   N       8385395502465500412602 2    
003-319PI AMIAS TAB 16MG               281    12.34                   N       7120082000000000000006 2    
003-327GLYCERIN SUPPS 1G INFANT        121     2.58                   N       1008960502646878122502 2    
003-350MEPORE ADH DRSG 671200 9X25CM   301    18.90                           0925347732319025463703 1    
003-368MEPORE ADH DRSG 671300 9X30CM   301    21.60                           0925354732319025470503 1    
003-384MEPORE ADH DRSG 671400 9X35CM   301    23.70                           0925396732319025474303 1    
003-392EVOREL PATCH 100MCG              81     4.28                   N       2146520501294631408504 2    
003-418HYDROSORB COMFORT12.5CMX12.5CM   51    18.50                   N       2762656404950090073703 1    
003-434ZOPICLONE TAB 7.5MG ACC         281     1.13                   N       1073584501261700541002 2    
003-442PI AMIAS TAB 8MG (28)           281     9.59                   N       7120504000000000000006 2    
003-491MIGARD TAB 2.5MG                 61    16.67                           2939098503822700024904 2    
003-517HOSPIFORM CREPE 6CMX4M           11     0.14                   N       2834729000004049540803 1    
003-525GLYCERIN SUPPS 2G CHILD         121     3.13                   N       1008952502646878121802 2    
003-558ENGERIX B PAED PFS NON FIX NDL   11     9.67                   NZ      2894590500048311113704B2    
003-566EVOREL PATCH 25MCG               81     3.42                   N       2146504501294631407804 2    
003-590HOSPIFORM CREPE 8CMX4M           11     0.17                   N       2834794000004049541503 1    
003-616PI ARIMIDEX TAB 1MG             281    68.56                   N       7105760000000000000006 2    
003-624SALIVA ORTHANA LOZ              301     3.50                   N       0140814702585407212904 2    
003-640LISINOPRIL TAB 5MG TEV          281     0.33                   N       1103274501700702310402 2    
003-657LISINOPRIL TAB 10MG TEV         281     0.37                   N       1103282501700702312802 2    
003-749ZIDOVAL VAGINAL GEL .75%       40G1     4.31                   N       2460160506003524726404 2    
003-756CAVILON 3343P N/STING FLM 1ML    51     4.09                           2528941871142807756803 2    
003-764CAVILON 3345P N/STING FLM 3ML    51     6.62                           2528958871142807754403 2    
003-772CAVILON 3346P N/STING FLM 28ML   11     5.85                           2528966871142806598503 2    
003-798ZYPREXA TAB 2.5MG               281    21.85                           2530335501460240089704 2    
003-822LAMICTAL TAB 200MG              561                            NZ      2161560501070600555604 2    
003-830FYBOGEL LEMON SACH 3500MG     2X301     6.47                           2150506500015841235404 2    
003-889HOSPIFORM CREPE 10CMX4M          11     0.20                   N       2834802000004049542203 1    
003-897LISINOPRIL TAB 20MG TEV         281     0.52                   N       1103290501700702314202 2    
003-913HOSPIFORM CREPE 12CMX4M          11     0.24                   N       2834810000004049543903 1    
003-954PI FREESTYLE OPTIUM T/STRIPS 50 501    15.49                   N       6826812000000000000006 2    
003-962HYDROCOLL BEVELLED 7.5CMSQ      101    17.30                   N       2462885404950098176703 1    
003-988HYDROCOLL THIN 10CMSQ           101    12.00                   N       2462927404950098184203 1    
003-996HYDROCOLL BEVELLED 10CMSQ       101    24.90                   N       2462893404950098177403 1    
004-002HYDROCOLL BEVELLED 15CMSQ        51    23.65                   N       2462901404950098186603 1    
004-010HYDROCOLL THIN 7.5CMSQ          101     7.20                   N       2462919404950098183503 1    
004-028HYDROCOLL BASIC 10CMSQ          101    25.30                   N       2462836404950098187303 1    
004-051DETRUNORM XL MR CAP 30MG        281    24.45                   N       3213774506006417071704 2    
004-069CELANCE TAB 50MCG              1001    20.70                           2141463501460240058304 2    
004-085TUBIFAST BDGE PURPLE 20CMX5M     11    16.32                           3241486733255194030003 2    
004-093FIRST AID EYE PAD + BDGE NO16    11     0.67                   NZ      2517928501064500409203 1    
004-143AIROMIR CFC-FREE INH           2001     1.97                   N       2166577501700701072204 2    
004-176COZAAR TAB 50MG CALENDAR PACK   281    12.80                   N       2148245501394518351104 2    
004-192FIRST AID KIT HSE STD20          11    19.75        33.99      NZ      2518009501064500419103 1    
004-242CARBOMER GEL 0.2%              10G1     2.80                   N       6328686500006328686602 2    
004-275TRIANGULAR BDGE CALICO 127CM     11     1.23                           2518108501064500427603 1    
004-283VORICONAZOLE TAB 200MG          281   633.67                   N       8114886426014019004702 2    
004-309NEBCIN INJ 80MG/2ML              11     5.37                   N       8343386506010655074304 2    
004-317EYEWASH SALINE STERILE       500ML1     1.92         3.27      NZ      2518058501064500431303 1    
004-358RALOXIFENE TAB 60MG ACC         281     5.14                   N       1185354501261702427502 2    
004-366FIRST AID DRSG HSE LGE NO 9      11     0.78         1.12      NZ      2517944503913910025603 1    
004-374FIRST AID DRSG HSE MED NO8       11     0.44         0.77      NZ      2517951503913919920503 1    
004-382FIRST AID DRSG HSE SML NO7       11     0.25         0.44      NZ      2517969501064500438203 1    
004-424LEVOTHYROXINE TAB 100MCG ALM    281     1.04                   N       1117142506005740164402 2    
004-432VORICONAZOLE TAB 50MG           281   161.59                   N       8114894500008114894802 2    
004-515LEVOTHYROXINE TAB 50MCG ALM     281     1.05                   N       1117159506005740162002 2    
004-564UTROGESTAN VAGINAL 200 CA 21X200MG1    21.00                   N       3808581506013953024804 2    
004-614VALTREX TAB 500MG               421                            NZ      2155075500012311568604 2    
004-689MINOCIN MR CAP 100MG            561    20.08                   N       2141927731751000052304 2    
004-697URSODEOXYCHOLIC ACID TAB 500MG  601    48.00                   N       8114902376000104083802 2    
004-713DEPO MEDRONE LIDOCAIN 40MG/ 10X2ML1                            N       2151801501288200192604 2    
004-861FOSAMAX TAB 10MG                281    23.12                   N       2221489501394519040304 2    
004-911ANUSOL HC SUPP                  121     1.74                           0014928501072483098704 2    
005-041CONVEEN STH/EASI 5215 40MM      301    54.79                   NZ      2505105570178092824303 3    
005-124ENGERIX B PFS (NON FIX NDLE)    101   129.92                   NZ      2894582500048311108304B2    
005-132KLIOFEM TAB                     841    11.43                   N       2163285573801285903704 2    
005-181MANERIX TAB 300MG               301    13.99                   N       2141133500047100402104 2    
005-223DEPO MEDRONE INJ 40MG/ML    10X2ML1                            N       2151819501288200706504 2    
005-264KLARICID PAED SUSP 125MG      70ML1     5.26                           0213207800266001603404 2    
005-280OPTIFIBRE TIN                 250G1    11.34                   NZ      2528800761303508936504 2    
005-322LISINOPRIL TAB 5MG ACC          281     0.87                   N       1093228501261700786502 2    
005-348BACTIGRAS 15CMX1M ROLL          121    85.52                   NZ      2268258500022307505703 1    
005-371CUTIPLAST 25X10CM STERILE SP    501    17.00                           2913382000000000000007 0    
005-462MAXALT TAB 5MG                   61    26.74                   N       2534162501394510400404 1    
005-470LISINOPRIL TAB 10MG ACC         281     0.99                   N       1099506501261700787202 2    
005-488MAXALT TAB 10MG                  31    13.37                   N       2534196501394510402804 2    
005-496MAXALT TAB 10MG                  61    26.74                   N       2534204501394510403504 2    
005-504MAXALT MELT ORAL WAFERS 10MG     31    13.37                   N       2534220501394510405904 2    
005-512MAXALT MELT ORAL WAFERS 10MG     61    26.74                   N       2534212501394510406604 2    
005-595LISINOPRIL TAB 20MG ACC         281     1.02                   N       1099480501261700788902 2    
005-629ELIDEL CRM 1% 30G                11    19.69                   N       2900462501067890512004 2    
005-694SYNTOCINON AMPS 10U/1ML          51     4.53                   NZ      2540151501067891934904 2    
005-744CAUSTIC PENCIL AVOCA 680         11     3.33                           2455095501495868000403 2    
005-751MERONEM INJ 500MG               101                            N       2164424501345701219404 2    
005-819IKOREL TAB 20MG                 601    13.15                   N       2120616501301100365104B2    
005-835MORPHINE SULPH AMP 20MG/ML  10X1ML1    79.64                   NZ      1037530501412417815102 2    
005-843QVAR INH 100MCG                  11    17.21                   N       2544732501700715223104 2    
005-868QVAR INH 50MCG                   11     7.87                   N       2544724501700715221704 2    
005-884QVAR INHALER 50MCG AUTOHALER     11     7.87                   N       2544757501700715225504 2    
005-892REVAXIS 0.5ML PFS                11     7.80                   NZ      3092889366479804294804 2    
005-934QVAR INH 100MCG AUTOHALER        11    17.21                   N       2544740501700715227904 2    
005-959MERONEM INJ 1G                  101                            N       2164416501345701218704 2    
005-975EBIXA TAB 10MG                  281    34.50                   N       2897031570215712705404 2    
006-106FORTISIP BOTTLE VANILLA      200ML1     1.12                   NZ      3092087871240018425004 2    
006-122MEPILEX TRANSFER DRSG 20X50CM    41   113.68                           2924165732319002402503 1    
006-130MEPILEX TRANSFER DRSG 15X20CM    51    55.60                           2924157733243098369503 1    
006-163GABITRIL TAB 15MG              1001   156.13                           2546380503554600027104 2    
006-197FORTISIP BOTTLE TROPICAL     200ML1     1.12                   NZ      3092145871240018485404 2    
006-205GABITRIL TAB 10MG              1001   104.09                           2546364503554600026404 2    
006-213FORTISIP BOTTLE STRAWBERRY   200ML1     1.12                   NZ      3092111871240018464904 2    
006-221ARIPIPRAZOLE TAB 30MG ZEN       281   192.08                   N       1204718500028365755202 2    
006-254AQUEOUS CRM SOAP              100G1     1.60                   NZ      7121809500007121809502 2    
006-288GABITRIL TAB 5MG               1001    52.04                           2546349503554600025704 2    
006-346NOVOFINE PEN NDL 30G X 8MM     1001     9.24                   N       2168672501795400098203 2    
006-353FORTISIP BOTTLE ORANGE       200ML1     1.12                   NZ      3092152871240018475504 2    
006-361EPIVIR ORAL SOLN 10MG/1ML    240ML1    39.01                   N       2551141500012311524204 2    
006-379FORTISIP BOTTLE CHOCOLATE    200ML1     1.12                   NZ      3092129871240018499104 2    
006-395DERMOL SHOWER EMOLLIENT      200ML1     3.55         7.04              2542090501637915250404 2    
006-403DERMATIX TUBE                  15G1    16.66                   N       2934206506003524060903 2    
006-452MEPORE FILM 270670 6X7CM        101     4.80                           2548725732319029200403 2    
006-460MEPORE FILM 271570 10X12CM      101    12.80                           2548733733243085601203 2    
006-486IODOFLEX 8X10CM 17G              21    27.44                           2163269500022345802704 2    
006-502FINACEA GEL 30G                  11     7.48                   N       3243706570219102192904 2    
006-536MEPORE FILM 272570 10X25CM      101    25.00                           2548741733243084828403 1    
006-619TAMSULOSIN MR CAP 400MCG TEV    301     0.88                   N       1127240501700703621002 2    
006-676FORTISIP BOTTLE NEUTRAL      200ML1     1.12                   NZ      3092137871240018418204 2    
006-684RIZATRIPTAN OD TAB 10MG ACC      61     4.67                   N       1177633501261700060602 2    
006-692PROMAZINE TAB 25MG TEV         1001    49.99                   N       1127968501700759989002 2    
006-700RIZATRIPTAN OD TAB 10MG ACC      31     2.33                   N       1177625501261700059002 2    
006-726CATH A/FLATE SIL DA3101M12CH     11     6.11                   N       2856227402670431801803 2    
006-742ARIPIPRAZOLE TAB 5MG ZEN        281    96.04                   N       1204684500028365752102 2    
006-791CATH A/FLATE SIL DA3101M14CH     11     6.11                   N       2856235402670431802503 2    
006-833CATH A/FLATE SIL DA3101M16CH     11     6.11                   N       2856243402670431803203 2    
006-841CATH A/FLATE SIL DA2101F12CH     11     6.11                   N       2855864402670431793603 2    
006-858CATH A/FLATE SIL DA2101F14CH     11     6.11                   N       2855872402670431794303 2    
006-866CATH A/FLATE SIL DA2101F16CH     11     6.11                   N       2855880402670431795003 1    
006-874CATH A/FLATE H/G DH3101M12CH     11     6.51                   N       2856029402670431785103 2    
006-890CATH A/FLATE H/G DH3101M14CH     11     6.51                   N       2856060402670431786803 2    
006-908PI SINEMET 25/250MG TAB 100    1001    17.01                   N       8385916000000000000006 2    
006-924CATH A/FLATE H/G DH3101M16CH     11     6.51                   N       2856078402670432189603 2    
006-957CATH A/FLATE H/G DH2101F12CH     11     6.51                   N       2856151402670431777603 1    
006-965CATH A/FLATE H/G DH2101F14CH     11     6.51                   N       2856169402670431778303 1    
006-981PI IMIGRAN NASAL SPRAY 20MG      21    14.16                   N       7121841000000000000006 2    
006-999CATH A/FLATE H/G DH2101F16CH     11     6.51                   N       2856177402670431779003 1    
007-021PI BD INS SYR + NDL O.5ML 12MM 1001    14.07                   N       7121858000000000000006 2    
007-039PI BD M/FINE SYR 1ML 29GX12MM  1001    14.25                   N       7121866000000000000006 2    
007-047FORTISIP BOTTLE BANANA       200ML1     1.12                   NZ      3092095871240018439704 2    
007-104AZITHROMYCIN SUSP 200MG TEV   15ML1     2.80                   N       1118025501700705599002 2    
007-161BEZAFIBRATE MR TAB 400MG        301     7.63                   N       7097538501591587903502 2    
007-179CLOTRIMAZOLE PESS 500MG          11     5.30                   N       7097520502465500044902 2    
007-187PROMAZINE TAB 50MG TEV         1001    76.85                   N       1127976501700759993702 2    
007-195PI HYLO-TEAR PRES FREE        10ML1     7.57                   NZ      8387284000000000000006 2    
007-245VENTOLIN EVOHALER 100MCG     200DS1                            N       2456051500012443975004 2    
007-344ARIPIPRAZOLE TAB 10MG ZEN       281    96.04                   N       1204692500028365753802 2    
007-369INDEPENDENCE A/TRIPS P200AS SP 2001    20.63                   NZ      3656295000000000000007 0    
007-377ZOMIG NASAL SPRAY 5MG          2X31    36.50                   N       2897312500045501795504 2    
007-385SOLIAN TAB 100MG                601    31.69                   N       2901247500028360976604B2    
007-401INDEPENDENCE ACTIVITY AP1 SP    301    83.11                   NZ      3667730000000000000007 0    
007-435ORAMORPH ORAL SOLN 10MG/5ML  300ML1     5.45                   N       2545192426027465029504 2    
007-443XEPIN CRM                      30G1    13.66                           2541738503733600046104 2    
007-450INDEPENDENCE ADH REM RS1 SP   50ML1     7.28                   NZ      3489242000000000000007 0    
007-468INDEPENDENCE ADH REM ARW1 SP    301    15.94                   NZ      3464468000000000000007 0    
007-476INDEPENDENCE WIPES BW1 SP       301    25.84                   NZ      3464476000000000000007 0    
007-492INDEPENDENCE SPRAY PR310 SP   59ML1     4.94                   NZ      3425352000000000000007 0    
007-518COMFIFAST GRN MED 5CMX3M         11     1.62                   N       2891794501982900412503 1    
007-534INVENT SYM I/BAG 344-25 SP      101    28.32                   NZ      2627289000000000000007 0    
007-542COMFIFAST YELLOW 10.75CM/1M      11     1.20                   N       2891778501982900410103 2    
007-559COMFIFAST YELLOW 10.75CMX5M      11     6.04                   N       2891844501982900417003 2    
007-575KARAYA UF6601 51MM SP           101    13.51                   NZ      3294980000000000000007 0    
007-591KARAYA UF602 51MM SP            101    13.51                   NZ      3295060000000000000007 0    
007-666KOENIG RUTZEN 161138 BI SP       11    39.25                   NZ      0536458000000000000007 0    
007-674COMFIFAST BLUE LGE 7.5CMX3M      11     2.13                   N       2891802501982900413203 2    
007-682KOENIG RUTZEN L 171125 SP        11    29.76                   NZ      0536177000000000000007 0    
007-690COMFIFAST BLUE LGE 7.5CMX1M      11     0.77                   N       2891760501982900402603 2    
007-716BIATAIN S ADH DR 4610 10CMSQ    101    22.90                   N       2902054570178089058803 1    
007-724BIATAIN S ADH DR 4615 15CMSQ    101    45.60                   N       2902021570178089064903 1    
007-732BIATAIN S ADH DR 4612 12.5CMSQ  101    37.90                   N       2901999570178089061803 1    
007-740KOENIG RUTZEN S 171232 SP        11    29.76                   NZ      0536235000000000000007 0    
007-757KOENIG RUTZE WP MB S 168225 SP   11    62.23                   NZ      0509166000000000000007 0    
007-765BIATAIN S N/A DR 4630 10CMSQ    101    22.90                   N       2901858570178089259903 1    
007-799KOENIG RUTZE WP MB S 168232 SP   11    62.23                   NZ      0716514000000000000007 0    
007-807LIGHT CONVEX C/BAG 258-46 SP    101    26.35                   NZ      2626992000000000000007 0    
007-815LIGHT ADH ILEO/BAG 274125 SP    301    71.81                   NZ      0907881000000000000007 0    
007-849BIATAIN S N/A DR 4632 12.5CMSQ  101    37.90                   N       2901957570178089262903 1    
007-856LIGHT ADH ILEO/BAG 274332 SP    301    70.84                   NZ      0957696000000000000007 0    
007-864RITALIN 10MG                    301     6.68                   NZ      2166585501067891815104 2    
007-898L/WEIGHT BELT LARGE RES 3 SP     11    30.15                   NZ      3039930000000000000007 0    
007-906NOVA 2 URO/BAG 1218-43 SP       101    29.84                   NZ      2977965000000000000007 0    
007-914NOVA ILEO/BAG 811-15 SP         301    80.35                   NZ      2863256000000000000007 0    
007-930NOVA MINICAP 829-25 SP          301    41.79                   NZ      2823417000000000000007 0    
007-948NOVA X3 COLO/BAG 852-15 SP      101    28.92                   NZ      3062148000000000000007 0    
007-955NOVALIFE 1 COLO/BAG 905-10 SP   301    92.17                   NZ      3559333000000000000007 0    
007-963NOVALIFE 1 COLO/BAG 906-10 SP   301    92.17                   NZ      3559374000000000000007 0    
007-997NOVALIFE 1 COLO/BAG 901-40 SP   301    92.17                   NZ      3559150000000000000007 0    
008-037DALACIN T TOPICAL LOTION 60ML 60ML1                            N       2152460501345702558304 2    
008-045IKOREL TAB 10MG                 601     6.92                   N       2120608501301100364404B2    
008-052NOVALIFE 1 COLO/BAG 902-30 SP   301    92.17                   NZ      3559200000000000000007 0    
008-060NOVALIFE 1 COLO/BAG 902-35 SP   301    92.17                   NZ      3559218000000000000007 0    
008-078NOVALIFE 1 COLO/BAG 901-25 SP   301    92.17                   NZ      3559119000000000000007 0    
008-086NOVALIFE 1 COLO/BAG 901-35 SP   301    92.17                   NZ      3559143000000000000007 0    
008-102NOVALIFE 1 COLO/BAG 902-10 SP   301    92.17                   NZ      3559184000000000000007 0    
008-136NOVALIFE 1 ILEO/BAG 915-10 SP   101    34.62                   NZ      3583275000000000000007 0    
008-144NOVALIFE 1 ILEO/BAG 915-30 SP   101    34.62                   NZ      3583291000000000000007 0    
008-151ARIPIPRAZOLE TAB 15MG ZEN       281    96.04                   N       1204700500028365754502 2    
008-177NOVALIFE 1 ILEO/BAG 916-10 SP   101    34.62                   NZ      3585858000000000000007 0    
008-193NOVALIFE 1 ILEO/BAG 924-30 SP   301   103.87                   NZ      3583218000000000000007 0    
008-201NOVALIFE 1 ILEO/BAG 923-30 SP   301   103.87                   NZ      3583150000000000000007 0    
008-243NOVALIFE 1 ILEO/BAG 924-10 SP   301   103.87                   NZ      3583192000000000000007 0    
008-250NOVALIFE 1 ILEO/BAG 925-10 SP   301   103.87                   NZ      3583259000000000000007 0    
008-276GRANUGEL HYDROCOLLOID S129 15G  101    24.80                   N       2122638076845505354403 1    
008-292NEORAL CAP 50MG                 301    35.97                   N       2146769501305414007804 2    
008-300NOVALIFE 1 ILEO/BAG 926-10 SP   301   103.87                   NZ      3583267000000000000007 0    
008-326NOVALIFE 2 COLO/BAG 1301-43 SP  301    55.23                   NZ      3559382000000000000007 0    
008-334SALIVA ORTHANA SPRAY          50ML1     4.92                   N       2172898000000000000004 2    
008-342NOVALIFE 2 COLO/BAG 1301-55 SP  301    55.23                   NZ      3559390000000000000007 0    
008-367OPTION ALG COLO/BAG A-0335K SP  301    90.36                   NZ      3135134000000000000007 0    
008-409ZOFRAN FLEXI-AMPS 2MG/ML     5X4ML1    59.95                   NZ      2186252500012310629504 2    
008-417OPTION ALG COLO/BAG 0345K SP    301    72.75                   NZ      2731917000000000000007 0    
008-425OPTION  COLO/BAG 1110K SP       301    63.47                   NZ      2732089000000000000007 0    
008-433NEORAL SOLN                   50ML1   102.30                   N       2146785501305414005404 2    
008-466OPTION COLO/BAG PLUS 0430K SP   301    73.51                   NZ      2731982000000000000007 0    
008-474OPTION COLO/BAG PLUS 0450K SP   301    74.52                   NZ      2732022000000000000007 0    
008-482OPTION CONNECT 2 JH210 SP       301    49.82                   NZ      2959906000000000000007 0    
008-490OPTION ILEO/BAG 6020K SP        201    76.74                   NZ      2861607000000000000007 0    
008-516OPTION ILE/BAG 2410K SP         301    65.97                   NZ      2619740000000000000007 0    
008-532OPTION ILEO/BAG 4320K           301    73.36                   NZ      2732857000000000000007 0    
008-557OPTION MIC COLO/BAG M-0330K SP  301    81.11                   NZ      2879302000000000000007 0    
008-565MEPORE FILM 273000 15X20CM      101    31.80         1.00              2548758733243085607403 1    
008-581FLUCLOXACILLIN SOL 250MG/5ML 100ML1     4.22                   N       7122047500007122047002 2    
008-599DANSAC NOVA EASI 82330 30-60MM  301    92.70                           2863066570981731939203 1    
008-607OPTION MIC ILEO/BAG M- 2610K SP 301    78.40                   NZ      2879120000000000000007 0    
008-615AQUACEL RIBBON S7503 2X45CM      51    13.05                   N       2408565076845510675203 2    
008-656ALGISITE M DRSG 10CMSQ          101    20.40                           2551125500022342511103 2    
008-706OPTION MIC ILE/BAG MV- 4120K SP 301    94.50                   NZ      3158573000000000000007 0    
008-714VFEND PDR ORAL SOLN 40MG/ML    45G1                            NZ      3063781541506237244904 2    
008-730OPTION MIC URO/BAG MJ1900 SP    201    95.27                   NZ      2936722000000000000007 0    
008-755OPTION STOMA CAP 1320K OPA SP   501    60.07                   NZ      2619781000000000000007 0    
008-771OSTOFIX EIGHTY DFW80 SP         801    20.40                   NZ      3632114000000000000007 0    
008-789ALGISITE M DRSG 5CMSQ           101     9.90                           2551117500022342508103 1    
008-805OSTOMY ADH DISC WJ002-25-L SP   101     5.70                   NZ      2104677000000000000007 0    
008-813OPTION ADH DISC WJ005-32-V SP   101     5.76                   NZ      2104685000000000000007 0    
008-821TUBIFAST GREEN 5CMX3M            11     1.81         4.30              2551885733255193560303 1    
008-839TUBIFAST BLUE 7.5CMX3M           11     2.16         5.65              2551877733255194015703 1    
008-847TUBIFAST YELLOW 10.75CMX3M       11     3.54         9.19              2551869733255194018803 1    
008-862OSTOMY PROTECT WAFER PW1515 SP   51    26.69                   NZ      2718732000000000000007 0    
008-870OSTOSORB GEL 3G SACH PFW6 SP   1501    43.20                   NZ      3411675000000000000007 0    
008-896KALTOSTAT ROPE 1003 2G           51    20.50                   N       0227074076845511102203 2    
008-912HOL COMPCT CL 3472 BE 25MM  FB  301    80.89                   NZ      2192128539016600562507 0    
008-995ACTISORBSLVR 220 19X10.5CM      101    47.80                           2551901501963496649603 1    
009-019PELICAN SELECT 102327 SP        301    80.70                   NZ      2811354000000000000007 0    
009-027PELICAN SELECT 102227 SP        301    80.70                   NZ      2811230000000000000007 0    
009-035PELICAN SELECT 102230 SP        301    80.70                   NZ      2811248000000000000007 0    
009-043PELICAN SELECT 102127 SP        301    80.70                   NZ      2811115000000000000007 0    
009-050PELICAN SELECT 102235 SP        301    80.70                   NZ      2811263000000000000007 0    
009-092NEORAL CAP 25MG                 301    18.37                   N       2146751501305414006104 2    
009-100PELICAN SELECT 102120 SP        301    80.70                   NZ      2811081000000000000007 0    
009-118PELICAN SELECT 102225 SP        301    80.70                   NZ      2811222000000000000007 0    
009-126PELICAN SELECT 112655 SP        301    89.94                   NZ      3020245000000000000007 0    
009-142PELICAN SELECT 112330 SP        301    89.94                   NZ      2895944000000000000007 0    
009-159PELICAN SELECT 112415 SP        301    89.94                   NZ      2896025000000000000007 0    
009-167PELICAN SELECT 112703 SP        301    90.96                   NZ      2964823000000000000007 0    
009-191PELICAN SELECT 112230 SP        301    89.94                   NZ      2894178000000000000007 0    
009-209PELICAN SELECT 101734 SP        301    81.94                   NZ      2672814000000000000007 0    
009-217PELICAN SELECT 103427 SP        101    31.02                   NZ      3063203000000000000007 0    
009-225PELICAN SELECT 104415 SP        101    33.60                   NZ      3533809000000000000007 0    
009-233PELICAN SELECT 103435 SP        101    31.02                   NZ      3063237000000000000007 0    
009-290PELICAN SELECT 113420 SP        101    45.66                   NZ      3062924000000000000007 0    
009-308PELICAN SELECT 113432 SP        101    45.66                   NZ      3062973000000000000007 0    
009-316PELICAN SELECT 117315 SP        101    48.24                   NZ      3535176000000000000007 0    
009-340PELICAN SELECT 113325 SP        101    45.66                   NZ      3062890000000000000007 0    
009-357PELICAN SELECT 113427 SP        101    45.66                   NZ      3062957000000000000007 0    
009-365PELICAN SELECT 115422 SP        101    56.82                   NZ      3171766000000000000007 0    
009-373PELICAN SELECT 115612 SP        101    56.82                   NZ      3223609000000000000007 0    
009-381PELICAN SELECT 101600 SP        301    74.54                   NZ      2672764000000000000007 0    
009-407PELICAN SELECT 101601 SP        301    74.54                   NZ      2672780000000000000007 0    
009-423PELICAN SELECT 114235 SP        301   165.30                   NZ      3171659000000000000007 0    
009-431PELICAN SELECT 114615 SP        301   165.30                   NZ      3223591000000000000007 0    
009-449PELICAN SELECT112706 SP         301   165.30                   NZ      3171832000000000000007 0    
009-456BETNESOL EE/D 0.1%            10ML1     2.32                           0029355506006479183704 2    
009-472PELICAN W/BAND S/M 130561 SP     11    19.02                   NZ      3660586000000000000007 0    
009-480POUCHKINS ILEO/BAG 3778 SP      151    35.88                   NZ      3293776000000000000007 0    
009-506NEORAL CAP 100MG                301    68.28                   N       2146777501305414008504 2    
009-514BETNESOL-N DROPS              10ML1     2.39                           0029421506006479167704 2    
009-522RUB OST/FLANGE WK108-38-L SP     11    20.55                   NZ      3092384000000000000007 0    
009-530SECOND NATURE 2FL38 SP           51    14.25                   NZ      2278141000000000000007 0    
009-548BETNOVATE CRM                  30G1                            N       0029447500012310714804 2    
009-555SECOND NATURE 2FL45 SP           51    14.25                   NZ      2278158000000000000007 0    
009-563SECOND NATURE 2U57  SP          101    28.95                   NZ      2507135000000000000007 0    
009-571BETNOVATE OINT                 30G1                            N       0029488500012310298304 2    
009-597SECOND NATURE 2U58 SP           101    28.95                   NZ      2507150000000000000007 0    
009-605SECUPLAST MOULD/SEA L SMSL SP   101    24.12                   NZ      3553963000000000000007 0    
009-613SECUPLAST OST PLASTER SP38  SP  101    12.02                   NZ      2445625000000000000007 0    
009-647SECUPLAST OST PLASTER SP32 SP   101    12.02                   NZ      2445617000000000000007 0    
009-704SIMPLICITY FEM BRFBLXL BLK SP    11    13.35                   NZ      3234879000000000000007 0    
009-712SIMPLICITY FEM BRFBML BLK SP     11    13.35                   NZ      3234861000000000000007 0    
009-720APPEEL  NO STING ADH REMVR SP 50ML1     9.86                           3116589501795001211803 2    
009-753SIMPLICITY FEM BRFBSM BLK SP     11    13.35                   NZ      3234853000000000000007 0    
009-761SING ELAS O/BELT STD 877002 SP   11     4.32                   NZ      0208140000000000000007 0    
009-779FREESTYLE OPTIUM KETONE T/STRIP 101    21.94        33.12      N       3237773502179171125303 2    
009-795SOFTIMA CON ILEO/BAG 41818E SP  101    46.40                   NZ      3287851000000000000007 0    
009-803OMEPRAZOLE CAP 20MG ZEN         281     4.45                   N       1112648500028365782802 2    
009-829SOFTIMA CON ILEO/BAG 41717E SP  101    46.40                   NZ      3287919000000000000007 0    
009-852SOFTIMA CON ILEO/BAG 41718E SP  101    46.40                   NZ      3287869000000000000007 0    
009-894SOFTIMA ILEO/BAG 631251E SP     301    54.75                   NZ      3441615000000000000007 0    
009-902SOFTIMA ILEO/BAG 631250E SP     301    54.75                   NZ      3441656000000000000007 0    
009-928SOFTIMA O/SYST 63063E SP         51    21.35                   NZ      3282787000000000000007 0    
009-944PREMARIN TABS 0.3MG             841                            N       3803970501345701068804 2    
010-017JELONET 5X5CMSQ BP              501    11.90                   NZ      2170439500022307403603 1    
010-025JELONET 15CMX2M ROLL            121    60.65                   NZ      2170454500022307415903 1    
010-033PI GLANDOSANE NATURAL         50ML1     5.99                   N       7122054000000000000006 2    
010-041BACTIGRAS 15X20CM 7461          101    27.12                   NZ      0009779500022307461603 1    
010-108PI BEZALIP MONO TAB 400MG       301     7.63                   N       7042013000000000000006 2    
010-116CUTIPLAST 15X8CM STERILE SP     501    13.00                           0360313000000000000007 0    
010-140FLIXOTIDE 50MCG ACCUHALER     60DS1                            N       2183515500012443665004 2    
010-207RAPAMUNE LIQ BTLE 1MG/1ML 60ML   11                            NZ      2796688501098100172404 2    
010-215NUTRISON SOYA PLASTIC BOTTLE 500ML1     6.14                   N       3794500871690055988404 2    
010-223ENSURE PLUS COMMENCE      10X200ML1    11.31                   NZ      3233954871795323924204 2    
010-231WARTICON CRM 0.15%              5G1    17.83                   N       2161545501109110240004 2    
010-264NEUPOGEN SINGLEJECT 30MU 0.5ML   51   263.52                   NZ      2827814871513100073804 2    
010-280FLIXOTIDE 100MCG ACCUHALER    60DS1                            N       2183523500012443684104 2    
010-306XISMOX TAB 60MG                 281     5.51                   N       2606333503045100143604 2    
010-314OESTROGEL CAN                  80G1     4.80                   N       2171775506038502004304 2    
010-355HOL IMPRESS C CL 3494BE32MM FB  101    28.15                           2241784539016602836503 1    
010-413ACEA GEL 0.75%                 40G1     9.95                           2902450503474907684704 2    
010-421PI TROSYL NAIL SOLN           12ML1    27.38                   N       7042047000000000000006 2    
010-447CARNITOR ORAL SOLN 1G/10ML      101    35.00                           2122117502269000018904 2    
010-462FLIXOTIDE 250MCG ACCUHALER    60DS1                            N       2183531500012443688904 2    
010-538NITROLINGUAL PUMP SPR 400MCG 200DS1     3.44                           2210516402912507902504 2    
010-579FLIXOTIDE 500MCG ACCUHALER    60DS1                            N       2183549500012443692604 2    
010-678JELONET DRSG OTC 5X5CM           51     2.38         3.53      NZ      2648731500022343876003 2    
010-686IOPIDINE EY/D 0.5%             5ML1    10.88                   N       2176204501067890905004 2    
010-728MINI CRACKERS HERB          15X40G1    14.73                   N       3815727506001405336704 1    
010-736DOVOBET OINTMENT               30G1    19.84                   N       3821295570219100941504 2    
010-744MELOLIN ADH DRSG 10X8CM          51     2.76         4.11      NZ      2648723500022343731203 2    
010-769DISTACLOR CAP 500MG             211     7.50                   N       3244365506010655058304 2    
010-777LPL 63.4 LIQ PARIFFIN BATH A 500ML1     3.10                   N       3779964070037122165204 2    
010-793SALAGEN TAB 5MG                 841    41.14                   N       2169274501067891913404 2    
010-801ASCORBIC ACID TAB 500MG ALM     281    26.89                   N       1117407501520100955902 2    
010-819SEREVENT ACCUHALER 50MCG      60DS1                            N       2183507500012443677304 2    
010-843PI JANUVIA 50MG TABS 28         281    30.93                   N       8121113000000000000006 2    
010-850PI JANUVIA 25MG TABS 28         281    30.93                   N       8121105000000000000006 2    
010-876PI ENTOCORT CR CAP 3MG         1001    66.79                   N       8386088502173002817606 2    
010-884CORTOPIN HYDROCORTISONE CRM 1% 15G1     1.04         2.45              8386096509918600090904 2    
010-934ZOFRAN FLEXI-AMP 2MG/ML      5X2ML1    29.97                   NZ      2186245500012310627104 2    
010-959LEUKOFIX S/TAPE 2122 2.5CMX5M    11     0.93         1.32              0445254404280902901703 1    
011-007VANCOMYCIN INJ VIAL 1G WCK       11    14.50                   N       1132315501272790528002 2    
011-031FUCIBET CRM                    60G1    12.76                   N       2176147570219100451904 2    
011-056CATH EASICATH NEL 5354 M 14CH   251    32.70                   N       2184364570178021549703 2    
011-072GLUCORX FINEPOINT P/N 12MM/29G 1001     4.50                   N       3761681506034224022403 1    
011-114GLUCORX FINEPOINT P/N 10MM/29G 1001     4.50                   N       3761608506034224021703 1    
011-122GLUCORX FINEPOINT P/N  8MM/31G 1001     4.50                   N       3761590506034224020003 2    
011-197CATH EASICATH NEL 5352 M 12CH   251    32.70                   N       2184349570178021548003 2    
011-205ACICLOVIR PDR VIAL 250MG WCK     51    49.30                   N       1132273501272790525902 2    
011-213BACLOFEN TAB 10MG ACC           841     2.81                   N       1081702501261702084002 2    
011-239GLUCORX FINEPOINT P/N 6MM/31G  1001     4.50                   N       3761582506034224019403 2    
011-254GLUCORX FINEPOINT P/N 5MM/31G  1001     4.50                   N       3812674506034224018703 2    
011-262GLUCORX FINEPOINT P/N 4MM/31G  1001     4.50                   N       3759255506034224017003 2    
011-288CASODEX TAB 50MG                281   119.79                   NZ      2184083500045500592104 2    
011-304CATH EASICATH NEL 5350 M 10CH   251    32.70                   N       2184331570178021547303 1    
011-338PI RITALIN 10MG                 301     6.68                   N       8386120000000000000006 2    
011-361DUOMED SOFT 512/4 BK CT CI L     21     7.92                           3674959405152615689003 1    
011-379DUOMED SOFT 522/4 BK CT C2 L     21    11.59                           3675154405152615709503 1    
011-387DUOMED SOFT 522/3 BK CT C2 M     11    11.59                           3675147405152615708803 1    
011-395DUOMED SOFT 522/5 BK CT C2 XL    11    11.59                           3675162405152615710103 1    
011-411DUOMED SOFT 621/4 TL OT C2 L     21    12.89                           3675204405152615714903 1    
011-429IMIGRAN NASAL SPR 10MG           21                            N       2946960500012311012404 2    
011-445FLAMINAL HYDRO ALGINATE GEL  5X15G1    40.30                   NZ      3242971542001350036903 2    
011-478CATH SPEEDI CMPCT 28522 F12CH   201    54.86                   N       3816881570893253425303 1    
011-486XENICAL CAP 120MG               841    31.63                   N       2551570426009568068604 2    
011-528CATH SPEEDI CMPCT 28422 M12+CH  201    54.86                   N       3816899570893253422203 1    
011-544TRIDESTRA TAB CALENDAR PACK     911    20.49                           2189082643210000325604 2    
011-593PEPTAC LIQUID TEV            500ML1     1.95                   N       2145621502349733332602 2    
011-627FLAMINAL FORTE ALGINATE GEL  5X15G1    40.30                   NZ      3242963542001350035203 2    
011-668PARIET TAB 20MG                 281    11.34                   N       2549905503651900006904 2    
011-676PARIET TAB 10MG                 281     5.78                   N       2549921503651900003804 2    
011-684MORFORM MOTION MAGNET SACHETS   601    20.41                           3086451501795001210107 0    
011-791HOL MEDICAL ADH 7730         112ML1    17.93                           0006759061007510536603 1    
011-809TAMIFLU CAP 75MG                101    15.41                   N       2895795500047100606304 2    
011-825HOL MEDICAL ADH REMOVER 7731 100ML1    15.30                           0006643061007510538003 1    
011-833HOL KARAYA PASTE 7910            11     8.91                           0006742539016603426703 1    
011-882DIFFERIN CRM                   45G1    16.43                   N       2905784502046500086004 2    
011-890HOL SKIN BARRIER 4"X4" 7700      51    12.90                           0078949539016605174503 1    
011-965ZOPICLONE TAB 3.75MG TEV        281     0.63                   N       1073626501700703165902 2    
011-973ZOPICLONE TAB 7.5MG TEV         281     0.63                   N       1073618501700703175802 2    
011-981ALDARA CRM SACH                 121    48.60                   N       2544765506003524705904 2    
011-999DIFFERIN GEL                   45G1    16.43                   N       2905776502046500088404 2    
012-013TEGADERM 1628 DRSG 15X20CM      101    24.40                           0038703871142806541103 2    
012-021VIAGRA TAB 25MG                  41                            N       2551620121000114078304 2    
012-039VIAGRA TAB 25MG                  81                            N       2551638501345701081704 2    
012-047VIAGRA TAB 50MG                  41                            N       2551646121000114087504 2    
012-054VIAGRA TAB 50MG                  81                            N       2551653501345701083104 2    
012-062VIAGRA TAB 100MG                 41                            N       2551661121000114077604 2    
012-070VIAGRA TAB 100MG                 81                            N       2551679501345701085504 2    
012-104FLUARIX TETRA VACCINE           101    99.40                   NZ      3821014500012311411504B2    
012-120LECICARBON A SUPPOSITORY        101     8.20                           3795150506020973104904 2    
012-161FAMVIR TAB 125MG                101    53.45                   N       2174746500048355240404 1    
012-286FAMVIR TAB 250MG                151   160.34                   NZ      2174738500048354460704 1    
012-401QVAR HFA EASI-BREATHE 100MCG 200DS1    16.95                   N       3102365501700701111804 2    
012-419QVAR HFA EASI-BREATHE 50MCG  200DS1     7.74                   N       3102357501700701110104 2    
012-427PI NEXIUM 40MG TABS             281    23.93                   N       6329825000000000000006 2    
012-435CO-DIOVAN TAB 80/12.5MG         281    16.76                   N       3102290501067890307204 1    
012-450ZAVEDOS CAPS 5MG                 11                            N       0857466501288200847504 2    
012-526FRUSOL ORAL SOLN 40MG/5ML    150ML1    15.58                           2560068501611909389004 2    
012-542FRUSOL ORAL SOLN 20MG/5ML    150ML1    12.07                           2560050501611909289304 2    
012-559FRUSOL ORAL SOLN 50MG/5ML    150ML1    16.84                           2560076501611909489704 2    
012-633PRAVASTATIN TAB 20MG TEV        281     0.90                   N       1115203501700702845102 2    
012-690PREDNISOLONE EC TAB 1MG         301     8.36                   N       8114928503663100229302 2    
012-724BUPIVACAINE S-WRAP AMP 0.2 10X10ML1    14.20                   N       1040369509960230389802 2    
012-732BUPIVACAINE S-WRAP AMP 0.5 10X10ML1    16.65                   N       1040377509960230390402 2    
012-765PROPRANOLOL SF SOLN 50MG/5ML 150ML1    42.26                   N       8114944000000000000002 2    
012-831PROPRANOLOL SF SOLN 10MG/5ML 150ML1    29.62                   N       8114977000000000000002 2    
012-864AQUACEL AG RIB S7509 2X45CM      51    25.10                   N       2926434076845510672103 2    
012-872DICLOMAX SR CAP 75MG            561    11.40                           2175511501450200114904 2    
012-948ZAVEDOS CAPS 10MG                11                            NZ      0857474501288200848204 2    
012-955CATH EASICATH NEL 5372 F 12CH   251    32.70                   N       2184448570178021554103 2    
012-989HOL KARAYA5 OP DR 3133 38/29MM  301    94.94                           0760215539016600336203 1    
013-003PRAVASTATIN TAB 10MG TEV        281     0.70                   N       1115195501700702840602 2    
013-011PROPRANOLOL SF SOLN 5MG/5ML  150ML1    25.01                   N       8115008000000000000002 2    
013-037PRAVASTATIN TAB 40MG TEV        281     1.20                   N       1115211501700702850502 2    
013-045IV3000 PORTED DRSG 9X12CM     1X501    77.50                   NZ      3202827500022345526203 1    
013-102HOL KARAYA5 DR 3112 OP 25/16MM  301    92.33                   NZ      0759324539016600306507 0    
013-151CATH EASICATH NEL 5370 F 10CH   251    32.70                   N       2184430570178021553403 2    
013-177AQUACEL AG DRSG S7507 15CMSQ     51    47.00                   N       2926392076845510962303 2    
013-185HOL KARAYA5 DR 3115 OP 64/51MM  301    92.33                   NZ      0760173000000000000007 0    
013-268HOL CLASSIC CL 7164 TR 51MM FB  301    72.48                   NZ      0756858539016601606507 0    
013-508SUNVIT-D3 2000IU/ML ORAL DROP 20ML1     6.51                   N       4028304506032056014604 2    
013-599AQUACEL AG DRSG S7506 10CMSQ    101    49.90                   N       2926376076845510961603 2    
013-623CATH EASICATH NEL 5368 F 8CH    251    32.70                   N       2184414570178021552703 1    
013-631AQUACEL AG DRSG S7508 20X30CM    51   116.60                   N       2926418076845510964703 1    
013-730AQUACEL AG DRSG S7505 5CMSQ     101    21.00                   N       2926350076845510960903 2    
013-748CIPRAMIL 20MG                   281     8.95                   N       2177855570215710650904 2    
013-797PI CELLCEPT TABS 500MG          501    82.26                   NZ      7122229000000000000006 2    
013-813CIALIS TAB 10MG                  41    28.88                   N       2917243501460240105404 2    
013-920AZITHROMYCIN TAB 500MG TEV       31     0.60                   N       1131663501700705551802 2    
013-961AZITHROMYCIN TAB 250MG TEV       41     0.49                   N       1131655501700705541902 2    
013-979TRILEPTAL SUSPENSION 60MG/ML 250ML1    48.96                   N       2904746501067892019204 2    
013-987BIOXTRA DRY MOUTH ORAL GEL    40ML1     4.14                           2727865542500512003704 2    
014-019NAPROSYN TAB 500MG              561     8.56                           2200301505622720067404 2    
014-118NUTRINI LOW ENERGY MULT FIBR 500ML1     7.76                   NZ      2909026871690057477104 2    
014-209SODIUM CROMOGLICATE EY/DRP  13.5ML1     9.09                   N       7042724500007042724502 2    
014-308NUTRINI ENERGY MULTI FIBRE   500ML1    10.25                   NZ      2909018871690057453504 2    
014-332FEMSEVEN CONTI PATCH 50MCG       41    15.48                   N       2884021501383732079604 2    
014-340HOL IMPRESS C DR 3261BE22MM FB  101    29.36                           2241859539016603220103 1    
014-357HOL IMPRESS C DR 3262BE25MM FB  101    29.36                           2241867539016603222503 1    
014-373HOL IMPRESS C DR 3263BE29MM FB  101    29.36                           2241875539016603224903 1    
014-449FEMSEVEN CONTI PATCH 50MCG      121    44.12                   N       2884039501383732078904 2    
014-456LORATADINE TAB 10MG ACC         301     1.04                   N       1091362501261702058102 2    
014-472LORATADINE TAB 10MG TEV         301     0.38                   N       1105071501700760291002 2    
014-571HOL ADAPT A/REM SPR 50ML 7737    11     7.31                           3986049539016616813903 1    
014-589HOL IMPRESS DR 3612 TR 25MM FB  101    29.61                   NZ      0546705539016600760507 0    
014-621LARYNGOFOAM F/BGE LALFF0023 L   301    13.68                           2869154502959800038903 1    
014-662VOICELINE PROS C/B LAPCB0003    101     9.02                           2881647502959800046403 1    
014-688HOL IMPRESS DR 3614 TR 32MM     101    30.59                           0547273000000000000007 0    
014-738EZETROL TAB 10 MG               281    26.31                   N       2946986501394519778504 2    
014-977COMBIVENT UDV 2.5ML             601    24.10                   N       2154052501281600012404 2    
015-032HOL PREM DR 3664 TR 51MM        151    49.59                           0850917000000000000007 0    
015-198LOPROFIN LP LONG SPAGHETTI    500G1     9.70                   N       2115251501653362897504 2    
015-206CLOMID TAB 50MG                 301     9.69                   N       0053942501526520001504 2    
015-263FEMOSTON TAB 2/10               841    16.16                   N       2132728501278103215104 2    
015-289SULPIRIDE TAB 400MG WCK         301    23.50                   N       2545614501272790261602 2    
015-321PHLEXY 10 TABS                  751    31.50                   N       2903615501653361546304 2    
015-362EBIXA 5MG/PUMP ORAL SOLUTION  50ML1    61.61                   NZ      2897072570215712740504 2    
015-370EBIXA 5MG/PUMP ORAL SOLUTION 100ML1   123.23                   NZ      2897064570215712750404 1    
015-438CO-AMOXICLAV INJ VIAL 600MG WCK 101    14.90                   N       1111293501272790426902 2    
015-446BETACAP SCALP APP            100ML1     3.75                           2186062501637933000104 2    
015-552HYDROXOCOBALAMIN AMP 1MG/1ML ACC 51     6.99                   N       1115294505556574174002 2    
015-594CO-AMILOFRUSE TAB 5/40MG WCK    281     7.94                   N       1062611501272790076602 2    
015-602ALLEVYN ADH DRSG 22.5CMS        101    81.80                           2206753500022341322403 2    
015-610SEBCO OINT                     40G1     6.20         8.00      N       2935351506006155001704 2    
015-727MIOCHOL E EY/D  20MG           2ML1     7.28                   N       2851004501067891317004 2    
015-735JUVELA MIX WHITE LOAVESFIBRE ROL 81    32.44                   NZ      8392847506017930020707 0    
015-750PHYSEPTONE INJ 50MG/ML      10X1ML1    17.72                   NZ      3017969502646817851304 2    
015-792SEBCO OINT                    100G1    11.67                           2935369506006155002404 2    
015-800CO-CARELDOPA TAB 12.5/50MG      901     6.61                   N       8116071506022260106002 2    
015-818JUVELA MIX WHITE ROLLSFIBRE ROLL 81    35.36                   NZ      8392839506017930022107 0    
015-826HOL IMPRESS C URO 1455 TR 29MM  101    51.22                           2241990539016600152803 1    
015-909GARDASIL 0.5ML PFS               11    86.50                   NZ      3247012501597372101704 2    
015-917BROMOCRIPTINE TAB 2.5MG ACC     301    75.20                   N       1212984501261702686602 2    
015-925ACTICOAT 10X10CM                 51    45.60                           2943942500022345368803 2    
015-941MORPHINE SULP AMP 30MG/ML W 10X1ML1    14.02                   NZ      1093921501272790322402 2    
015-974JUVELA MIXED WHITE & FIBRE LOAVE 81    28.32                   NZ      8392821506017930019107 0    
016-022COLOMYCIN VIAL 1000000IU/ML     101    18.00                   N       0055061501700760086204 2    
016-089JUVELA MIX FIBRE LOAVES WHITE RO 81    31.24                   NZ      8392730506017930021407 0    
016-139BIATAIN S ADH DR 4620 20CMSQ    101    71.20                   N       2941029570178089067003 2    
016-147COBAN 2 LAYER COMPRESSION SYST   11     8.40        14.24              3223062404671902238003 2    
016-212HOL URO DRAIN TUBE ADAPT 7331   101    24.81                           0234385539016603250803 1    
016-329POWERGEL                      100G1     5.89                           2210326503822700016404 2    
016-428POWERGEL                       50G1     3.06                           2210334503822700015704 2    
016-576ACTIVON TULLE CR3658 10X10CM     51    18.80                           3040623506003147051203 2    
016-626ACTIVON TULLE CR3761 5X5CM       51    11.40                           3040631506003147087103 2    
016-634HOL COMPT UR 1401 CTF       FB  101    56.06                           2192342539016603024503 1    
016-808KLIOVANCE TAB                   841    13.20                   N       2557163501795400074604 2    
016-865ALLEVYN ADH DRSG 7.5CMSQ        101    15.90                           2206720500022341319403 2    
016-873PELICAN PROT N/S B/FILM 133004  301    26.79                           3087624000000000000003 1    
016-972ZOPICLONE TAB 3.75MG ACC        281     1.27                   N       1076074501261700768102 2    
016-980ASPIRIN DISP TAB 75MG ACC       281     0.80                   N       1076140501261701711602 2    
017-012CATH SPEEDI CMPCT 28584 CH14    301    48.66                   N       3086444570893216621803 2    
017-079ALLEVYN ADH DRSG 12.5CMS        101    28.50                           2206738500022341320003 2    
017-137CAMPRAL EC TAB 333MG           1681    28.80                   N       2829042501367500090404 2    
017-186BUMETANIDE TAB 1MG TEV          281     0.66                   N       1075233501700702824602 2    
017-277COSOPT OPTHAL SOLN 2%          5ML1    10.05                   N       2574663501394516540104 2    
017-350LIDOCAINE & PHENYL NASAL     2.5ML1    16.21                   N       1076157502646800044902 2    
017-418PARACET TAB (CAPL) 500MG ZEN    321     0.52                   N       1077197500028365790302 2    
017-483SERETIDE 50 EVOHALER W/CTR   120DS1                            N       3108404500012311181704 2    
017-509LORATADINE TAB 10MG ALM         301     1.05                   N       7122765500007122765302 2    
017-517CATH SPEEDI CMPCT 28582 CH12    301    48.66                   N       3086436570893216619503 2    
017-525SERETIDE 125 EVOHALER W/CTR  120DS1                            N       3108453500012311183104 2    
017-533SERETIDE 250 EVOHALER  W/CTR 120DS1                            N       3108461500012311184804 2    
017-566CATH SPEEDI CMPCT 28578 CH8     301    48.66                   N       3086410570893217332203 1    
017-715ALLEVYN ADH DRSG 17.5CM         101    56.10                           2206746500022341321703 2    
017-780ZLATAL 22.5MG METHOTREXATE PFS   11    16.61                   N       4029294871848114134204 2    
017-806ZLATAL 7.5 MG METHOTREXATE PFS   11    13.37                   N       4029237871848114122904 2    
017-814ZLATAL 10 MG METHOTREXATE PFS    11    13.77                   N       4029245871848114124304 2    
017-848COMFEEL CLEANSER SACH 4715      301     9.66                   NZ      3148525570893218908803 1    
017-855COMPETACT TABS 15MG/850MG       561    35.89                   N       3241999503538201005204 2    
017-863ZLATAL 12.5MG METHOTREXATE PFS   11    14.85                   N       4029252871848114126704 2    
017-921INSPRA TAB 25MG                 281                            N       3092061121000114060804 2    
017-939INSPRA TAB 50MG                 281                            N       3092079121000114061504 2    
017-962PROPECIA TABS 1MG               841    88.40                   N       3243854501394512054704 2    
017-970ZLATAL 15MG METHOTREXATE PFS     11    14.92                   N       4029260871848114128104 2    
017-988PHLEXY VITS 7G                  301    80.40                   N       2726834501653330221904 2    
018-069FAST-AID ZO TAPE 4482 1.25X5M    11     0.77                   NZ      2949162501005814482803 2    
018-234PI HYLO-FORTE PRES FREE       10ML1     8.46                   NZ      8391625000000000000006 2    
018-291PELICAN 113412 DRN STD CLD CTF  101    45.66                           3062833000000000000007 0    
018-481FAST-AID ZO TAPE 4484 5CMX5M     11     1.88                   NZ      2949196501005814484203 2    
018-523FLEXICARE F4L DRAIN BAG      10X2L1    10.01                           2724870505517370523307 0    
018-549ZLATAL 17.5MG METHOTREXATE PFS   11    15.75                   N       4029278871848114130404 2    
018-556CELLUVISC 0.5% EY/D        30X.4ML1     4.80                   N       3249661402478743053504 2    
018-655CYCLOSERINE PULV 250MG         1001   442.89                           0067108503300300225704 1    
018-671MEDIX LIFECARE NEB KIT ADULT     11     2.06         3.50      NZ      2911030502332305071703 1    
018-762MEDIX LIFECARE FACE MASK ADULT   11     0.73         1.10      NZ      2911071502332305075503 1    
018-838CYTAMEN AMP 1000MCG              51    14.50                           0067371506006479164604 2    
018-895ZLATAL 20MG METHOTREXATE PFS     11    16.06                   N       4029286871848114132804 2    
018-929DALACIN C CAP 150MG            1001                            N       0067546501345702551404 2    
019-018PELICAN SEL DR CVX MX CTF       101    45.66                   NZ      3063278000000000000007 0    
019-109CONFIDENCE COMFORT CFDT13 1PC   301    93.99                           3196631000000000000007 0    
019-158DARAPRIM TAB 25MG               301                            N       0068999501070600567904 2    
019-331CATH LOF PRIMO 4101425 CH14 M   301    48.61                           3799657739253214919103 2    
019-349CATH LOF PRIMO 4101625 CH16 M   301    48.61                           3799665739253214922103 1    
019-356CATH LOF PRIMO 4101825 CH18 M   301    48.61                           3799673739253214925203 1    
019-414LIDOCAINE OINT 5% TEV          15G1     8.28                   N       0791012501700711636302 2    
019-422COMFIPRESSION LINER KIT MED      31     9.85                   N       3420882502120960148003 1    
019-539TRUE YOU BLD GLUCOSE T/STRIPS   501     7.95                   NZ      3782216002129201349303 2    
019-596SEAL-TIGHT 20103 S/LEGADL        11    11.90                   NZ      2058600008216120103803 1    
019-604RENASYS Y CONNECTOR              11     3.47                           3812807004056512554103 1    
019-612EMSOGEN UNFLV 253          10X100G1    85.70                   NZ      2109676501653362723704 2    
019-620SEAL-TIGHT 20105  ANKLE ADL      11    11.90        19.98      NZ      2058634008216120105203 1    
019-646RENASYS G ROUND DRSG KIT 19 SP   11    25.06                           3812864004056512638807 0    
019-661RENASYS G CHANNEL DR DRSG KIT    11    25.06                           3812856004056512637103 1    
019-687RIZATRIPTAN TAB 5MG ACC          61    26.73                   N       1184928501261702419002 2    
019-695RIZATRIPTAN TAB 10MG ACC         31     5.51                   N       1184936501261702417602 2    
019-703RIZATRIPTAN TAB 10MG ACC         61     9.98                   N       1184944501261702418302 2    
019-760SEAL-TIGHT 20104  LNG LEG ADL    11    11.90        19.98      NZ      2058626008216120104503 1    
019-778PHLEXY-10 30 SACHETS TROP 1 BOXX201   144.90                   NZ      2912830501653361727604 1    
019-794ZLATAL 25MG METHOTREXATE PFS     11    16.64                   N       4029302871848114136604 2    
019-810METHYLPHENIDATE TAB 20MG        301    10.92                   N       8387912506001444230702 2    
019-828METHYLPHENIDATE TAB 5MG         301     3.03                   N       8387938506001444228402 2    
019-851NITROFURANTOIN TAB 50MG ACC     281    18.15                   N       1085083501261701005602 2    
019-877PHLEXY-10 30 SACHETS CITR 1 BOXX201   144.90                   NZ      2912822501653361726904 1    
019-935NITROFURANTOIN TAB 100MG ACC    281    12.98                   N       1085075501261701006302 2    
019-943BUDESONIDE NEB SUSP 0.5MG A 20X2ML1    25.56                   N       1127497501261700120702 2    
019-992ACTICO 2C COMPRESSION LAYER 2    11     4.13                           3780707402144767105503 1    
020-008ACTICO 2C COMFORT LAYER          11     4.50                           3780699402144767103103 1    
020-057OPTILUBE ST LUB JELLY PFS  1X25X111    25.00                           3734365506022247072703 1    
020-065OPTILUBE STR  LUB JELLY PFS 25X6ML1    23.75                           3734357506022247071003 1    
020-073DEPO MEDRONE INJ 40MG/ML       1ML1                            N       0071407501288200703404 2    
020-081GANFORT UD EYE DROP 30 DOSE   .4ML1    17.94                   N       3811304501600720448304 2    
020-131FUROSEMIDE SF SOLN 40MG/5ML  150ML1    19.53                   N       8160145500008160145002 2    
020-180FUROSEMIDE SF SOLN 20MG/5ML  150ML1    14.81                   N       8160129500008160129002 2    
020-206ASPIRIN EC TAB 300MG           1001    25.29                   N       8160152506006479049602 2    
020-297RAPAMUNE TABS 2MG               301                            NZ      2943702541506236922704 2    
020-305AVODART SOFT CAP                301                            N       2921070500012311133604 2    
020-362DESMOPRESSIN NASAL SPRAY 10MCG 6ML1    31.77                   N       8415408500008415408302 2    
020-461DILTIAZEM MR TAB 60MG           841    12.60                   N       8415416500008415416802 2    
020-503GRANISETRON TAB 1MG             101    40.80                   N       8415432500008415432802 2    
020-578ACECLOFENAC TAB 100MG           601     5.81                   N       8415457500008415457102 2    
020-610ZYDOL SR TAB 100MG              601    17.22                   NZ      2233609403212900358304 2    
020-826ZYDOL SR TAB 150MG              601    25.83                   NZ      2233617403212900359004 2    
020-859TRUSOPT 2% OPTH SOLN           5ML1     6.33                   N       2228211501394516530204 2    
020-974PI MIRAPEXIN TAB 700MCG         301    87.69                   N       7122237000000000000006 2    
020-982ZYDOL SR TAB 200MG              601    34.40                   NZ      2233625403212900360604 2    
021-055ANGITIL SR CAP 120MG            561     6.91                   N       2129963506007867015904 2    
021-071PROCHLORPERAZINE TAB 5MG ACC    281     1.68                   N       1083013501261700989002 2    
021-113BUDESONIDE NEB SUSP 1MG ACC 20X2ML1    39.44                   N       1127505501261700121402 2    
021-220NANOPASS PEN NDL 32.5G 4MM     1001     7.60                           3815321498735071666803 1    
021-246NANOPASS PEN NDL32.5G 8MM      1001     7.60                           3815339498735071670503 1    
021-345TOPAMAX TAB 200MG               601   110.23                   N       2240711501294602609404 2    
021-386SALBUTAMOL TAB 2MG ACC          281   105.02                   N       1081231501261700892302 2    
021-659TEGADERM H/COL  90002 10CMSQ     51    12.07                           2223915500048508961803 1    
021-667ANGITIL SR CAP 90MG             561     7.03                   N       2129955506007867014204 2    
021-675TOPAMAX TAB 100MG               601    56.76                   N       2240729501294602608704 2    
021-766ANGITIL SR CAP 180MG            561    13.27                   N       2129732502861300041004 2    
021-782TOPAMAX TAB 50MG                601    31.69                   N       2240703501294602607004 2    
021-915TEGADERM THIN 90021 10X12CM     101    15.79        24.92              2223931871142807744503 1    
022-129COLECALCIF/VIT D3 1000IU NOPL   281     2.95                   NZ      8389843506021926001002 2    
022-152VIRAFERON C/CLCK PF PEN 150 150MCG1   199.38                   NZ      3814332501394530077204 2    
022-178VIRAFERON C/CLCK PF PEN 120 120MCG1   159.51                   NZ      3814340501394530076504 2    
022-186VIRAFERON C/CLCK PF PEN 100 100MCG1   132.92                   NZ      3814357501394530075804 2    
022-194VIRAFERON C/CLCK PF PEN 80MC 80MCG1   106.34                   NZ      3814365501394530074104 2    
022-202VIRAFERON C/CLCK PF PEN 50MC 50MCG1    66.46                   NZ      3814373501394530073404 2    
022-269NEPRO HP STRAWBERRY          220ML1     3.66                   NZ      3816410871042800309604 2    
022-368DIAZEPAM TAB 2MG ACC            281     0.49                   N       1085026501261701008702 2    
022-392ARIMIDEX TAB 1MG                281    68.56                   NZ      2228013500045500632404 2    
022-434COMFIFAST YEL MST 10.75CM/5M ALV 11     6.45                           8386732501982955154403V1    
022-665ZOLADEX 10.8MG SAFE SYSTEM       11   235.00                   NZ      2185940500045501821104 2    
022-699MENTHOL & EUCALYPTUS INHAL   100ML1     2.40                   N       6827190500006827190402 2    
022-723ALLEVYN ADH DRSG 10X10CM        101    23.30                           2909091500022345410403 2    
022-731GLUCAGEN 1MG KIT                 11    11.52                   NZ      2227510573801940201404 2    
022-772ANABACT GEL                    15G1     5.64                           2240075501256400100804 2    
022-780NEPRO HP                     500ML1     8.39                   NZ      3816436871042800291404 2    
022-806NEPRO HP VANILLA             220ML1     3.66                   NZ      3816428871042800310204 2    
022-954PERATIVE READY TO HANG       500ML1     8.68                   NZ      2644151871042800976004 2    
023-002ANABACT GEL                    30G1     7.89                           2240083501256400101504 2    
023-416METHADONE DTF ORAL SOLN 1MG/ 100ML1     1.13                   NZ      1057041501611912529402 2    
023-556CATH A/FLATE PTFE DP3101M 14CH   11     2.27                   N       2856839402670431770703 1    
023-614AMIODARONE SUSP 200MG/5ML SP 100ML1   291.20                   NZ      8410391000000000000007 0    
023-648AMIODARONE SUSP 50MG/5ML SP  100ML1    42.69                   NZ      8410425000000000000007 0    
023-689GLUTAFIN GF PB BAGUETTES    2X175G1     3.51         3.87      N       2240117545054500196604 2    
023-820INS HUMULIN S CART    100IU/ 5X3ML1    19.08                   NZ      2210888501460210074204 2    
023-861HOL 9650 NIGHT DRAINAGE BAG     101    13.85                           2662229539016603394903 1    
023-903CLEAR ADV SHTH 786187 23MM SM   301    53.59                   N       2245629501250911959103 1    
023-945INS HUMULIN M3 CART 100IU/ML 5X3ML1    19.08                   NZ      2210904501460210078004 2    
024-000CLEAR ADV SHTH 786195 28MM MD   301    53.59                   N       2245637075218129995603 2    
024-075OSMOLITE PLUS READY TO HANG  500ML1     6.13                   NZ      2644136871042801459704 2    
024-117PRIMIDONE (SERB) TAB 250MG     1001   106.69                   N       8395600500008395600802 2    
024-125PRIMIDONE (SERB) TAB 50MG      1001   111.66                   N       8395634500008395634302 2    
024-133FERROUS FUM TAB 210MG NOPL      841     3.99                   N       8395667506013517068402 2    
024-141CALCIUM/VITD 1500MG/400IU TEV  1121     5.09                   N       3819893501700701308202 2    
024-158CALC/D3 EVACAL 1500MG/400IU TEV 561     2.54                   N       3819885501700701304402 2    
024-166MACROGOL PDR SF SACHET ACC      301     4.27                   N       1186444501261702438102 2    
024-190BISOPROLOL SUSP 625MCG/5ML S 150ML1   203.46                   NZ      8410904000000000000007 0    
024-224AMINEX GF LP RUSKS            200G1     5.14                   N       2160190402466800195304 2    
024-232CLEAR ADV SHTH 786225 31MM ST   301    53.59                   N       2245645501250911964503 2    
024-265BISOPROLOL SUSP 625MCG/5ML S 280ML1   223.44                   NZ      8410938000000000000007 0    
024-273ATIMOS MODULITE 12MCG INH        11    30.06                   NZ      3163706502861300275904 2    
024-331CLEAR ADV SHTH 786233 35MM LG   301    53.59                   N       2245652075218129997003 1    
024-414INS HUMULIN I CART 100IU/ML  5X3ML1    19.08                   NZ      2210896501460210075904 2    
024-422TAMOXIFEN SF SOLTN 10MG/5ML  150ML1    74.52                   N       2653053501611916489702 2    
024-463ARAVA TAB 20MG                  301    55.10                   N       2650281501384120224804B2    
024-489NUTRISON MULTI FIBRE          1.5L1    17.34                   NZ      2649002871240066003704 2    
024-505INS NOVORAPID VIAL            10ML1    14.08                   NZ      2652774501795400094404 2    
024-513INS NOVORAPID PENFILL 100IU/ 5X3ML1    28.31                   NZ      2652782501795400095104 2    
024-554PROFORE 1 LATEX-FREE 10CMX3.5M   11     0.81                           3222700500022345893503 2    
024-588PROFORE 2 LATEX-FREE 10CMX4.5M   11     1.50                           3222718500022345895903 2    
024-612MESORB ABS DRSG 10CMSQ          101     6.50                           2553527732319015899703 1    
024-620PROFORE+ LATEX-FREE 10CMX3M      11     4.18                           3222742500022345897303 2    
024-661PEDITRACE 10ML VIAL             101    35.50                   N       2221315501875012903704 2    
024-695MESORB ABS DRSG 10X20CM 677480  101    10.50                           2553543732319020159403 1    
024-703SPIRICLENS SPR ADM           200ML1     5.11                   N       7047079503474907801804 2    
024-729PROFORE 3 LATEX-FREE 10CMX8.7M   11     4.54                           3222726500022345611503 2    
024-760TRACHI-DRESS TRDRE0001 S        201    15.60                           0122309502959800011203 1    
024-794ASSURA UR2550 MDCL1P 10MM FB    301   153.26                   N       2118933570178044363003 1    
024-869TRACHI-DRESS TRDRE0002 L        201    15.60                           2146215502959800012903 1    
024-877PI NEUPRO PATCHES 4MG           281   123.60                   NZ      8121238000000000000006 2    
024-893PROFORE 4 LATEX-FREE 10CMX2.5M   11     3.76                           3222734500022345603003 2    
024-927MESORB ABS DRSG 15X20CM 677680  101    14.90                           2553550732319025374603 1    
024-935CAVERJECT PDR FOR INJ 40MCG      11                            NZ      2485068501288200390604 2    
024-943PI NEUPRO PATCHES 6MG           281   149.93                   NZ      8121246000000000000006 2    
024-950CHLOROTHIAZIDE SUSP 150MG/5M 150ML1    41.01                   NZ      8411308000000000000007 0    
024-968CHLOROTHIAZIDE SUSP 200MG/5M 180ML1    53.59                   NZ      8411340000000000000007 0    
024-984MESORB ABS DRSG 20X30CM 677880  101    26.70                           2553576732319025380703 2    
025-023CHLOROTHIAZIDE SUSP 200MG/5M 300ML1    66.79                   NZ      8411357000000000000007 0    
025-031ASMANEX TWISTHALER 200MCG     30DS1    15.70                   N       2911360501237612576304 2    
025-064ASMANEX TWISTHALER 200MCG     60DS1    23.54                   N       2911378501237612577004 2    
025-130ASMANEX TWISTHALER 400MCG     60DS1    36.05                   N       2911386501237612579404 2    
025-148ASMANEX TWISTHALER 400MCG     30DS1    21.78                   N       2911394501237612578704 1    
025-163FEMOSTON TAB 1/10               841    16.16                   N       2132744501278103235904 2    
025-189CLOMIPRAMINE SUSP 50MG/5ML S 210ML1    92.38                   NZ      8411589000000000000007 0    
025-205ASSURA UR2570 MXCL1P 10MM FB    301   153.26                   NZ      2118941570178044365403 1    
025-296IBUPROFEN GEL 5%              100G1     2.82                   N       7107998502169160005302 2    
025-346CO-CODAMOL TAB 8/500MG          321     1.34                   N       7107790500007107790602 2    
025-379ASPIRIN DISP TAB 300MG ALM      321     1.13                   N       7107485500007107485102 2    
025-387ASPIRIN TAB 300MG ALM           321     3.66                   N       7107311000000000000002 2    
025-395CONVEEN SEC+L/BAG 5160 500ML M  101    26.42                   N       2239549570178043855103 1    
025-478PHENOBARBITAL ELIXIR (T&R) B 500ML1    83.01                   NZ      1021922501130914491802 2    
025-528CONVEEN SEC+L/BAG 5161 500ML L  101    26.42                   N       2239556570178043857503 1    
025-569CLOPIDOGREL SUSP 1MG/ML SP    30ML1    29.61                   NZ      8412140000000000000007 0    
025-577SOTALOL TAB 80MG TEV            281     0.80                   N       1056241501700760286602 2    
025-619CARELINE NGHTBAG E4 4620IDC 2L  101    12.43                   N       2708733000000000000003 2    
025-627CARELINE LGBAG 500ML 4605SVC    101    27.19                   N       2708766000000000000003 2    
025-635GLUTAFIN GF SELECT S/LOAF SLC 400G1     3.72                   N       3089364501095530099004 2    
025-643CLOPIDOGREL SUSP 1MG/ML SP   300ML1    39.61                   NZ      8412157000000000000007 0    
025-668CLOPIDOGREL SUSP 1MG/ML SP    75ML1    29.61                   NZ      8412165000000000000007 0    
025-700CAPASTAT INJ VIAL 1G             11    31.47                   N       0041871503300300226404 2    
025-726CARBOFLEXN/ADH  S7662 15X20CM    51    38.90                   N       2527380076845511101503 2    
025-742CARBOFLEX N/ADH  S7660 10CMSQ   101    34.20                   N       2527364076845511099503 2    
025-866COLECALCIFEROL SOL 30.000IU/5 40ML1   105.60                   NZ      8412330000000000000007 0    
025-874ALVEDON SUPP 60MG               101    11.95                           2551224503902100700704 2    
025-882COMFEEL+ 33110 10CMSQ           101    25.60                   N       2229904570893201296603 2    
025-908COLECALCIFEROL SOL 30.000IU/5 25ML1    93.90                   NZ      8412348000000000000007 0    
025-916CTS 10% / EMU OINT SP         500G1    86.94                   NZ      8412363000000000000007 0    
025-924ALVEDON SUPP 250MG              101    27.60                           2551232503902100720504 2    
025-940PI AQUACEL AG DRSG 10CMSQ       101    47.41                   N       8416539000000000000006 2    
025-965PROVOX OPTIDERM OVAL FILTER     201    95.60                   N       2579134000000000000003 1    
025-973PROVOX FLEXIDERM ROUND FILTER   201    58.00                   N       2579092000000000000003 1    
025-981PROVOX FLEXIDERM OVAL FILTER    201    58.00                   N       2579118000000000000003 1    
025-999PYRIDOXINE TAB 50MG WCK         281    31.02                   N       1077825501272790298202 2    
026-039COMFEEL+ 33115 15CMSQ           101    55.00                   N       2229912570893265912303 1    
026-054CYCLIZINE SUPP 50MG SP         6X61   381.59                   NZ      8412389000000000000007 0    
026-096ZEROBASE CREAM PUMP           500G1     5.26                   N       3054681501130916262204 2    
026-112BACLOFEN TAB 10MG ALM           841     2.53                   N       1117639506005740189702 2    
026-146COMFEEL+ 33120 20CMSQ            51    39.55                   NZ      2229920570893201210203 3    
026-179CO-CODAMOL TAB 30/500MG WCK     301     1.17                   N       1077635501272790232602 2    
026-187AQUADRY FREEDOM SHTH 786280 ST  301    53.86                   N       2193456501250911942303 1    
026-195PROVOX OPTIDERM ROUND FILTER    201    95.60                   N       2579126000000000000003 1    
026-203PI MESORB ABS DRSG 20X30CM      101    23.63                   N       8387235000000000000006 2    
026-229CYCLIZINE SUSP 50MG/5ML SP    50ML1    35.59                   NZ      8412454000000000000007 0    
026-237CYCLIZINE SUSP 50MG/5ML SP   400ML1    62.59                   NZ      8412462000000000000007 0    
026-245CYCLIZINE SUSP 50MG/5ML SP   200ML1    44.59                   NZ      8412496000000000000007 0    
026-252CYCLIZINE SUSP 50MG/5ML SP   300ML1    53.59                   NZ      8412512000000000000007 0    
026-260ATENOLOL TAB 100MG ALM          281     0.85                   N       1097468506005740050002 2    
026-278DANTROLENE SUSP 100MG/5ML SP 300ML1    16.75                   NZ      8412520000000000000007 0    
026-294NORETHISTERONE TAB 5MG WCK      301     4.15                   N       1081538501272790313202 2    
026-310DANTROLENE SUSP 10MG/5ML SP  300ML1   103.49                   NZ      8412538000000000000007 0    
026-328DANTROLENE SUSP 10MG/5ML SP  500ML1   125.49                   NZ      8412546000000000000007 0    
026-336DANTROLENE SUSP 25MG/5ML SP  150ML1    19.54                   NZ      8412553000000000000007 0    
026-369ERDOTIN CAPS 300MG              201     5.00         4.99      N       3248861501629800398704 2    
026-377DESMOPRESSIN SUSP 200MCG/5ML 100ML1   220.72                   NZ      8412637000000000000007 0    
026-385DESMOPRESSIN SUSP 200MCG/5ML 200ML1   263.40                   NZ      8412652000000000000007 0    
026-393FUROSEMIDE TAB 40MG TEV         281     0.22                   N       1077866501700701642702 2    
026-401AQUADRY FREEDOM SHTH 786288 XL  301    53.86                   N       2193464501250911947803 1    
026-419DESMOPRESSIN SUSP 20MCG/5ML  150ML1   245.66                   NZ      8412686000000000000007 0    
026-443MINODIAB TAB 5MG                281                            N       2581890501288200827704 2    
026-518EPANUTIN SUSP 30MG/5ML       500ML1                            N       0089094501345701140104 2    
026-526COMTESS TAB 200MG              1001    57.45                           2574960643210000361404 2    
026-534VALTREX TAB 500MG               101                            NZ      2256428501070600578504 2    
026-583DIAZOXIDE SUSP 250MG/5ML SP  300ML1    56.35                   NZ      8412777000000000000007 0    
026-591DILTIAZEM SUSP 60MG/5ML SP   150ML1    19.92                   NZ      8412819000000000000007 0    
026-609COMTESS TAB 200MG               301    17.24                           2574929643210000360704 2    
026-625DILTIAZEM SUSP 60MG/5ML SP   250ML1    28.92                   NZ      8412835000000000000007 0    
026-682DILTIAZEM SUSP 60MG/5ML SP   400ML1    42.42                   NZ      8412876000000000000007 0    
026-690DILTIAZEM SUSP 60MG/5ML SP   500ML1    51.42                   NZ      8412900000000000000007 0    
026-740DOXAZOSIN SUSP 1MG/5ML SP    280ML1    73.56                   NZ      8412959000000000000007 0    
026-757DOXAZOSIN SUSP 4MG/5ML SP    140ML1    64.74                   NZ      8412975000000000000007 0    
026-773URIFIX SHEATH TPE T115 3CMX5M    11     6.34                           0119610000000000000007 0    
026-781CARELINE LGBAG 500ML 4606LVC    101    27.19                   N       2708774000000000000003 2    
026-799DOXAZOSIN SUSP 4MG/5ML SP    150ML1    64.74                   NZ      8412991000000000000007 0    
026-807GANFORT EY/D TRIPLE PACK       3ML1    38.15                   N       3225695402478743059704 2    
026-815DOXAZOSIN SUSP 4MG/5ML SP    280ML1   105.04                   NZ      8413007000000000000007 0    
026-823COSOPT PRES/FREE EY/D 2%        601    28.59                   N       3252848501394530068004 2    
026-856CATH ACTREEN SET 226310E 10CH   301    64.77                           3059060403923950136703 1    
026-864DOXEPIN SUSP 50MG/5ML SP     100ML1   410.67                   NZ      8413023000000000000007 0    
026-872ENALAPRIL SUSP 10MG/5ML SP   280ML1    16.17                   NZ      8397739000000000000007 0    
026-880ENALAPRIL SUSP 10MG/5ML SP   300ML1    16.37                   NZ      8413064000000000000007 0    
026-906ENALAPRIL SOL 5MG/5ML SP     100ML1    47.23                   NZ      8413080000000000000007 0    
026-922ENALAPRIL SUSP 5MG/5ML SP    210ML1    44.69                   NZ      8413114000000000000007 0    
026-930VALNI(NIFEDIPINE) XL TAB 60MG   281     9.03                           2585784500028360550804 2    
026-948CURATODERM OINT                30G1    13.40                   N       2245132500016701914804 2    
026-971ENALAPRIL SUSP 5MG/5ML SP    300ML1    50.09                   NZ      8413130000000000000007 0    
026-989VALNI (NIFEDIPINE) XLTAB 30MG   281     6.85                           2585776500028360549204 2    
026-997ENALAPRIL SUSP 5MG/5ML SP    500ML1    62.09                   NZ      8413148000000000000007 0    
027-003ISOTARD TAB 50XL 50MG           281     6.75                   N       2533065503890300022804 2    
027-011ZEMTARD XL CAP 120MG            281     6.10                           2391035501629881032504 2    
027-029ZEMTARD XL CAP 180MG            281     6.20                           2391027501629882033104 2    
027-045ZEMTARD XL CAP 300MG            281     6.70                           2318830501629880035704 2    
027-078ISOTARD TAB 25XL 25MG           281     6.75                   N       2533073503890300020404 2    
027-094ISOTARD TAB 40XL 40MG           281     6.75                   NZ      2463339503890300021104 2    
027-102ENALAPRIL SUSP 5MG/5ML SP    120ML1    39.29                   NZ      8413155000000000000007 0    
027-110ENTACAPONE SUSP 200MG/5ML SP 500ML1   260.20                   NZ      8413163000000000000007 0    
027-151NIMBEX AMPS 10ML            5HPX101    37.75                   NZ      2261048506024917468404 2    
027-177ZEMTARD XL CAP 240MG            281     6.30                           2391019501629883034704 2    
027-201FLAVOXATE SUSP 200MG/5ML SP  450ML1   183.31                   NZ      8413189000000000000007 0    
027-219FLECAINIDE SUSP 10MG/5ML SP  200ML1    13.88                   NZ      8413213000000000000007 0    
027-243MESORB ABS DRSG 20X25CM 677780  101    23.50                           2553568732319020139603 1    
027-268MESORB ABS DRSG 10X15CM         101     8.50                           2553535732319015905503 1    
027-300TENSIPINE MR TAB 10MG           561     4.30                   N       2303998503045100010104 2    
027-318TENSIPINE MR TAB 20MG           561     5.49                   N       2304004503045100011804 2    
027-326FLECAINIDE SUSP 25MG/5ML SP  100ML1    14.22                   NZ      8413239000000000000007 0    
027-334FLECAINIDE SUSP 25MG/5ML SP  400ML1    26.22                   NZ      8413304000000000000007 0    
027-375THICK & EASY PDR            4.54KG1    96.75                   N       2196343501875079002204 2    
027-458ERYTHROCIN FILMTAB 250MG       1001    18.20                   NZ      0090209501315850791304 2    
027-466RAMIPRIL CAP 2.5MG ACC          281     2.89                   N       1112580505556574786502 2    
027-490RAMIPRIL CAP 5MG ACC            281     1.16                   N       1112598505556574787202 2    
027-508RAMIPRIL CAP 10MG ACC           281     1.48                   N       1112606505556574788902 2    
027-524FORMALDEHYDE 3% SOL SP       500ML1   146.80                   NZ      8413361000000000000007 0    
027-565DANSAC UNQ LHT 25520 OP CTF     301    77.25                           2250280570981706118503 1    
027-573FORMALDEHYDE 5% SOL SP       500ML1   161.86                   NZ      8413379000000000000007 0    
027-599RAMIPRIL CAP 1.25MG ACC         281     1.22                   N       1112572505556574785802 2    
027-623ADIPINE MR 20 TAB 20MG          561     5.21                   N       2201812502861300089204 2    
027-649MEPILEX ABS SIL DRSG HEEL        51    28.15                           2293769732319027139903 2    
027-763HOLL ADAPT LUB DEO 78500 236 236ML1     9.98                           3093390539016606618303 1    
027-813PI APROVEL TAB 300MG            281    12.85                   N       7108988000000000000006 2    
027-896HOLL ADAPT LUB DEO 78501 SA 50X8ML1    14.18                           3093408539016606620603 1    
027-912ADIPINE MR 10 TAB 10MG          561     3.73                   N       2233112502861300093904 2    
